:100000000C94432B0C94742B0C94742B0C94742B25
:100010000C94742B0C94742B0C94742B0C94742BE4
:100020000C94742B0C94742B0C94742B0C94742BD4
:100030000C94742B0C94CF5A0C94742B0C94742B3A
:100040000C94742B0C9478930C94742B0C94742B48
:100050000C94742B0C94742B0C94FCE90C9478ED98
:100060000C94742B0C94D2E90C94A2E90C94742B8C
:100070000C94742B0C94742B0C94742B0C94742B84
:100080000C9444980C94742B0C94742B0C94742B37
:100090000C9478E90C9448E90C94742B0C94742B10
:1000A0000C94742B0C94742B0C94742B0C94742B54
:1000B0000C94742B0C94742B0C94742B0C94742B44
:1000C0000C94742B0C94742B0C94742B0C94742B34
:1000D0000C94742B0C94742B0C94742B0C94742B24
:1000E0000C94742B0B5A815A445A3B5A4E5A545A08
:1000F000745AEA7F8F7E8F7E8F7E8F7E8F7E8F7E7B
:100100008F7E8F7E8F7E8F7E8F7E8F7E8F7E8F7E87
:100110008F7E8F7E8F7E8F7E8F7E8F7E8F7E8F7E77
:10012000AC7FB77F967F8B7F357F407FAA7EA17F94
:100130006A7F757FC27FCD7FBB7E977ED87F5F7FD2
:100140008F7E807F547F4B7F8F7E8F7E8F7E147F4C
:100150001F7F2A7F8F7E8F7E8F7E8F7E8F7E8F7E0A
:10016000AC7FB77F967F8B7F357F407FAA7EA17F54
:100170006A7F757FC27FCD7FBB7E977ED87F5F7F92
:100180008F7E807F547F4B7F8F7E8F7E8F7E147F0C
:100190001F7F2A7F62987298749893987D9893989D
:1001A0008698939807EB0AEBF9EAFDEA03EB41EB3B
:1001B0000EEB12EB18EB1CEB20EB26EB2AEB2EEBF5
:1001C00041EB34EB38EB3CEB94EC99EC9EECA8EC77
:1001D000B2EC2BEDBCECC4ECCCECD6ECE0ECEAECF5
:1001E000F9EC03ED2BED0DED17ED21ED084AD73BB2
:1001F0003BCE016E84BCBFFDC12F3D6C74319ABDF6
:1002000056833DDA3D00C77F11BED9E4BB4C3E9119
:100210006BAAAABE000000803F05A84CCDB2D44E08
:10022000B93836A9020C50B9918688083CA6AAAA0A
:100230002ABE000000803F004E414E494E495459AD
:10024000494E46CDCCCC3D0AD7233C17B7D13877A1
:10025000CC2B329595E6241FB14F0A0000204100B7
:1002600000C84200401C4620BCBE4CCA1B0E5AAE01
:10027000C59D745D7D00222C2266696C6573223AEF
:100280005B007B22646972223A2200456E6420661C
:10029000696C65206C69737400426567696E2066DD
:1002A000696C65206C697374005344207072696EC8
:1002B00074696E6720627974652000577269746989
:1002C0006E6720746F2066696C653A20006F7065F8
:1002D0006E206661696C65642C2046696C653A2005
:1002E000004372656174696F6E206661696C656454
:1002F000004469726563746F72792063726561741A
:10030000656400206D696E0020686F75727320004F
:10031000206461797320005072696E74696E672081
:1003200074696D653A006D20005072696E74656481
:100330002066696C616D656E743A00526574726115
:100340006374696F6E20756E646F20737065656489
:1003500000457874726120657874727573696F6E88
:10036000206F6E20756E646F2072657472616374A5
:10037000205B6D6D5D0052657472616374696F6EB0
:10038000207A2D6C696674205B6D6D5D005265741A
:1003900072616374696F6E207370656564205B6D54
:1003A0006D2F735D0052657472616374696F6E20A6
:1003B0006C656E677468205B6D6D5D00456E616293
:1003C0006C652072657472616374696F6E20636F0F
:1003D0006E76657273696F6E205B302F315D0074CD
:1003E000616E585A204178697320436F6D70656E55
:1003F000736174696F6E0074616E595A2041786937
:100400007320436F6D70656E736174696F6E0074F5
:10041000616E5859204178697320436F6D70656E25
:10042000736174696F6E004175746F6C6576656C8D
:10043000206163746976652028312F3029005A2D98
:1004400070726F62652062656E64696E6720636FAB
:100450007272656374696F6E2043205B6D6D5D0021
:100460005A2D70726F62652062656E64696E6720D6
:10047000636F7272656374696F6E2042205B6D6D8D
:100480005D005A2D70726F62652062656E64696EE0
:100490006720636F7272656374696F6E2041205BC1
:1004A0006D6D5D005A2D70726F6265205933205B4F
:1004B0006D6D5D005A2D70726F6265205833205B40
:1004C0006D6D5D005A2D70726F6265205932205B30
:1004D0006D6D5D005A2D70726F6265205832205B21
:1004E0006D6D5D005A2D70726F6265205931205B11
:1004F0006D6D5D005A2D70726F6265205831205B02
:100500006D6D5D005A2D70726F6265206F66667347
:1005100065742079205B6D6D5D005A2D70726F627D
:1005200065206F66667365742078205B6D6D5D0075
:100530005A2D70726F626520782D792D7370656504
:1005400064205B6D6D2F735D005A2D70726F626554
:10055000207370656564205B6D6D2F735D004D6168
:10056000782E207A2D70726F6265202D206265646E
:1005700020646973742E205B6D6D5D005A2D70725E
:100580006F626520686569676874205B6D6D5D00EA
:10059000436F6174696E6720746869636B6E65731D
:1005A00073205B6D6D5D005A2D61786973207472E4
:1005B0006176656C20616363656C65726174696FF7
:1005C0006E205B6D6D2F735E325D00592D61786911
:1005D000732074726176656C20616363656C65720B
:1005E0006174696F6E205B6D6D2F735E325D0058B4
:1005F0002D617869732074726176656C2061636324
:10060000656C65726174696F6E205B6D6D2F735ED2
:10061000325D005A2D6178697320616363656C6592
:10062000726174696F6E205B6D6D2F735E325D0059
:10063000592D6178697320616363656C65726174BB
:10064000696F6E205B6D6D2F735E325D00582D619A
:1006500078697320616363656C65726174696F6E3C
:10066000205B6D6D2F735E325D005A206D617820C6
:100670006C656E677468205B6D6D5D0059206D61FF
:1006800078206C656E677468205B6D6D5D00582026
:100690006D6178206C656E677468205B6D6D5D00C0
:1006A0005A206D696E20706F73205B6D6D5D00590F
:1006B000206D696E20706F73205B6D6D5D0058203A
:1006C0006D696E20706F73205B6D6D5D004D61789C
:1006D0002E205A2D6A65726B205B6D6D2F735D0045
:1006E0004D61782E206A65726B205B6D6D2F735D96
:1006F000005A2D6178697320686F6D696E67206696
:1007000065656472617465205B6D6D2F735D005962
:100710002D6178697320686F6D696E672066656505
:100720006472617465205B6D6D2F735D00582D617F
:1007300078697320686F6D696E672066656564729D
:10074000617465205B6D6D2F735D005A2D61786952
:1007500073206D61782E2066656564726174652012
:100760005B6D6D2F735D00592D61786973206D612C
:10077000782E206665656472617465205B6D6D2FEF
:10078000735D00582D61786973206D61782E206645
:1007900065656472617465205B6D6D2F735D005AD1
:1007A0002D61786973207374657073207065722091
:1007B0006D6D00592D6178697320737465707320B5
:1007C000706572206D6D00582D61786973207374A7
:1007D00065707320706572206D6D0053746F7020AA
:1007E0007374657070657220616674657220696EDD
:1007F0006163746976697479205B6D732C303D6F29
:1008000066665D004D61782E20696E61637469765D
:10081000652074696D65205B6D732C303D6F666675
:100820005D005072696E74657220616374697665EB
:10083000205B735D0046696C616D656E742070723B
:10084000696E746564205B6D5D0042617564726100
:100850007465004C616E6775616765004E6F20635B
:10086000617365206C6967687473004D61784265D7
:100870006454656D703A005072696E746572547993
:1008800070653A43617274657369616E005A54729F
:100890006176656C416363656C3A005954726176A8
:1008A000656C416363656C3A005854726176656C9F
:1008B000416363656C3A005A5072696E74416363B8
:1008C000656C3A00595072696E74416363656C3AA5
:1008D00000585072696E74416363656C3A005A53F4
:1008E000697A653A005953697A653A005853697ACA
:1008F000653A005A4D61783A00594D61783A00588E
:100900004D61783A005A4D696E3A00594D696E3A18
:1009100000584D696E3A0052657472616374696F74
:100920006E556E646F53706565643A0052657472FB
:10093000616374696F6E556E646F45787472614C53
:100940006F6E674C656E6774683A005265747261C9
:100950006374696F6E556E646F45787472614C652F
:100960006E6774683A0052657472616374696F6E81
:100970005A4C6966743A0052657472616374696FA7
:100980006E53706565643A00526574726163746990
:100990006F6E4C6F6E674C656E6774683A00526597
:1009A0007472616374696F6E4C656E6774683A0047
:1009B0004A65726B5A3A004A65726B58593A005050
:1009C00072696E746C696E6543616368653A00456F
:1009D0004550524F4D3A004175746F6C6576656CA9
:1009E0003A005A50726F62653A00436173654C6910
:1009F000676874733A00537570706F72744C6F63EC
:100A0000616C46696C616D656E746368616E676583
:100A10003A00537570706F72744731304731313A14
:100A2000005A486F6D654469723A0059486F6D65A8
:100A30004469723A0058486F6D654469723A0053D0
:100A40006F667477617265506F77657253776974FA
:100A500063683A004C43443A0046616E323A3000D3
:100A600046616E3A005344436172643A00486561DE
:100A70007465644265643A004D6978696E674578CB
:100A80007472756465723A004E756D45787472754E
:100A90006465723A00496E70757442756666657277
:100AA0003A0042617564726174653A007D005D00D0
:100AB0005D2C226D61784665656472617465732290
:100AC0003A5B00222C226D696E4665656472617422
:100AD0006573223A5B302C302C3000302E39322EA8
:100AE0003900222C226669726D776172654E616DE4
:100AF00065223A225265706574696572222C2266FD
:100B000069726D7761726556657273696F6E223AAC
:100B1000220052414D5053005D2C226669726D7760
:100B2000617265456C656374726F6E696373223AB6
:100B300022005D2C22616363656C65726174696F6C
:100B40006E73223A5B005D2C22617869734D617887
:100B50006573223A5B002C22617869734D696E736C
:100B6000223A5B002266697273744C61796572483F
:100B70006569676874223A00226672616374696FFE
:100B80006E5072696E746564223A005D2C002C22EE
:100B900065787472526177223A5B002C2263757219
:100BA00072656E744C61796572223A005D00222C88
:100BB00022746F6F6C73223A5B004D50434E4300BA
:100BC000222C226E616D65223A2200636172746587
:100BD0007369616E002C22636F6C64457874727562
:100BE000646554656D70223A302C22636F6C6452D8
:100BF00065747261637454656D70223A302E302CC6
:100C00002267656F6D65747279223A22005D7D7D81
:100C10002C2274696D65223A005D2C227374617414
:100C200065223A205B005D2C22616374697665223F
:100C30003A205B00226865616473223A207B22635C
:100C4000757272656E74223A205B002274656D7055
:100C500073223A207B005D7D2C002C226578747213
:100C6000466163746F7273223A5B005D2C2273706D
:100C7000656564466163746F72223A002C22666176
:100C80006E50657263656E74223A5B00302C2030C2
:100C90002C203000312C20312C2031002C2270618E
:100CA00072616D73223A207B22617478506F776590
:100CB00072223A005D7D2C2263757272656E7454E7
:100CC0006F6F6C223A005D2C2278797A223A5B00B1
:100CD0005D2C2265787472223A5B0022617865731C
:100CE000486F6D6564223A5B00222C22636F6F723D
:100CF0006473223A207B007B2273746174757322C3
:100D00003A202200436F6E66696775726174696F7D
:100D10006E20726573657420746F206465666175FA
:100D20006C74732E00696E666F3A436F6E74696EF1
:100D300075652066726F6D20666174616C207374D6
:100D4000617465000054657374696E672066617430
:100D5000616C206572726F720029203D20002C00AA
:100D600042656E64696E672061742028004A616D77
:100D700020646562756767696E673A00436F6E66E7
:100D8000696775726174696F6E206C6F6164656408
:100D90002066726F6D20454550524F4D2E00436FB7
:100DA0006E66696775726174696F6E2073746F72B5
:100DB000656420746F20454550524F4D2E00536599
:100DC00074204D6963726F7374657070696E67002B
:100DD000436F6C6420657874727573696F6E2064FC
:100DE0006973616C6C6F77656400436F6C64206538
:100DF0007874727573696F6E20616C6C6F7765645F
:100E0000005761746368646F67206665617475720A
:100E10006520776173206E6F7420636F6D70696CED
:100E2000656420696E746F207468697320766572DA
:100E300073696F6E21004175746F726574726163BE
:100E4000743A00205A4A65726B3A004A65726B3AEE
:100E50000020746F200053657420766F6C756D658B
:100E60007472696320657874727573696F6E206639
:100E70006F722065787472756465722000446973BE
:100E800061626C656420766F6C756D657472696300
:100E900020657874727573696F6E20666F72206555
:100EA0007874727564657220004D313134200046CB
:100EB00049524D574152455F4E414D453A5265703A
:100EC00065746965725F302E39322E392046495279
:100ED0004D574152455F55524C3A68747470733A9D
:100EE0002F2F6769746875622E636F6D2F7265703E
:100EF00065746965722F52657065746965722D46F7
:100F000069726D776172652F2050524F544F434F75
:100F10004C5F56455253494F4E3A312E30204D4189
:100F20004348494E455F545950453A4D656E646596
:100F30006C2045585452554445525F434F554E54CA
:100F40003A302052455045544945525F50524F5413
:100F50004F434F4C3A330050696E2063616E206EF0
:100F60006F7420626520736574206279204D34327D
:100F70002C20697320696E2073656E7369746976BD
:100F8000652070696E732120002069732000496C10
:100F90006C6567616C20532076616C756520666FA7
:100FA00072204D34320020746F2000536574206F1E
:100FB00075747075743A2000000136372603023CC0
:100FC0003D380E0F2E303E04050D0C0A081A1C1871
:100FD00024221E0D0E354C617365724F6E3A004926
:100FE0006E76616C696420617263005A2D70726F55
:100FF0006265206D61783A007A2D6D617820686FA6
:101000006D696E67206661696C65640047333220E4
:10101000005A20616674657220726F746174696F22
:101020006E3A002061745A3A0043757272656E74AC
:101030005A3A0050726F62696E672068616420726C
:10104000657475726E6564206572726F7273202D9F
:10105000206175746F6C6576656C696E672063617D
:101060006E63656C65642E00526573657474696E99
:1010700067205A20636F7272656374696F6E000037
:101080002C2000446973746F7274696F6E20636FF3
:101090007272656374696F6E206D61747269783AFB
:1010A0000053746F7070696E6720646973746F7237
:1010B00074696F6E206D6561737572656D656E74B0
:1010C0002064756520746F206572726F72732E00D4
:1010D00052656C617469766520706F736974696FAD
:1010E0006E696E67004162736F6C75746520706F16
:1010F000736974696F6E696E670047333320666188
:10110000696C65642100596F75206E656564207493
:101110006F20646566696E6520582C205920616EC9
:1011200064205A20746F20736574206120706F6989
:101130006E742100473332206C6576656C696E678A
:10114000206661696C65642100473239206C6576E0
:10115000656C696E67206661696C65642100473261
:1011600039206C6576656C696E67206661696C65AF
:1011700064210047323920005265736574205A207B
:10118000686569676874005A2D70726F62652061C6
:10119000766572616765206865696768743A0055AD
:1011A0006E6B6E6F776E20636F6D6D616E643A006B
:1011B00000000000000000890000000000000000A6
:1011C0008800000000000000008600000000000011
:1011D00000008500B911B011CB11C211456E676CCA
:1011E000697368000358040200D41103200402004C
:1011F000D8110000042F0400009B00000004260406
:101200004000960000000422044000950000000405
:10121000260420009A000000042504200099000004
:1012200000042404200098000000042304200097F8
:10123000000000042204200094000000042D04009B
:101240000093000000044C040000BB000000044DAB
:10125000040000BC000000042E0400009000000008
:10126000042A0400008F000000042B0400008E00FC
:101270000000042C0400008D00000004290400007C
:101280008C00000004130400005500000004120448
:10129000000054000000041104000053000000048A
:1012A0001604000051000000041504000050000066
:1012B0000004140400004F000000040F0400003874
:1012C000000000040E04000037000000040D0400BC
:1012D0000035000000040C04000034000000040B82
:1012E00004000033000000040A0400003100000084
:1012F00004090400003000000004080400002F006E
:10130000DC1103A42600000000000003B20400006A
:10131000D000000002E41100008700000002EB1181
:1013200000008400000004100400008B002E1879D7
:1013300012701267125E1255124C1243123A123199
:101340001228121F1216120D120412FB11F2112E86
:1013500018AF12A6129D1294128B1282122E18F739
:1013600012EE12E512DC12D312CA12C112B8122EFA
:101370001800132E1824131B131213091302000054
:1013800011002D1302000007004F13020000090096
:101390005D1302000002006F1302000005007313CA
:1013A000000003070400003B0000000306040000E7
:1013B0003A000000027D1300000F000000028413B9
:1013C00000004E000000028B1300003900000002F4
:1013D00092130000E400000002991300008A00004C
:1013E0000003820400000A01000003810400003FA2
:1013F00000000003800400003E000000037F0400A2
:10140000003D000000037E0400003C00000004BD1D
:10141000040010E300000003B9040010E100000024
:1014200003B8040010E000000003B6040010DF0061
:10143000000003B5040010DE00000003BE0400102D
:10144000DD00000003B7040010DC00000003B4045A
:101450000000D2000000031E04000083000000030F
:101460001D04000082000000031C04000081000035
:1014700000031B04000080000000031A0408007F22
:1014800000000004520400007E00000004B60F00BB
:10149000000901000004B50F00000801000004B4B9
:1014A0000F0000070100000000000000F200000033
:1014B0000000000000AB0000000000000000700011
:1014C000000000000000006F000000035424020030
:1014D0000300000003E80300000400000001000016
:1014E0000000C9002E18D613CD13C413BB13B213BA
:1014F000A913A0132E180314FA13F113E813DF1322
:101500002E1842143914301427141E1415140C14F8
:101510002E18811478146F1466145D1454144B142F
:101520002E189C1493148A14C014B714AE14A51466
:10153000DB14D214C9140200000800E414020000F5
:101540000600F41402000008000015020000080064
:1015500010150200000400201503F00304002815F4
:101560000200000300301500000000000000F7003A
:1015700000000000000000DA000000023615000044
:101580000D000000023D1500001100000002571A76
:101590000000100000000244150010D900000002F5
:1015A0004B1500007D000000021F1A00000F000014
:1015B0000002181A00000E00000002261A00000B9C
:1015C0000000000000000000E0000000000000003B
:1015D00000DA0000000000000000DF000000000052
:1015E000000000DA0000000000000000E100000040
:1015F0000000000000DA0000000000000000DE0033
:1016000000000000000000DA000000000000000000
:10161000DD0000000000000000DA00000000000013
:101620000000DC0000000000000000DA0000000004
:1016300000000000CF0000000000000000CE00000D
:10164000000000000000CD0000000000000000CC01
:1016500000000002521500000601000004B304005F
:1016600000D100000002421A000021000000022DFB
:101670001A00002200000002491A00001F000000AA
:1016800002341A00002000000002501A00001D0061
:101690000000023B1A00001E0000000300040010BE
:1016A0001600000003FF0300101500000003FE03F6
:1016B00000101400000003440400002E000000028B
:1016C00059150000230000000336040000C6000086
:1016D0000003430400101C00000003310400101B31
:1016E00000000003380400001A0000000347040053
:1016F00000180000000337040000170000000388F2
:10170000130000CB0000000448040000B1000000FA
:10171000041F040000B00000000457040000CA00C9
:10172000000003FD03001013000000000000000093
:101730006E00000000000000006D000000000000CE
:1017400000006C00000000000000006B00000000C2
:10175000000000006A0000000000000000690000B6
:1017600000000000000068000000000000000067AA
:101770000000000000000000660000000000000003
:101780000065000000000000000064000000000090
:101790000000006300000000000000006200000084
:1017A0000000000000610000000000000000600078
:1017B000000000000000005F0000000000000000CA
:1017C0005E00000000000000005D0000000000005E
:1017D00000005C00000000000000005B0000000052
:1017E000000000005A000000000000000059000046
:1017F000000000000000580000000000000000573A
:1018000000000003F40301024D0000000260150215
:1018100000C900000003F70304004A00000003F6BB
:101820000302044900000003F50301024800000020
:1018300003E80300000A0000000000000000A80008
:1018400000000000000000A70000000000000000F1
:10185000A60000000000000000A500701567152E0E
:1018600018B8152518AF15A6159D1594158B15825A
:10187000157915CA15C115DC15D315EE15E515003A
:1018800016F7151216091624161B1648163F16369B
:10189000162D162E182017AB16A21699169016871D
:1018A000167E1675166C166316BD165A1651162E30
:1018B00018BD16B4162E18201717170E170517FC8B
:1018C00016F316EA16E116D816CF16C61644173BBD
:1018D000173217291768175F1756174D178C17837C
:1018E000177A177117B017A7179E179517D417CB2C
:1018F00017C217B917F817EF17E617DD172E1825B7
:10190000181C1813180A1801182E184018371852E6
:101910001849180003102702005B182F2F2061635D
:1019200074696F6E3A726573756D650044656C65B8
:1019300074696F6E206661696C65640046696C65E8
:101940002064656C65746564000200000A005F181D
:1019500003102702007318031027020077180310E2
:101960002702007B1803102702007F1803102702AC
:10197000008318031027020087185265717565737C
:101980007450617573653A0055495F414354494F3E
:101990004E5F5345545F4D454153555245445F4F4B
:1019A000524947494E2000454550524F4D207570D1
:1019B0006461746564005072696E74657220686554
:1019C000696768743A0005881304008B182F2F206C
:1019D000616374696F6E3A706175736500696D70EB
:1019E0006F7274616E743A2046696C616D656E74D5
:1019F000206368616E6765207265717569726564E0
:101A000021004A616D20636F6E74726F6C2064698F
:101A10007361626C65643A000200000E0093180264
:101A200000000300AF180200000C00B51803FC030F
:101A30000400CD1803FB030400D51803FA030400C7
:101A4000DD1803EF030400E51803EE030400ED18AE
:101A500003ED030400F5180200000600FD18010064
:101A6000000100091903102702000B1903102702B7
:101A7000000F1955495F414354494F4E5F484F4D40
:101A8000455F5A200055495F414354494F4E5F48D6
:101A90004F4D455F59200055495F414354494F4ED2
:101AA0005F484F4D455F58200055495F41435449B9
:101AB0004F4E5F484F4D45414C4C2000456E64539E
:101AC000746F703A25647000536574205A206F66F5
:101AD000667365743A2554326D6D005365742059F0
:101AE000206F66667365743A2554316D6D005365D9
:101AF000742058206F66667365743A2554306D6D96
:101B000000536574207072696E74206F6666736529
:101B10007473005A2D70726F62652068656967681A
:101B2000743A257A6800254433203320636F706946
:101B3000657300254432203220636F70696573003D
:101B4000254431203120636F707900254430204EC8
:101B50006F20636F70696573002558352053656C7D
:101B600065637420657874722E2036002558342001
:101B700053656C65637420657874722E203500257A
:101B800058332053656C65637420657874722E2019
:101B900034005475726E20657874722E2036206F72
:101BA0006666005475726E20657874722E2035203A
:101BB0006F6666005475726E20657874722E2034DC
:101BC000206F66660054656D702E2036203A2565BC
:101BD000352F25453502430054656D702E20352084
:101BE0003A2565342F25453402430054656D702E27
:101BF0002034203A2565332F254533024300202524
:101C000042436D6D00052565630200052565632F60
:101C1000254563020000256F7300255566206D2061
:101C20007072696E74656400255566206D002555D7
:101C30007400583A25783020593A257831004D758E
:101C40006C3A20256F6D202020453A257834005AC3
:101C50003A2578322020427566203A20256F4200CE
:101C6000422565422F2545620200052565632F2523
:101C7000456302422565422F2545620200256F73A8
:101C8000004275663A20256F42004D756C3A20255A
:101C90006F6D25252520FD202020453A202578340C
:101CA0006D00466C6F773AFD20256F66252525204F
:101CB00020205A3A25783200202020202020202081
:101CC0002020202020593A257831000A202565302F
:101CD0002F254530B020583A257830004C616E678A
:101CE0007561676500437573746F6D3A2542436D86
:101CF0006D00437573746F6D00476C756520737468
:101D000069636B00477265656E20504554207461AD
:101D1000706500426C756520706170657220746139
:101D20007065004B6170746F6E004275696C64542D
:101D3000616B004E6F20636F6174696E67000042D3
:101D4000656420636F6174696E67207365742074C5
:101D50006F0042656420636F6174696E670053743D
:101D6000616E646279004578747275646572206A88
:101D7000616D0074656D7065726174757265732054
:101D80002E2E2E005761697420666F722074617266
:101D9000676574006578747275646572732E0043AC
:101DA0006C69636B20746F207265686561740049AB
:101DB000676E6F7265204D31303620636D6420256B
:101DC000466900536572766F20706F732E3A202536
:101DD0006F53004175746F6C6576656C3A20256CA5
:101DE0006C00436C69636B207768656E20646F6E6E
:101DF000650066696C616D656E742075702F646F27
:101E0000776E00526F7461746520746F206D6F7609
:101E100065004368616E67652066696C616D656E1B
:101E200074004368616E67652066696C616D656EFC
:101E300074005A2062616279737465702E3A256F5E
:101E4000596D6D0053746F70205072696E74005339
:101E50006C6F7742616E6700446561642074696DE0
:101E6000650041545820706F776572206F6E2F6F38
:101E70006666007072696E7465640046696C616DB7
:101E8000656E74207072696E746564005072696E5C
:101E900074696E672074696D6500003A00206461A2
:101EA000797320005072696E746572207265616486
:101EB000792E005344206361726420696E736572E9
:101EC00074656400534420636172642072656D6FB1
:101ED000766564005761697420726574722E3A25C4
:101EE0005855206D6D00576169742074656D702EB2
:101EF000202558540243004C6576656C2064656C5F
:101F000074610043616C63756C617465206C657607
:101F1000656C696E670053657420503300536574B7
:101F200020503200536574205031005A2063616C98
:101F300069622E00536574205A3D30005265736506
:101F400074206D6561732E0053686F77206D656135
:101F5000732E00466C6F77206D756C2E203A256FBE
:101F600066252525005370656564206D756C2E3AD5
:101F7000256F6D2525250020423A2565622F2545D0
:101F80006202437E256F620045333A2565322F2574
:101F9000453202437E256F320045323A2565312FA6
:101FA00025453102437E256F310045313A256530A4
:101FB0002F25453002437E256F300020453A2565A8
:101FC000632F25456302437E256F43004275666695
:101FD00065723A256F420055706C6F6164696E6777
:101FE0002E2E2E006C6F6164656420662E204545A0
:101FF00050524F4D00436F6E666967757261746928
:102000006F6E0073746F72656420696E2045455071
:10201000524F4D00436F6E66696775726174696FE8
:102020006E00537465707065722064697361626CD0
:102030006564004B696C6C65640048656174696E29
:1020400067206265640048656174696E6720657821
:1020500074727564657200416374696F6E3A256CC1
:1020600061005049440042616E6742616E670059E9
:102070002D4F66667365743A25587900582D4F6662
:10208000667365743A25587800504944204D61784C
:102090003A255844004472697665204D61783A25A6
:1020A000584D004472697665204D696E3A25586D29
:1020B0000050494420443A2558640050494420497E
:1020C0003A25586900436F6E74726F6C2050574DFB
:1020D0003A25584D004465616474696D653A255828
:1020E000700050494420503A25587000436F6E7478
:1020F000726F6C3A25586800416476616E636520A2
:10210000717561643A25586100416476616E63655A
:10211000206C696E3A25586C00537461622E5469C4
:102120006D653A25587700416363656C3A255841DF
:10213000004D61782046523A25584600537461722A
:10214000742046523A2558660053746570732F4DBB
:102150004D3A2553650042617564726174653A2594
:102160006F630047656E6572616C005B6D696E5DE3
:1021700020303D4F6666004469732E2061667465A9
:10218000723A20256970004D61782E20696E616376
:1021900074697665005B6D696E5D20303D4F6666E3
:1021A000004469732E2061667465723A2025697354
:1021B000005374657070657220696E61637469762E
:1021C00065005365742066616E2066756C6C005303
:1021D00065742066616E20373525252500536574AA
:1021E0002066616E203530252525005365742066F4
:1021F000616E203235252525005475726E2066618A
:102200006E204F66660046616E2073706565643AA5
:102210002546732525250046616E2073706565642B
:10222000004D696E3A25737A204D61783A25735ACC
:10223000005A3A257832206D6D004D696E3A25734B
:1022400079204D61783A25735900593A2578312023
:102250006D6D004D696E3A257378204D61783A2591
:10226000735800583A257830206D6D004D696E3AEC
:1022700025737A204D61783A25735A005A3A2578A9
:1022800032206D6D004D696E3A257379204D61786D
:102290003A25735900593A257831206D6D004D6902
:1022A0006E3A257378204D61783A25735800583A74
:1022B000257830206D6D003120636C69636B203DA3
:1022C0002031206D6D00453A257833206D6D00007A
:1022D0004D617820656E6473746F703A25735A008F
:1022E0004D696E20656E6473746F703A25737A0061
:1022F0005A3A257832206D6D00004D617820656E68
:102300006473746F703A257359004D696E20656E61
:102310006473746F703A25737900593A25783120C7
:102320006D6D00004D617820656E6473746F703A56
:10233000257358004D696E20656E6473746F703A32
:1023400025737800583A257830206D6D00004D6176
:102350007820656E6473746F703A25735A004D6906
:102360006E20656E6473746F703A25737A005A3A02
:10237000257832206D6D2025647A25645A00004D41
:10238000617820656E6473746F703A257359004DDF
:10239000696E20656E6473746F703A2573790059A5
:1023A0003A257831206D6D20256479256459000027
:1023B0004D617820656E6473746F703A25735800B0
:1023C0004D696E20656E6473746F703A2573780082
:1023D000583A257830206D6D2025647825645800A2
:1023E000486F6D653A25665A00486F6D65205A3A08
:1023F00025665A00486F6D6520593A256659004890
:102400006F6D6520583A256658004D61783A25660B
:102410007A004D6178205A3A25667A004D6178201D
:10242000593A256679004D617820583A256678003A
:1024300046656564726174650044656C6574652009
:1024400066696C65004D6F756E742063617264001F
:10245000556E6D6F756E74206361726400436F6EAC
:1024600074696E7565207072696E74005061757361
:1024700065207072696E74005072696E74206669AE
:102480006C6500416E7469206F6F7A65004D6F76E0
:10249000652061667465723A254F61004D696E2E44
:1024A0006469737420203A254F64004261636B7342
:1024B0006C2E2020203A254F6200526574726163B1
:1024C000742020203A254F7200254F32204F505360
:1024D000206661737400254F31204F505320636C88
:1024E000617373696300254F30204F5053206F662E
:1024F00066004472792072756E3A256464004572F4
:10250000726F7273203A25646500496E666F2020F1
:10251000203A256469004563686F2020203A2564CD
:102520006F004C6F616420662E20454550524F4D20
:102530000053746F726520746F20454550524F4DA3
:1025400000416363656C65726174696F6E005A2D3A
:102550004A65726B203A25614A004A65726B2020F9
:10256000203A25616A004D6F76653A25615A004D23
:102570006F7665205A203A25615A004D6F766520A6
:1025800059203A256159004D6F76652058203A252B
:102590006158005072696E743A25617A0050726910
:1025A0006E74205A3A25617A005072696E7420590F
:1025B0003A256179005072696E7420583A25617825
:1025C00000536574204F726967696E002558322088
:1025D00053656C65637420657874722E2033002512
:1025E00058312053656C65637420657874722E20B1
:1025F00032002558302053656C656374206578740B
:10260000722E2031005475726E20657874722E20FF
:1026100033206F6666005475726E20657874722E72
:102620002032206F6666005475726E206578747271
:102630002E2031206F66660054656D702E20332089
:102640003A2565322F25453202430054656D702EC0
:102650002032203A2565312F25453102430054654B
:102660006D702E2031203A2565302F2545300243EC
:10267000004265642074656D703A2565622F2545BA
:1026800062024300457874722E20706F736974691A
:102690006F6E005A20706F732E2066617374005A3B
:1026A00020706F736974696F6E005920706F732E9C
:1026B0002066617374005920706F736974696F6E5E
:1026C000005820706F732E2066617374005820705C
:1026D0006F736974696F6E0044697361626C652021
:1026E000737465707065720053657420746F206F29
:1026F000726967696E00436F6F6C646F776E004C30
:1027000069676874733A256C6F005072656865611B
:102710007420414253005072656865617420504CCA
:102720004100486F6D65205A00486F6D6520590063
:10273000486F6D65205800486F6D6520616C6C00B6
:10274000486F6D652064656C7461004465627567EF
:1027500067696E6700534420636172640045787452
:10276000727564657200506F736974696F6E0043AF
:102770006F6E66696775726174696F6E00256F654B
:1027800000517569636B2073657474696E677300BB
:102790004261636B2001002A2A2A2A204552524FA7
:1027A00052202A2A2A2A004E6F2053442063617245
:1027B000640049646C65005072696E74696E6700EC
:1027C0005072696E74696E672E2E2E004E6F00591E
:1027D0006573004E2F41004F6666004F6E00DB2789
:1027E000D727D327CF27CC27C027B727B227A7279C
:1027F0009727902781277D276F2766275D275527F5
:102800004B274027372730272927222716270A2733
:10281000FF26F626E826D826CD26C126B626AA26E5
:102820009F269326842671265E264B263826272649
:1028300016260526F225DF25CC25C125B525A92597
:102840009D25932587257B256F2566255A254E25B1
:1028500041253125222516250A25FE24F224E624C9
:10286000D624C924BA24AB249C248D248324782420
:102870006C245D24502445243924302426241C242F
:1028800012240A24FF23F423E923E023D023C023C6
:10289000B023AF239F238F237F237E236E235E23CA
:1028A0004E234D2344233423242323231A230A2392
:1028B000FA22F922F022E022D022CF22C622B72229
:1028C000AE229E22952285227C226C2263225322F4
:1028D0004A223A223122212217220622F921EB2113
:1028E000DD21CF21C221B121A1219521872177218D
:1028F0006B216321562149213C21312127211921B6
:102900000921F820EC20E220D520C520BB20B120F1
:10291000A320952089207C206F20662062205720EC
:1029200046203A203320222014200320F51FE41FE4
:10293000D71FCC1FBB1FAA1F991F881F771F651F9A
:10294000531F481F3C1F341F2B1F241F1D1F161F02
:10295000031FF71EE61ED41EC41EB31EA41E9D1E1A
:102960009B1E9A1E8C1E7B1E731E621E581E4F1EBF
:10297000441E321E221E121E031EF21DE21DD31D16
:10298000C31DAF1D9F1D941D841D731D661D5E1DFF
:10299000521D3F1D3E1D331D2A1D231D131D041DE9
:1029A000F91CF21CE51CDC1CCB1CB81CA21C8A1CEC
:1029B000811C7D1C6A1C601C4F1C3E1C321C2E1C82
:1029C000281C1A1C161C151C0B1C051CFE1BEB1BC3
:1029D000D81BC51BB41BA31B921B7F1B6C1B591B55
:1029E0004B1B401B331B261B131B011BEE1ADB1A50
:1029F000C81ABC1A001300FFDE2700000000000008
:102A000000000000000000000000000000000000C6
:102A100002536F6674776172652052657365740046
:102A20005761746368646F67205265736574004210
:102A3000726F776E206F75742052657365740045F0
:102A4000787465726E616C20526573657400506FA6
:102A5000776572557000486F6D65206D6164650023
:102A60004D50434E43004D616368696E653A0056B0
:102A7000657220302E39322E3900526570657469C6
:102A8000657200000000000000000000000000006F
:102A9000000000000001FFFF0000000000078000B0
:102AA000FFFE0000003800000007800000C3E1F0D6
:102AB0007F0FC000071F87C1FC3FC00038FFFFFF2A
:102AC000F0FE4001C3FFFFFFC1FC400F000000000B
:102AD00007F0403FFFFF80001FE0403FFFFFFFFF88
:102AE000FF80403FFFFFFFFFFF00403FFFFFFFFF72
:102AF000FE004030000001FFFC04403000000000F8
:102B0000FC0C403000000000381C40300000000089
:102B1000383E403000000000387E4030FFFF80002B
:102B200038FE4030FFFFF80038FE4030FFFFFE0067
:102B300038E64030FFFFFF0038E64030FFFFFF80FF
:102B400038C64030FFFFFF8038C64030FFBFFF80EF
:102B500038C44030FF80FFC038C44030FF80FFC021
:102B600038C44030FF807FC038CC4030FF807FC009
:102B700038FC4030FF807FC038F84030FF80FFC015
:102B800038F84030FFFFFFC038F04030FFFFFF80D3
:102B900038E04030FFFFFF8038E04030FFFFFF00AB
:102BA00038C04030FFFFFE0038C04030FFFFF0006B
:102BB00038C04030FF9FF00038C04030FF8FFC002D
:102BC00038C04030FF87FC0038C04030FF87FE002F
:102BD00038C04030FF83FF0038C08030FF83FF00E3
:102BE00038C08030FF81FF8038C10030FF81FF8016
:102BF00038C20030FF80FFC038820030FF80FFC045
:102C000038840030FF807FE0380800307F807FE02C
:102C1000380800300F803FE03810003000003FF0EF
:102C200038100038000003F03820003800000000A1
:102C30003840003C000000003840003FF800000031
:102C40003980003FFFF800003D000000FFFFF80062
:102C50007F00000007FFFFF87E0000000007FFFF75
:102C6000FC000000000003FFF80000000000000D61
:102C7000F80000000000000000000000000000005C
:102C80000000007A446973746F7274696F6E436FE9
:102C90007272656374696F6E3A00467265652052A0
:102CA000414D3A008200000100F4294E65656473CD
:102CB000206C616E67756167652073656C65637410
:102CC000696F6E0073746172740001060C00FE037C
:102CD0000229036300FF000AFE0800025767A800EC
:102CE00088008800A8025767F088E8A8E888F00202
:102CF000576770A8F8A8F8A8700257677088080886
:102D0000088870124565609010906001586870885E
:102D100080808878080802576720202020A870202B
:102D2000026767F8FCFC9CFCFCF802576770F8F837
:102D3000A8F8F870FFFFFFFFFFFFFF035565204075
:102D4000F840200257672070A820202020035565F6
:102D50002010F8102002576720202020A87020049F
:102D6000536350F8500257672070A820A8702002C3
:102D70005969C0F0E0A020101008080259691878BD
:102D800038282040408080025969808040402028B7
:102D90003878180259690808101020A0E0F0C00324
:102DA00065652848FC50300365653028FC485004B0
:102DB0006363C0D8640463630C6C98036565285032
:102DC000FC50280258682070A870A82020200365B5
:102DD000655028FC2850025868202020A870A87050
:102DE000200365652448F0482403656590483C4805
:102DF000900355652848F848280257672070A82096
:102E00002020F8035565A090F890A0025767F8209D
:102E10002020A870200257672070A820A870F8030F
:102E200065652844F8402003656550887C081003D8
:102E30006565204CFC482803656510C8FC485003B4
:102E4000646448DCEC480365650858FC6840025738
:102E5000678090B0D09038100258682040F8482819
:102E60000808080258682010F890A0808080025856
:102E7000680808082848F840200257678080A0901A
:102E8000F81020035464F010381003556508084802
:102E9000F840035565304848E84803556560909010
:102EA000B810025868F880E0C0A0201010025969DC
:102EB000A0C0F8C0A818F818280256663830A888AC
:102EC0008870025666E060A88888700553632040C9
:102ED000F8035363F8402022386880C0A0808080C7
:102EE00080800238682060A02020202020055363C5
:102EF0002010F8035363F810202238688080808007
:102F000080A0C0800238682020202020A0602002FD
:102F100059692010F8102040F8402002586850F0FD
:102F20005050505078500259692040F8402010F815
:102F300010200259692040F8402040F840200258F3
:102F40006850F85050505050500259692010F810F5
:102F50002010F81020025868505050505050F8502F
:102F60000257672040F800F810200257672010F839
:102F700000F8402002676714287C907C205002678C
:102F8000670858FCA4FC6840026767A050F824F862
:102F9000102803556520788078200257672050D884
:102FA0005050505003556520F008F02002576750EC
:102FB000505050D8502003656548FC84FC480258A6
:102FC000682050D85050D85020026666F8A0D0A88B
:102FD00094080266667C142C54A44002666640A4E1
:102FE000542C147C0266660894A8D0A0F802676787
:102FF000103C40FC403C1002676720F008FC08F0E1
:103000002003646440E8D440036464085CAC0802B4
:1030100058682070A8207020702002586820702006
:103020007020A870200365652040D44020025868B5
:1030300020708820002000200365651008AC08106F
:103040000258682000200020887020035565A0C029
:10305000F8C0A00355652818F8182803556520788E
:103060008878200258682050D8505050507003552E
:103070006520F088F0200258687050505050D850A9
:10308000200259692050D850700070507002596960
:103090002050D8505050D888F80259692050F888EC
:1030A0005050D888F80259692070F8707070F8A8EC
:1030B000F80259692050D850D850505070025969C0
:1030C0002050D850D850D888F8035565A0F088F023
:1030D000A0025868F880B0A09010080802586880D4
:1030E000804048286808F80258682050D85050D8C6
:1030F00050200365651068FC6810025868507850CD
:10310000505050F05002596910F81010F81010F893
:10311000100365652848FC48280365655048FC484D
:10312000500365653078FC78300365653858FC5885
:10313000380365657068FC68700365653078FC78F5
:10314000300355652060B860200355652030E830B5
:10315000200365653078B47830066666FCFCFCFCBC
:10316000FCFC006262FCFC006363FCFCFC00656527
:10317000FCFCFCFCFC006666FCFCFCFCFCFC006847
:1031800068FCFCFCFCFCFCFCFC006969FCFCFCFC35
:10319000FCFCFCFCFC006B6BFCFCFCFCFCFCFCFC8D
:1031A000FCFCFC006C6CFCFCFCFCFCFCFCFCFCFC7B
:1031B000FCFC005C6CF8F8F8F8F8F8F8F8F8F8F8A7
:1031C000F8004C6CF0F0F0F0F0F0F0F0F0F0F0F00F
:1031D000004C6CF0F0F0F0F0F0F0F0F0F0F0F000F7
:1031E0003C6CE0E0E0E0E0E0E0E0E0E0E0E0002C8B
:1031F0006CC0C0C0C0C0C0C0C0C0C0C0C0002C6CCB
:10320000C0C0C0C0C0C0C0C0C0C0C0C0001C6C80B6
:103210008080808080808080808080303C6CE0E096
:10322000E0E0E0E0E0E0E0E0E0E0016B6BA800540B
:1032300000A8005400A80054006C6CA854A854A81E
:1032400054A854A854A854006C6C54FCA8FC54FC1A
:10325000A8FC54FCA8FC0A6262FCFC501C6C808038
:1032600080808080808080808080003666E0E0E022
:10327000E0E0E0303666E0E0E0E0E0E0063666E020
:10328000E0E0E0E0E0006C6CE0E0E0E0E0E0FCFCCE
:10329000FCFCFCFC006C6CE0E0E0E0E0E01C1C1CD2
:1032A0001C1C1C006C6CFCFCFCFCFCFCE0E0E0E08A
:1032B000E0E0006C6CFCFCFCFCFCFC1C1C1C1C1C02
:1032C0001C363666E0E0E0E0E0E0006C6C1C1C1CA4
:1032D0001C1C1CE0E0E0E0E0E0006C6C1C1C1C1C12
:1032E0001C1CFCFCFCFCFCFC025565F8F8F8F8F82A
:1032F000025565F8888888F8025565708888887056
:10330000025565F888A888F8025565F888F888F8A5
:10331000025565F8A8A8A8F8025565F8A8F8A8F815
:10332000025565F8C8A898F8025565F898A8C8F835
:10333000025565F8D8A8D8F8143363E0E0E01433F8
:1033400063E0A0E0036565FCFCFCFCFC036565FC38
:10335000848484FC114A6AF0F0F0F0F0F0F0F0F0B0
:10336000F0114A6AF09090909090909090F00463E1
:10337000633C78F00463633C48F002576720207098
:1033800070F8F8F8025767202050508888F80355E5
:103390006520207070F803556520205050F81247C2
:1033A0006780C0E0F0E0C08012476780C0A090A0B6
:1033B000C08013356580C0E0C08013356580C0A033
:1033C000C080036565C0F0FCF0C0036565C0B08CCB
:1033D000B0C0025767F8F8F870702020025767F8FD
:1033E000888850502020025565F8707020200255C2
:1033F00065F850502020124767103070F070301080
:10340000124767103050905030101335652060E03F
:1034100060201335652060A060200365650C3CFCCE
:103420003C0C0365650C34C4340C0355652070F8FE
:10343000702003556520508850200355652050A802
:1034400050200266663048B4B448300257672050B6
:1034500050885050200266663048848448300266A6
:103460006620088004401002556570A8A8A8700264
:1034700057677088A8D8A888700266663078FCFC08
:1034800078300266663068E4E46830026666305878
:103490009C9C5830026666304884FC783002666630
:1034A0003078FC84483002666630589C844830028C
:1034B00066663068E484483012596908387878F8CC
:1034C0007878380802596980E0F0F0F8F0F0E08090
:1034D000006C6CFCFCFCFCCC8484CCFCFCFCFC0094
:1034E0006C6CFCFCFCCCB47878B4CCFCFCFC0666C0
:1034F00066FCFCFCCCB47800666678B4CCFCFCFCC2
:1035000005336320408035336380402032336320AD
:103510004080023363804020056363304884026347
:103520006384483002556508183878F8025565807C
:10353000C0E0F0F8025565F8F0E0C080025565F88B
:10354000783818080255657088888870025565F8C3
:10355000E8E8E8F8025565F8B8B8B8F8025565F833
:10356000F8E8C8F8025565F898B8F8F8025565F813
:10357000A8A8A8F802576720205070A888F802571A
:103580006720207070E8E8F802576720207070B854
:10359000B8F802676730488484844830025565F87B
:1035A000A8E888F8025565F888E8A8F8025565F893
:1035B00088B8A8F8025565F8A8B888F8025565706B
:1035C000A8E888700255657088E8A8700255657093
:1035D00088B8A87002556570A8B88870035565F85A
:1035E00090A0C080035565F84828180803556580E9
:1035F000C0A090F8144464F09090F0134464F0F08C
:10360000F0F0144464F09090F0144464F0F0F0F0A2
:1036100003556508182848F85344206361726420F4
:10362000696E7365727465640053442063617264EB
:103630002072656D6F76656400686F6D65417869AD
:1036400073200000000000000000F10000000000F6
:10365000000000C40000000000000000F0000000B6
:103660000000000000C30000000000000000EA00AD
:1036700000000000000000E9000000000000000061
:10368000E80000000000000000E70000000000006B
:103690000000E60000000000000000E5005E365576
:1036A000364C36433694368B3682367936703667EA
:1036B0003600000004009D360000000600A53657C5
:1036C000726F6E6720636865636B73756D00B836E3
:1036D000B13600070A00FE07026903FB00FFFE087F
:1036E000FE07FE050707060000A80088008800A85E
:1036F0000508080600000808082848F840200303C9
:103700000306010440A040050505060000F8F8F88E
:10371000F8F8050505060000F8888888F805080807
:103720000600002050505070F8F870070505090099
:10373000001CFE8282FE05080806000088502088D2
:1037400020508888060808060000489048FCFC784D
:103750003030060808060000244824FCFC7830308D
:10376000060505060000FCFC783030060202060063
:1037700000FCFC06060606000048904890FCFC068B
:10378000060606000024482448FCFC07070707003B
:1037900000824438283844820707070700001010C9
:1037A00038EE381010FFFFFFFFFFFFFFFFFFFFFFA6
:1037B000FFFFFFFFFF0000000605FF0107070602ED
:1037C0000080808080800080030303060104A0A0A5
:1037D000A00507070600005050F850F850500507A4
:1037E000070600002070A070287020060808060058
:1037F0000044A448102048948805070706000040AC
:10380000A0A040A890680103030602048080800302
:10381000070706010020408080804020030707063C
:103820000100804020202040800505050600018819
:1038300050F850880505050600012020F8202003D7
:1038400003030601FF604080040101060103F0024A
:1038500002020601FFC0C0050707060000080810A5
:103860002040808005070706000020508888885087
:10387000200507070600002060A0202020F805078B
:1038800007060000708808304080F805070706002A
:1038900000F808103008887005070706000010308F
:1038A0005090F81010050707060000F880B0C8080F
:1038B0008870050707060000304080B0C888700592
:1038C0000707060000F8081010204040050707060B
:1038D00000007088887088887005070706000070EF
:1038E000889868081060020505060201C0C000C083
:1038F000C00307070601FF40E04000604080040766
:103900000706010010204080402010050303060038
:1039100002F800F80407070601008040201020404C
:10392000800507070600007088102020002005078A
:1039300007060000708898A8B08070050707060089
:103940000020508888F88888050707060000F0489E
:1039500048704848F005070706000070888080809E
:103960008870050707060000F04848484848F005F9
:103970000707060000F88080F08080F8050707063A
:103980000000F88080F08080800507070600007046
:10399000888080988870050707060000888888F866
:1039A000888888030707060100E04040404040E067
:1039B0000507070600003810101010906005070773
:1039C0000600008890A0C0A09088050707060000A8
:1039D000808080808080F80507070600008888D8EE
:1039E000A88888880507070600008888C8A89888DE
:1039F0008805070706000070888888888870050792
:103A000007060000F08888F080808005080806001E
:103A1000FF7088888888A87008050707060000F0EE
:103A20008888F0A0908805070706000070888070DD
:103A3000088870050707060000F8202020202020B5
:103A400005070706000088888888888870050707AA
:103A5000060000888888505050200507070600009F
:103A6000888888A8A8D88805070706000088885095
:103A700020508888050707060000888850202020ED
:103A800020050707060000F80810204080F803070B
:103A900007060100E08080808080E00507070600BF
:103AA0000080804020100808030707060100E0207E
:103AB00020202020E0050303060004205088050193
:103AC000010600FFF8020202060206804005050515
:103AD00006000070087888780507070600008080D7
:103AE000B0C888C8B00505050600007088808870D9
:103AF0000507070600000808689888986805050506
:103B00000600007088F8807005070706000030483E
:103B100040F04040400507070600FE788888780896
:103B200088700507070600008080B0C88888880371
:103B300007070601004000C0404040E004090906B4
:103B400001FE10003010101090906005070706006D
:103B50000080808890E09088030707060100C0403D
:103B600040404040E0050505060000D0A8A8A88810
:103B7000050505060000B0C888888805050506000B
:103B80000070888888700507070600FEB0C888C8DE
:103B9000B080800507070600FE68988898680808C6
:103BA000050505060000B0C88080800505050600F3
:103BB0000070807008F00507070600004040F040E4
:103BC0004048300505050600008888889868050586
:103BD000050600008888505020050505060000886D
:103BE00088A8A850050505060000885020508805C3
:103BF00007070600FE88889868088870050505068E
:103C00000000F8102040F8040707060100304020AB
:103C1000C02040300107070602008080808080803D
:103C200080040707060100C02040304020C0050383
:103C30000306000448A890FFFFFFFFFFFFFFFFFF00
:103C4000FFFFFFFFFFFFFFFFFFFFFFFFFFFFFFFF84
:103C5000FFFFFFFFFFFFFFFFFF01070706020080D6
:103C60000080808080800507070600FF2078A0A0E4
:103C7000A07820050707060000304840E04048B023
:103C800005050506000088705070880508080600C4
:103C9000FF88885020F820202001070706020080B6
:103CA0008080008080800508080600FF7080E0901A
:103CB00048380870030101060107A0050707060040
:103CC000007088A8C8A888700406060601017090D4
:103CD000B05000F006050506000024489048240472
:103CE0000202060102F010FF0507070600007088B7
:103CF000E8C8C88870050101060007F80303030639
:103D0000010440A0400506060600002020F82020FF
:103D1000F804050506010360902040F0040505063F
:103D20000103E0106010E00202020602064080FF7C
:103D300005070706000078E8E8682828280101013F
:103D4000060203800202020602FE40800305050609
:103D5000010340C04040E004060606010160909067
:103D60006000F0060505060000904824489006090A
:103D7000090600FF40C04040E40C143C0406090959
:103D80000600FF40C04040E81404081C050909066D
:103D900000FFC0204020C818287808050707060043
:103DA0000020002020408870050808060000402000
:103DB000708888F888880508080600001020708838
:103DC00088F888880508080600002050708888F860
:103DD000888805080806000048B0708888F8888838
:103DE0000508080600005000708888F888880508D3
:103DF000080600002050708888F8888806070706A3
:103E000000003C50909CF0909C0509090600FE7053
:103E1000888080808870204005080806000040F8EF
:103E20008080F08080F805080806000010F8808087
:103E3000F08080F805080806000020F88080F080F7
:103E400080F805080806000050F88080F08080F8AF
:103E50000308080601008040E040404040E00308BD
:103E6000080601002040E040404040E0030808060A
:103E7000010040A0E040404040E003080806010087
:103E8000A000E040404040E0050707060000F04881
:103E900048E84848F0050808060000285088C8A8E7
:103EA000988888050808060000402070888888885F
:103EB0007005080806000010207088888888700542
:103EC0000808060000205070888888887005080857
:103ED0000600002850708888888870050808060049
:103EE00000500070888888887005050506000088E5
:103EF00050205088050707060000709898A8C8C889
:103F000070050808060000402088888888887005A9
:103F1000080806000010208888888888700508082E
:103F20000600002050008888888870050808060070
:103F300000500088888888887005080806000010EE
:103F40002088885020202005070706000080F08880
:103F5000F0808080050707060000708890A0908898
:103F6000B005080806000040200070087888780531
:103F700008080600001020007008788878050808F6
:103F800006000020500070087888780508080600B0
:103F90000028500070087888780507070600005050
:103FA0000070087888780508080600002050207006
:103FB0000878887806050506000078147C907C0552
:103FC00007070600FE7088808870204005080806F4
:103FD00000004020007088F8807005080806000086
:103FE0001020007088F88070050808060000205036
:103FF000007088F880700507070600005000708880
:10400000F88070030808060100804000C04040406E
:10401000E0030808060100408000C0404040E00383
:10402000080806010040A000C0404040E003070728
:10403000060100A000C0404040E005070706000060
:10404000C030708888887005080806000028500075
:10405000B0C88888880508080600004020007088DD
:10406000888870050808060000102000708888887D
:1040700070050808060000205000708888887005C8
:104080000808060000285000708888887005070717
:10409000060000500070888888700505050600013C
:1040A0002000F800200505050600007898A8C8F053
:1040B00005080806000040200088888898680508E0
:1040C00008060000102000888888986805080806FF
:1040D00000002050008888889868050707060000BF
:1040E000500088888898680509090600FE10208815
:1040F0008898680888700508080600FE80F088889F
:1041000088F080800509090600FE500088889868BC
:1041100008887000050700FF06024803BA00FFFF89
:1041200008FF06FF050505050000A8008800A80592
:1041300008080600000808082848F8402003030380
:1041400006010440A040050505060000F8F8F8F84F
:10415000F8050505060000F8888888F805080806AF
:1041600000002050505070F8F87007050509000055
:104170001CFE8282FE050808060000885020882068
:10418000508888060808060000489048FCFC7830F3
:1041900030060808060000244824FCFC783030066D
:1041A0000505060000FCFC7830300602020600001F
:1041B000FCFC06060606000048904890FCFC06063B
:1041C0000606000024482448FCFC070707070000F7
:1041D0008244382838448207070707000010103847
:1041E000EE381010FFFFFFFFFFFFFFFFFFFFFFFF95
:1041F000FFFFFFFF000000050400010606050200A6
:10420000808080800080030303050103A0A0A00537
:10421000050505000050F850F8500505050500009B
:1042200070A0702870040606050000809020409061
:104230001004050505000040A040A050010303053F
:104240000203808080020606050100408080808095
:1042500040020606050100804040404080030505FD
:10426000050100A040E040A0050505050000202054
:10427000F820200303030501FF60408004010105CD
:104280000002F0020202050100C0C004040405009F
:10429000011020408003060605010040A0A0A0A058
:1042A0004003060605010040C0404040E004060609
:1042B0000500006090102040F0040606050000F0A4
:1042C00010601090600406060500002060A0F02039
:1042D00020040606050000F080E010906004060649
:1042E0000500006080E0909060040606050000F084
:1042F0001020204040040606050000609060909069
:1043000060040606050000609090701060020505CC
:10431000050100C0C000C0C00306060500FF6060C4
:104320000060408003050505010020408040200416
:104330000303050001F000F00305050501008040BE
:1043400020408003060605010040A02040004004F4
:1043500006060500006090B0B08060040606050007
:1043600000609090F09090040606050000E090E058
:104370009090E00406060500006090808090600444
:104380000606050000E090909090E0040606050007
:1043900000F080E08080F0040606050000F080E078
:1043A000808080040606050000609080B090700454
:1043B00006060500009090F0909090030606050117
:1043C00000E040404040E0040606050000101010E8
:1043D00010906004060605000090A0C0C0A09004E4
:1043E00006060500008080808080F0040606050037
:1043F0000090F0F090909004060605000090D0D058
:10440000B0B09004060605000060909090906004A3
:104410000606050000E09090E08080040707050094
:10442000FF60909090D06010040606050000E090B8
:1044300090E0A09004060605000060904020906087
:10444000030606050100E040404040400406060522
:1044500000009090909090600406060500009090F7
:1044600090906060040606050000909090F0F09037
:104470000406060500009090606090900306060513
:104480000100A0A0A0404040040606050000F01076
:10449000204080F0030606050100E080808080E077
:1044A00004040405000180402010030606050100F5
:1044B000E020202020E003020205010440A00401C6
:1044C00001050000F002020205010480400404041A
:1044D0000500007090B0500406060500008080E0E2
:1044E0009090E003040405000060808060040606EC
:1044F0000500001010709090700404040500006026
:10450000B0C060040606050000205040E0404004B2
:1045100005050500FF709060807004060605000028
:104520008080E09090900306060501004000C040A6
:1045300040E00307070501FF2000202020A04004E1
:1045400006060500008080A0C0A0900306060501B5
:1045500000C040404040E0040404050000A0F0908A
:1045600090040404050000E0909090040404050009
:1045700000609090600405050500FFE09090E080E9
:104580000405050500FF70909070100404040500F8
:1045900000E090808004040405000070C030E00456
:1045A00006060500004040E04040300404040500D9
:1045B0000090909070030404050100A0A0A04004A6
:1045C00004040500009090F0F0040404050000903D
:1045D0006060900405050500FF90905020400404A1
:1045E00004050000F02040F003060605010020400D
:1045F000C040402001060605020080808080808047
:104600000306060501008040604040800402020568
:10461000000450A0FFFFFFFFFFFFFFFFFFFFFFFFB2
:10462000FFFFFFFFFFFFFFFFFFFFFFFFFFFFFFFF9A
:10463000FFFFFFFFFF000000050400010606050262
:10464000008000808080800406060500FF2070A0A6
:10465000A070200405050500003040E040B00505CD
:10466000050500008870507088030606050100A04B
:10467000A040E040400105050502008080008080E8
:104680000307070501FF6080C0A06020C00301018F
:10469000050105A00507070500FF7088A8C8A888C0
:1046A0007003030305000360A06005030305000118
:1046B000489048040202050001F0100301010501C1
:1046C00002E00507070500FF7088E8C8C888700485
:1046D0000101050005F003030305010340A04005A7
:1046E00006060500002020F82020F8020404050139
:1046F00002C04080C0020404050102C0C040C002E4
:10470000020205010440800405050500FF90909019
:10471000E08004060605000070D0D0505050020220
:1047200002050102C0C00202020501FF408003042D
:104730000405010240C040E003030305000340A05C
:10474000400503030500019048900407070500FF9A
:10475000808080903070100407070500FF80808003
:10476000B01020300407070500FFC0C040D03070F3
:104770001003060605010040004080A04004060624
:10478000050000609090F09090040606050000601F
:104790009090F09090040606050000609090F090D4
:1047A00090040606050000609090F09090040606C4
:1047B000050000906090F0909004060605000060EF
:1047C0006090F0909004060605000070A0B0E0A094
:1047D000B00407070500FF609080809060400406E9
:1047E00006050000F080E08080F004060605000069
:1047F000F080E08080F0040606050000F080E08094
:1048000080F0040606050000F080E08080F00306DA
:1048100006050100E040404040E0030606050100B7
:10482000E040404040E0030606050100E040404013
:1048300040E0030606050100E040404040E0040679
:1048400006050000E050D05050E0040606050000C8
:10485000B090D0B0B0900406060500006090909033
:104860009060040606050000609090909060040639
:104870000605000060909090906004060605000018
:104880006090909090600406060500009060909003
:104890009060040404050000906060900406060522
:1048A000000070B0B0D0D0E0040606050000909083
:1048B00090909060040606050000909090909060A3
:1048C000040606050000909090909060040606058E
:1048D0000000900090909060030606050100A0A0E3
:1048E000A040404004060605000080E090E0808083
:1048F0000406060500006090A09090A0040606053E
:10490000000040207090B0500406060500002040D2
:104910007090B05004060605000020507090B05012
:1049200004060605000050A07090B050040606056D
:10493000000050007090B050040606050000606052
:104940007090B05004040405000070B0A07003051E
:10495000050501FF608080604004060605000040F8
:104960002060B0C060040606050000204060B0C0B2
:104970006004060605000040A060B0C060040606A2
:10498000050000A00060B0C06003060605010080BD
:1049900040C04040E00306060501004080C04040A2
:1049A000E003060605010040A0C04040E003060603
:1049B000050100A000C04040E004060605000040DC
:1049C000306090906004060605000050A0E09090D2
:1049D00090040606050000402060909060040606E2
:1049E000050000204060909060040606050000600D
:1049F000006090906004060605000050A060909052
:104A000060040606050000500060909060040505F3
:104A10000500006000F0006004040405000070B0B0
:104A2000D0E0040606050000402090909070040637
:104A300006050000204090909070040606050000D6
:104A40006000909090700406060500005000909061
:104A500090700407070500FF20409090502040040C
:104A600006060500FF80E09090E08004070705003F
:104A7000FF500090905020402063203D2000206295
:104A8000203D2000706C616E653A2061203D200061
:104A90004175746F6C6576656C696E6720646973C7
:104AA00061626C6564004175746F6C6576656C69F4
:104AB0006E6720656E61626C6564004D3334302032
:104AC000503020533838300A473420503230300AC2
:104AD0004D33343020503020532D31004D3334309D
:104AE0002050302053313830300A47342050323093
:104AF000300A4D33343020503020532D3100417571
:104B0000746F6C6576656C206D6174726978207263
:104B1000657365740020453A00205A3A00583A00FF
:104B200053706565644D756C7469706C793A0046B4
:104B30006C6F774D756C7469706C793A0046616E74
:104B400073706565643A00526573656E643A006F10
:104B50006B20004D697373696E67206C696E656EBA
:104B6000756D6265720020676F7420004572726F08
:104B7000723A6578706563746564206C696E65204F
:104B800000736B697020006F6B004563686F3A00BB
:104B9000446F6E65207072696E74696E6720666915
:104BA0006C65005344206572726F72206669786587
:104BB00064005344206572726F7220646964206ED1
:104BC0006F74207265636F766572210053442052C2
:104BD000656164204572726F720053442072656192
:104BE00064206572726F72007761697400466F723B
:104BF0006D6174206572726F72008025000040380C
:104C00000000004B00008070000000960000C0DA39
:104C1000000000E10000002C010008B2010000C209
:104C2000010000F401000084030090D0030000E8BC
:104C300003000008070020A1070000100E004042FA
:104C40000F0060E316000000000055495F41435427
:104C5000494F4E5F45504F534954494F4E200055E0
:104C6000495F414354494F4E5F5A504F534954494D
:104C70004F4E5F46415354200055495F41435449CC
:104C80004F4E5F59504F534954494F4E5F46415321
:104C900054200055495F414354494F4E5F58504F8F
:104CA000534954494F4E5F46415354200055495F84
:104CB000414354494F4E5F5A504F534954494F4E08
:104CC000200055495F414354494F4E5F59504F535F
:104CD0004954494F4E200055495F414354494F4E76
:104CE0005F58504F534954494F4E2000205A0020DE
:104CF00059004733332058002C002F004578747238
:104D00002E004550523A3320004550523A3220008E
:104D10004550523A3020000000420FA1071605D03E
:104D2000030D038B022E02E801B2018601630145E7
:104D3000012C0117010401F4000000000000000034
:104D400000000000000000000024F403D950C38ECE
:104D5000B1C2A23D96828B3582127AE372816CCB0E
:104D600066A861015DC758EB546151204E1E4B5639
:104D700048C14559431A41013F093D2F3B7139CD87
:104D8000374036C93465331432D430A32F802E6BAC
:104D90002D632C672B752A8E29B028DC2710274B12
:104DA000268F25D9242B248223E0224322AC211AEA
:104DB000218D200420801F001F841E0C1E971D269D
:104DC0001DB81C4E1CE61B821B201BC11A641A0A4C
:104DD0001AB2195D190A19B9186A181C18D117885E
:104DE000174017FA16B51673163116F115B3157666
:104DF000153A150015C7148F1458142214EE13BA5F
:104E000013881356132513F612C71299126C124009
:104E1000121512EB11C1119811701148112111FBDB
:104E200010D610B1108D106910461024100210E138
:104E30000FC00FA00F800F610F420F230F060FE866
:104E40000ECB0EAF0E930E770E5C0E410E270E0D9D
:104E50000EF30DDA0DC10DA80D900D780D600D4902
:104E60000D320D1B0D050DEF0CD90CC30CAE0C99BA
:104E70000C850C700C5C0C480C350C210C0E0CFBDA
:104E80000BE80BD60BC40BB20BA00B8E0B7D0B6B80
:104E90000B5A0B4A0B390B290B180B080BF80AE9B4
:104EA0000AD90ACA0ABB0AAC0A9D0A8E0A800A718C
:104EB0000A630A550A470A390A2C0A1E0A110A040B
:104EC0000AF709EA09DD09D009C409B709AB099F46
:104ED00009920987097B096F09630958094C09413F
:104EE0000936092B09200915090A090009F508EBFB
:104EF00008E008D608CC08C208B808AE08A4089A8A
:104F000008900887087D0874086B08610858084FE6
:104F10000846083D0834082C0823081A0812080916
:104F2000080108F807F007E807E007D807D007C826
:104F300007C007B807B007A807A107205200204AFA
:104F4000002049002050002053002046002045004A
:104F5000205A00205900205800205072696E746554
:104F6000722073746F7070656420616E6420686570
:104F700061746572732064697361626C6564206436
:104F8000756520746F2074686973206572726F7222
:104F90002E20466978206572726F7220616E6420DF
:104FA000726573746172742077697468204D393941
:104FB000392E00666174616C3A00556E6B6E6F77C6
:104FC0006E0043757261003B536C696365642061D8
:104FD000743A200067656E65726174656420627959
:104FE00020004C61796572206865696768743A20B1
:104FF000003B206C617965725F6865696768742041
:105000000066696C616D656E74207573656400651A
:1050100072726F722077726974696E6720746F2084
:1050200066696C6500504944204175746F74756EF3
:10503000652066696E6973686564202120506C6123
:10504000636520746865204B702C204B6920616E6D
:1050500064204B6420636F6E7374616E7473206997
:105060006E2074686520436F6E666967757261743F
:10507000696F6E2E68206F7220454550524F4D006B
:10508000446F6E6520736176696E672066696C6532
:105090002E002C2266696C654E616D65223A2200F5
:1050A0005D2C2267656E6572617465644279223A8F
:1050B00022002C2266696C616D656E74223A5B0079
:1050C0002C226C61796572486569676874223A00C0
:1050D0002C22686569676874223A007B22657272C7
:1050E000223A302C2273697A65223A004E6F74207E
:1050F0005344207072696E74696E6700227D007B74
:1051000022657272223A22005A20636F72726563BE
:1051100074696F6E20656E61626C6564005A20630D
:105120006F7272656374696F6E2064697361626C1B
:10513000656400436F6E6669673A005472616E730E
:10514000666F726D6174696F6E206D6174726978DB
:105150003A002000534420696E6974206661696CCE
:105160000066696C652E6F70656E206661696C659E
:10517000640046696C652073656C656374656400E2
:105180002053697A653A0046696C65206F70656ED8
:1051900065643A0000002110422063308440A5502D
:1051A000C660E770088129914AA16BB18CC1ADD16D
:1051B000CEE1EFF13112100273325222B552944215
:1051C000F772D662399318837BB35AA3BDD39CC3BD
:1051D000FFF3DEE36224433420040114E664C77461
:1051E000A44485546AA54BB528850995EEE5CFF50D
:1051F000ACC58DD55336722611163006D776F666B5
:105200009556B4465BB77AA719973887DFF7FEE75C
:105210009DD7BCC7C448E5588668A7784008611880
:1052200002282338CCC9EDD98EE9AFF948896999AC
:105230000AA92BB9F55AD44AB77A966A711A500A54
:10524000333A122AFDDBDCCBBFFB9EEB799B588BFC
:105250003BBB1AABA66C877CE44CC55C222C033CA0
:10526000600C411CAEED8FFDECCDCDDD2AAD0BBD4C
:10527000688D499D977EB66ED55EF44E133E322EF4
:10528000511E700E9FFFBEEFDDDFFCCF1BBF3AAF9C
:10529000599F788F8891A981CAB1EBA10CD12DC1FA
:1052A0004EF16FE18010A100C230E3200450254090
:1052B00046706760B9839893FBA3DAB33DC31CD3F0
:1052C0007FE35EF3B1029012F322D23235421452E0
:1052D00077625672EAB5CBA5A89589856EF54FE53C
:1052E0002CD50DC5E234C324A01481046674476430
:1052F00024540544DBA7FAB79987B8975FE77EF790
:105300001DC73CD7D326F2369106B016576676767F
:10531000154634564CD96DC90EF92FE9C899E9895B
:105320008AB9ABA94458654806782768C018E108CF
:105330008238A3287DCB5CDB3FEB1EFBF98BD89B2F
:10534000BBAB9ABB754A545A376A167AF10AD01A1F
:10535000B32A923A2EFD0FED6CDD4DCDAABD8BAD7B
:10536000E89DC98D267C076C645C454CA23C832C6F
:10537000E01CC10C1FEF3EFF5DCF7CDF9BAFBABFCF
:10538000D98FF89F176E367E554E745E932EB23EBF
:10539000D10EF01E494E46004E414E0050726F74C1
:1053A0006F636F6C2076657273696F6E20636861DE
:1053B0006E6765642C20757067726164696E670042
:1053C000040003000000003FCDCC4C3D0AD7A33BB6
:1053D0006F12033A7C3C3E5E2B3D3F2F5B5D3B2CC6
:1053E0002A225C0055495F414354494F4E5F484F64
:1053F0004D45414C4C2000005344207072696E743E
:105400002073746F707065642062792075736572A3
:105410002E00007A2D70726F626520646964206EC0
:105420006F7420756E747269676765722061667447
:10543000657220676F696E67206261636B20746FAD
:1054400020737461727420706F736974696F6E2E4B
:1054500000207A436F72723A0020593A0020583A7D
:10546000005A2D70726F62653A005A2D70726F6229
:1054700065206661696C6564007A2D70726F626583
:1054800020747269676765726564206265666F7211
:1054900065207374617274696E672070726F6269DF
:1054A0006E672E00FFD0FFE0FFCFFF64FFD1FF3219
:1054B000380C060201FF64FFD0FFFE000000000070
:1054C000000000000000010000FF005A2D70726F04
:1054D00062652073746174653A007A5F6D61783A31
:1054E000007A5F6D696E3A00795F6D61783A007994
:1054F0005F6D696E3A004C2000482000785F6D6156
:10550000783A00785F6D696E3A00656E6473746F07
:105510007073206869743A200044656275674C6551
:1055200076656C3A005072696E7465724D6F646591
:105530003A434E43005072696E7465724D6F6465F4
:105540003A4C61736572005072696E7465724D6F8A
:1055500064653A4646460000002100240027002AE0
:10556000002D003000330001010000040107010A92
:105570000100002200250028002B002E00310034FD
:105580000002010000050108010B010000200023BA
:1055900000260029002C002F00320000010000032B
:1055A00001060109010505050507050808080802A7
:1055B0000202020A0A0808040404040101010101AC
:1055C0000101010303030303030303040707070C9B
:1055D0000C0C0C0C0C0C0C02020202060606060651
:1055E0000606060B0B0B0B0B0B0B0B0102102020FE
:1055F0000808102040102040800201020108040227
:10560000010102040810204080804020100804029C
:1056100001800402018040201008040201080402F5
:1056200001010204081020408001020408102040FB
:105630008000000A0B02090C0D0E0807030401008C
:10564000000000000000000000000000000000005A
:105650000000000000000000000000000012111017
:10566000000000000000000000000000000000003A
:1056700000000000000000496E666F3A004572723B
:105680006F723A0090F211241FBECFEFD1E2DEBF5D
:10569000CDBF00E00CBF23E1A6EBB2E001C01D923C
:1056A000A530B207E1F712E0A0E0B2E0E6EDF8EFD6
:1056B00001E00BBF02C007900D92A63BB107D9F7DE
:1056C0001BE2C3E4DBE200E006C021970109802F62
:1056D000FE010E94D9FAC234D10780E00807A9F779
:1056E0000E94F2ED0C9469FC0C9400004F925F92C2
:1056F0006F927F928F929F92AF92BF92CF92DF92E2
:10570000EF92FF920F931F93CF93DF93CDB7DEB746
:10571000C655D1090FB6F894DEBF0FBECDBF8C01C0
:10572000DC0116968D919C9117978A3C910511F496
:105730000C94723408F0D3C08235910509F422C666
:1057400008F063C08A31910509F444C458F58531E5
:10575000910509F41DC498F48430910509F4D8C367
:1057600028F4039709F493C30C94FE3E8530910509
:1057700009F4E8C3449709F4F7C30C94FE3E87315B
:10578000910509F40DC408F407C48831910509F4A2
:105790001DC4499711F00C94FE3E80E00E940DE17B
:1057A0000C94EB408032910509F413C580F48C31E0
:1057B000910509F459C408F42FC48D31910511F4F1
:1057C0000C94EB404E9709F497C40C94FE3E8A3239
:1057D000910509F455C528F4849709F442C50C9441
:1057E000FE3E8035910509F4B8C58135910511F06B
:1057F0000C94FE3E0E943575269A8091990F8F7BFE
:105800008093990F2E9A0C94EB408D36910509F4F4
:10581000A2C638F58336910509F448C680F484356C
:10582000910509F4B8C508F4B1C58535910509F4A9
:10583000D0C58C35910509F4F0C50C94FE3E8A362E
:10584000910509F4A2C638F48836910510F00C943D
:10585000EB400C94FE3E8B36910509F4B0C60C94D7
:10586000FE3E8737910509F48DC7A8F4823791056C
:1058700009F45CC730F48F36910509F4B3C60C9473
:10588000FE3E8337910509F4D4C68537910509F4A6
:1058900053C70C94FE3E8E3B910509F468C6A8F4EC
:1058A0008837910509F478C78C38910511F00C946C
:1058B000FE3E0E946CED60931D0E70931E0E809351
:1058C0001F0E9093200E0C94EB40883C910509F438
:1058D00077C7893C910509F4C0C70C94FE3E833616
:1058E000B1E09B0711F40C94D03A08F079C08931EB
:1058F000F1E09F0711F40C94B73798F58F3C9105B0
:1059000011F40C940E37A0F48C3C910511F40C9416
:10591000CF3410F40C94B4348D3C910511F40C94F4
:1059200054358E3C910511F40C94D0360C94FE3E07
:105930008C3D910511F40C94833738F4813D910529
:1059400011F40C945C370C94FE3E8D3D910511F4DE
:105950000C949537823E910511F40C94AA370C945F
:10596000FE3E813431E0930711F40C94503AF0F488
:105970008E3251E0950711F40C943C3A38F48C3295
:10598000914011F40C94BD370C94FE3E8F32E1E04F
:105990009E0711F40C94EB408034914011F00C946C
:1059A000FE3E81E00E94A0750C94683A833421E0A9
:1059B000920711F40C947A3A10F40C94653A8435F9
:1059C00041E0940711F40C94BC3A8E35914011F0EB
:1059D0000C94FE3E8EEB9DE00E943AC20C94EB408C
:1059E000843FA1E09A0711F40C941B3D08F014C207
:1059F0008839E1E09E0711F40C94103B08F0EAC1ED
:105A0000803921E0920711F40C94DA3A08F0D5C1FC
:105A10008836914011F00C94FE3E809043029090A5
:105A20004402A0904502B090460283E391E50E94B3
:105A300046C182EA9AE00E9446C1C501B4010E94B3
:105A40002CC10E9444756FE770E085E99AE00E94DE
:105A5000DAED60E070E088E89AE00E94DAED60E05C
:105A600070E088E79AE00E94DAED60E070E08DE691
:105A70009AE00E94DAED61E070E085E69AE00E942B
:105A8000DAED61E070E080E69AE00E94DAED83E30F
:105A900091E50E9446C189E59AE00E943AC261E020
:105AA00070E084E59AE00E94DAED61E070E08FE357
:105AB0009AE00E94DAED6FEF7FEF85E39AE00E94B3
:105AC000DAED6FEF7FEF8BE29AE00E94DAED6FEF95
:105AD0007FEF81E29AE00E94DAED61E070E082E11E
