:100000000C94952B0C94C62B0C94C62B0C94C62BDD
:100010000C94C62B0C94C62B0C94C62B0C94C62B9C
:100020000C94C62B0C94C62B0C94C62B0C94C62B8C
:100030000C94C62B0C94F05A0C94C62B0C94C62B23
:100040000C94C62B0C94878E0C94C62B0C94C62B48
:100050000C94C62B0C94C62B0C94EBE40C940BEC78
:100060000C94C62B0C94C1E40C9491E40C94C62B14
:100070000C94C62B0C94C62B0C94C62B0C94C62B3C
:100080000C9453930C94C62B0C94C62B0C94C62B37
:100090000C9467E40C9437E40C94C62B0C94C62B98
:1000A0000C94C62B0C94C62B0C94C62B0C94C62B0C
:1000B0000C94C62B0C94C62B0C94C62B0C94C62BFC
:1000C0000C94C62B0C94C62B0C94C62B0C94C62BEC
:1000D0000C94C62B0C94C62B0C94C62B0C94C62BDC
:1000E0000C94C62B2C5AA25A655A5C5A6F5A755AF0
:1000F000955A5F7B047A047A047A047A047A047A43
:10010000047A047A047A047A047A047A047A047AFF
:10011000047A047A047A047A047A047A047A047AEF
:10012000217B2C7B0B7B007BAA7AB57A1F7A167B0E
:10013000DF7AEA7A377B427B307A0C7A4D7BD47A4D
:10014000047AF57AC97AC07A047A047A047A897AC8
:10015000947A9F7A047A047A047A047A047A047A84
:10016000217B2C7B0B7B007BAA7AB57A1F7A167BCE
:10017000DF7AEA7A377B427B307A0C7A4D7BD47A0D
:10018000047AF57AC97AC07A047A047A047A897A88
:10019000947A9F7A719381938393A2938C93A29381
:1001A0009593A2939AE99DE98CE990E996E9D4E9BF
:1001B000A1E9A5E9ABE9AFE9B3E9B9E9BDE9C1E96D
:1001C000D4E9C7E9CBE9CFE927EB2CEB31EB3BEBEB
:1001D00045EBBEEB4FEB57EB5FEB69EB73EB7DEB66
:1001E0008CEB96EBBEEBA0EBAAEBB4EB084AD73B4B
:1001F0003BCE016E84BCBFFDC12F3D6C74319ABDF6
:1002000056833DDA3D00C77F11BED9E4BB4C3E9119
:100210006BAAAABE000000803F05A84CCDB2D44E08
:10022000B93836A9020C50B9918688083CA6AAAA0A
:100230002ABE000000803F004E414E494E495459AD
:10024000494E46CDCCCC3D0AD7233C17B7D13877A1
:10025000CC2B329595E6241FB14F0A0000204100B7
:1002600000C84200401C4620BCBE4CCA1B0E5AAE01
:10027000C59D74456E642066696C65206C697374F5
:1002800000426567696E2066696C65206C697374ED
:10029000005344207072696E74696E6720627974CD
:1002A00065200057726974696E6720746F206669F3
:1002B0006C653A20006F70656E206661696C6564DC
:1002C0002C2046696C653A20004372656174696F41
:1002D0006E206661696C6564004469726563746F61
:1002E0007279206372656174656400206D696E00C7
:1002F00020686F757273200020646179732000504C
:1003000072696E74696E672074696D653A006D205C
:10031000005072696E7465642066696C616D656E0B
:10032000743A0052657472616374696F6E20756E01
:10033000646F207370656564004578747261206530
:100340007874727573696F6E206F6E20756E646F4E
:100350002072657472616374205B6D6D5D0052651F
:100360007472616374696F6E207A2D6C6966742093
:100370005B6D6D5D0052657472616374696F6E20B0
:100380007370656564205B6D6D2F735D00526574DD
:1003900072616374696F6E206C656E677468205B50
:1003A0006D6D5D00456E61626C6520726574726191
:1003B0006374696F6E20636F6E76657273696F6EBA
:1003C000205B302F315D0074616E585A204178698E
:1003D0007320436F6D70656E736174696F6E007426
:1003E000616E595A204178697320436F6D70656E54
:1003F000736174696F6E0074616E58592041786939
:100400007320436F6D70656E736174696F6E004128
:1004100075746F6C6576656C2061637469766520B0
:1004200028312F3029005A2D70726F626520626565
:100430006E64696E6720636F7272656374696F6E54
:100440002043205B6D6D5D005A2D70726F626520D8
:1004500062656E64696E6720636F7272656374694A
:100460006F6E2042205B6D6D5D005A2D70726F6261
:10047000652062656E64696E6720636F7272656382
:1004800074696F6E2041205B6D6D5D005A2D707236
:100490006F6265205933205B6D6D5D005A2D70725F
:1004A0006F6265205833205B6D6D5D005A2D707250
:1004B0006F6265205932205B6D6D5D005A2D707240
:1004C0006F6265205832205B6D6D5D005A2D707231
:1004D0006F6265205931205B6D6D5D005A2D707221
:1004E0006F6265205831205B6D6D5D005A2D707212
:1004F0006F6265206F66667365742079205B6D6D31
:100500005D005A2D70726F6265206F666673657448
:100510002078205B6D6D5D005A2D70726F626520D2
:10052000782D792D7370656564205B6D6D2F735D1B
:10053000005A2D70726F6265207370656564205B70
:100540006D6D2F735D004D61782E207A2D70726F66
:100550006265202D2062656420646973742E205BBF
:100560006D6D5D005A2D70726F62652068656967F8
:100570006874205B6D6D5D00436F6174696E672008
:10058000746869636B6E657373205B6D6D5D005A93
:100590002D617869732074726176656C2061636384
:1005A000656C65726174696F6E205B6D6D2F735E33
:1005B000325D00592D617869732074726176656CC3
:1005C00020616363656C65726174696F6E205B6D39
:1005D0006D2F735E325D00582D61786973207472DF
:1005E0006176656C20616363656C65726174696FC7
:1005F0006E205B6D6D2F735E325D005A2D617869E0
:100600007320616363656C65726174696F6E205BF2
:100610006D6D2F735E325D00592D617869732061B5
:100620006363656C65726174696F6E205B6D6D2FBD
:10063000735E325D00582D61786973206163636574
:100640006C65726174696F6E205B6D6D2F735E32C5
:100650005D005A206D6178206C656E677468205B60
:100660006D6D5D0059206D6178206C656E677468F2
:10067000205B6D6D5D0058206D6178206C656E6744
:100680007468205B6D6D5D005A206D696E20706F1F
:1006900073205B6D6D5D0059206D696E20706F7306
:1006A000205B6D6D5D0058206D696E20706F73204A
:1006B0005B6D6D5D004D61782E205A2D6A65726B01
:1006C000205B6D6D2F735D004D61782E206A657221
:1006D0006B205B6D6D2F735D005A2D6178697320FF
:1006E000686F6D696E672066656564726174652008
:1006F0005B6D6D2F735D00592D6178697320686F94
:100700006D696E67206665656472617465205B6DF6
:100710006D2F735D00582D6178697320686F6D6966
:100720006E67206665656472617465205B6D6D2F10
:10073000735D005A2D61786973206D61782E206693
:1007400065656472617465205B6D6D2F735D005922
:100750002D61786973206D61782E206665656472FD
:10076000617465205B6D6D2F735D00582D61786934
:1007700073206D61782E20666565647261746520F2
:100780005B6D6D2F735D005A2D61786973207374F2
:1007900065707320706572206D6D00592D617869E8
:1007A0007320737465707320706572206D6D0058CE
:1007B0002D61786973207374657073207065722081
:1007C0006D6D0053746F7020737465707065722066
:1007D000616674657220696E6163746976697479A3
:1007E000205B6D732C303D6F66665D004D61782E29
:1007F00020696E6163746976652074696D65205B3C
:100800006D732C303D6F66665D005072696E746565
:100810007220616374697665205B735D0046696C64
:10082000616D656E74207072696E746564205B6DB5
:100830005D004261756472617465004C616E67753C
:10084000616765004E6F2063617365206C6967683E
:100850007473004D617842656454656D703A005060
:1008600072696E746572547970653A436172746529
:100870007369616E005A54726176656C4163636599
:100880006C3A005954726176656C416363656C3AE9
:10089000005854726176656C416363656C3A005A26
:1008A0005072696E74416363656C3A0059507269A5
:1008B0006E74416363656C3A00585072696E74419E
:1008C0006363656C3A005A53697A653A0059536913
:1008D0007A653A005853697A653A005A4D61783A18
:1008E00000594D61783A00584D61783A005A4D6987
:1008F0006E3A00594D696E3A00584D696E3A005291
:10090000657472616374696F6E556E646F53706560
:1009100065643A0052657472616374696F6E556EF6
:10092000646F45787472614C6F6E674C656E677466
:10093000683A0052657472616374696F6E556E64D3
:100940006F45787472614C656E6774683A005265E1
:100950007472616374696F6E5A4C6966743A0052BE
:10096000657472616374696F6E53706565643A0093
:1009700052657472616374696F6E4C6F6E674C651B
:100980006E6774683A0052657472616374696F6E61
:100990004C656E6774683A004A65726B5A3A004A51
:1009A00065726B58593A005072696E746C696E6565
:1009B00043616368653A00454550524F4D3A0041E6
:1009C00075746F6C6576656C3A005A50726F62652B
:1009D0003A00436173654C69676874733A005375F4
:1009E00070706F72744C6F63616C46696C616D6599
:1009F0006E746368616E67653A00537570706F72EC
:100A0000744731304731313A005A486F6D65446957
:100A1000723A0059486F6D654469723A0058486FE0
:100A20006D654469723A00536F6674776172655000
:100A30006F7765725377697463683A004C43443A40
:100A40000046616E323A300046616E3A00534443CC
:100A50006172643A004865617465644265643A0095
:100A60004D6978696E6745787472756465723A008D
:100A70004E756D45787472756465723A00496E7092
:100A800075744275666665723A004261756472619A
:100A900074653A007D005D005D2C226D61784665CD
:100AA00065647261746573223A5B00222C226D6961
:100AB0006E466565647261746573223A5B302C30F2
:100AC0002C3000302E39322E3900222C22666972E9
:100AD0006D776172654E616D65223A22526570656F
:100AE00074696572222C226669726D77617265562F
:100AF000657273696F6E223A220052414D50530065
:100B00005D2C226669726D77617265456C656374F0
:100B1000726F6E696373223A22005D2C22616363F7
:100B2000656C65726174696F6E73223A5B005D2C4F
:100B300022617869734D61786573223A5B002C22DB
:100B4000617869734D696E73223A5B00226669723F
:100B500073744C61796572486569676874223A00FC
:100B6000226672616374696F6E5072696E74656437
:100B7000223A005D2C002C22657874725261772233
:100B80003A5B002C2263757272656E744C617965F4
:100B900072223A005D00222C22746F6F6C73223A2D
:100BA0005B004D50434E4300222C226E616D652246
:100BB0003A220063617274657369616E002C22636E
:100BC0006F6C644578747275646554656D70223A13
:100BD000302C22636F6C6452657472616374546567
:100BE0006D70223A302E302C2267656F6D657472FD
:100BF00079223A22005D7D7D2C2274696D65223A4E
:100C0000005D2C227374617465223A205B005D2CB8
:100C100022616374697665223A205B00226865610F
:100C20006473223A207B2263757272656E74223A75
:100C3000205B002274656D7073223A207B005D7D1D
:100C40002C002C2265787472466163746F72732273
:100C50003A5B005D2C227370656564466163746F56
:100C600072223A002C2266616E50657263656E7462
:100C7000223A5B00302C20302C203000312C2031E7
:100C80002C2031002C22706172616D73223A207B1E
:100C900022617478506F776572223A005D7D2C2254
:100CA00063757272656E74546F6F6C223A005D2CBE
:100CB0002278797A223A5B005D2C22657874722260
:100CC0003A5B002261786573486F6D6564223A5B18
:100CD00000222C22636F6F726473223A207B007BA8
:100CE00022737461747573223A202200436F6E661A
:100CF000696775726174696F6E20726573657420BF
:100D0000746F2064656661756C74732E00696E661D
:100D10006F3A436F6E74696E75652066726F6D20F1
:100D2000666174616C20737461746500005465734E
:100D300074696E6720666174616C206572726F728F
:100D40000029203D20002C0042656E64696E6720FA
:100D500061742028004A616D206465627567676967
:100D60006E673A00436F6E66696775726174696F8A
:100D70006E206C6F616465642066726F6D204545FE
:100D800050524F4D2E00436F6E66696775726174E5
:100D9000696F6E2073746F72656420746F204545AF
:100DA00050524F4D2E00536574204D6963726F731E
:100DB00074657070696E6700436F6C642065787449
:100DC000727573696F6E20646973616C6C6F77659F
:100DD0006400436F6C6420657874727573696F6E1C
:100DE00020616C6C6F776564005761746368646F31
:100DF00067206665617475726520776173206E6F18
:100E00007420636F6D70696C656420696E746F2007
:100E1000746869732076657273696F6E21004D3254
:100E2000353120004175746F726574726163743A74
:100E300000205A4A65726B3A004A65726B3A00208C
:100E4000746F200053657420766F6C756D657472D5
:100E5000696320657874727573696F6E20666F724E
:100E600020657874727564657220004469736162EC
:100E70006C656420766F6C756D657472696320654E
:100E80007874727573696F6E20666F7220657874FE
:100E9000727564657220004D31313420004649522C
:100EA0004D574152455F4E414D453A52657065740C
:100EB0006965725F302E39322E39204649524D57BE
:100EC0004152455F55524C3A68747470733A2F2FF3
:100ED0006769746875622E636F6D2F7265706574D3
:100EE0006965722F52657065746965722D46697205
:100EF0006D776172652F2050524F544F434F4C5FB6
:100F000056455253494F4E3A312E30204D414348B9
:100F1000494E455F545950453A4D656E64656C20A5
:100F200045585452554445525F434F554E543A30FC
:100F30002052455045544945525F50524F544F43FB
:100F40004F4C3A330050696E2063616E206E6F74AF
:100F500020626520736574206279204D34322C2024
:100F6000697320696E2073656E7369746976652094
:100F700070696E732120002069732000496C6C65D4
:100F800067616C20532076616C756520666F7220F6
:100F90004D34320020746F2000536574206F7574D7
:100FA0007075743A2000000136372603023C3D3844
:100FB0000E0F2E303E04050D0C0A081A1C182422B0
:100FC0001E0D0E354C617365724F6E3A00496E7698
:100FD000616C696420617263005A2D70726F626582
:100FE000206D61783A007A2D6D617820686F6D69A7
:100FF0006E67206661696C65640047333220005A71
:1010000020616674657220726F746174696F6E3AE4
:10101000002061745A3A0043757272656E745A3AD0
:101020000050726F62696E67206861642072657437
:1010300075726E6564206572726F7273202D206107
:1010400075746F6C6576656C696E672063616E633D
:10105000656C65642E00526573657474696E6720F3
:101060005A20636F7272656374696F6E00002C2082
:1010700000446973746F7274696F6E20636F72726B
:10108000656374696F6E206D61747269783A00539C
:10109000746F7070696E6720646973746F727469BD
:1010A0006F6E206D6561737572656D656E74206419
:1010B000756520746F206572726F72732E005265B1
:1010C0006C617469766520706F736974696F6E699D
:1010D0006E67004162736F6C75746520706F736921
:1010E00074696F6E696E6700473333206661696C9F
:1010F00065642100596F75206E65656420746F20EA
:10110000646566696E6520582C205920616E6420E4
:101110005A20746F20736574206120706F696E743B
:101120002100473332206C6576656C696E672066F6
:1011300061696C65642100473239206C6576656CA5
:10114000696E67206661696C6564210047323920E9
:101150006C6576656C696E67206661696C65642193
:101160000047323920005265736574205A20686543
:1011700069676874005A2D70726F626520617665C8
:1011800072616765206865696768743A00556E6BBF
:101190006E6F776E20636F6D6D616E643A00000054
:1011A000000000000062000000000000000061007C
:1011B00000000000000000600000000000000000CF
:1011C0005F00000000000000006E00000000000052
:1011D00000006D00000000000000006C0000000036
:1011E000000000006B00000000000000008900000B
:1011F00000000000000088000000000000000086E1
:1012000000000000000000008500B911B011A71116
:101210009E11DD11D411CB11C211EF11E611011293
:10122000F81103550404000A1203560404001212B4
:10123000456E676C6973680003580402001A120354
:10124000200402001E12000003AC0F0000B40000D6
:1012500000022212000021000000022912000022D8
:10126000000000042F0400009B000000042604403E
:1012700000960000000422044000950000000426AF
:101280000420009A000000042504200099000000BA
:101290000424042000980000000423042000970088
:1012A0000000042204200094000000042D0400002B
:1012B00093000000044C040000BB000000044D0437
:1012C0000000BC000000042E040000900000000498
:1012D0002A0400008F000000042B0400008E000090
:1012E00000042C0400008D00000004290400008C80
:1012F0000000000413040000550000000412040064
:101300000054000000041104000053000000041603
:10131000040000510000000415040000500000000B
:1013200004140400004F000000040F040000380003
:101330000000040E04000037000000040D0400004B
:1013400035000000040C04000034000000040B040D
:10135000000033000000040A040000310000000413
:10136000090400003000000004080400002F0030D1
:101370001203A42600000000000003B2040000D005
:10138000000000023812000087000000023F120037
:10139000008400000004100400008B00B918AB1793
:1013A00058124F124612B918E812DF12D612CD1297
:1013B000C412BB12B212A912A01297128E12851279
:1013C0007C1273126A126112B9181E1315130C13D2
:1013D0000313FA12F112B91866135D1354134B1369
:1013E0004213391330132713B9186F13B918931315
:1013F0008A138113781302000005009C1302000079
:101400001100A6130200000700C813020000090023
:10141000D6130200000200E8130200000500EC13DE
:10142000000002F6130000B50000000307040000EE
:101430003B00000003060400003A00000002FD1318
:1014400000000F00000002041400004E0000000223
:101450000B140000390000000212140000E4000028
:101460000002191400008A00000003820400000A30
:1014700001000003810400003F000000038004001D
:10148000003E000000037F0400003D000000037EDA
:101490000400003C00000004BD040010E300000054
:1014A00003B9040010E100000003B8040010E000DC
:1014B000000003B6040010DF00000003B5040010B4
:1014C000DE00000003BE040010DD00000003B704CE
:1014D0000010DC00000003B4040000D20000000390
:1014E0001E04000083000000031D040000820000B1
:1014F00000031C04000081000000031B04000080A6
:10150000000000031A0408007F00000004520400D9
:10151000007E00000004B60F00000901000004B5C1
:101520000F00000801000004B40F000007010000D4
:101530000000000000F20000000000000000AB000E
:10154000000000000000007000000000000000002B
:101550006F00000003542402000300000003E803AE
:101560000000040000000100000000C900B9185F7D
:101570001456144D1444143B14321429142014B975
:10158000188C1483147A1471146814B918CB14C20B
:1015900014B914B014A7149E149514B9180A15019F
:1015A00015F814EF14E614DD14D414B91825151C1D
:1015B0001513154915401537152E1564155B155271
:1015C0001502000009006D1502000006007F1502DB
:1015D000000008008B1502000008009B15020000A7
:1015E0000400AB1503F0030400B315020000030070
:1015F000BB1500000000000000F700000000000024
:101600000000DA00000002C11500000D0000000219
:10161000C81500001100000002E21A0000100000CE
:101620000002CF150010D900000002D61500007D81
:1016300000000002AA1A00000F00000002A31A0016
:10164000000E00000002B11A00000B0000000000B4
:10165000000000E00000000000000000DA000000D0
:101660000000000000DF0000000000000000DA00C1
:1016700000000000000000E1000000000000000089
:10168000DA0000000000000000DE000000000000A2
:101690000000DA0000000000000000DD0000000093
:1016A00000000000DA0000000000000000DC000084
:1016B000000000000000DA0000000000000000CF81
:1016C0000000000000000000CE000000000000004C
:1016D00000CD0000000000000000CC00000002DD92
:1016E0001500000601000004B3040000D100000052
:1016F00002CD1A00002100000002B81A00002200EA
:10170000000002D41A00001F00000002BF1A0000EF
:101710002000000002DB1A00001D00000002C61AB3
:1017200000001E000000030004001016000000036B
:10173000FF0300101500000003FE0300101400005A
:101740000003440400002E00000002E41500002302
:101750000000000336040000C6000000034304003C
:10176000101C00000003310400101B0000000338AF
:101770000400001A000000034704000018000000E5
:101780000337040000170000000388130000CB009B
:1017900000000448040000B1000000041F04000021
:1017A000B00000000457040000CA00000003FD035D
:1017B00000101300000000000000006E0000000098
:1017C000000000006D00000000000000006C000040
:1017D0000000000000006B00000000000000006A34
:1017E0000000000000000000690000000000000090
:1017F000006800000000000000006700000000001A
:10180000000000660000000000000000650000000D
:101810000000000000640000000000000000630001
:101820000000000000000062000000000000000056
:1018300061000000000000000060000000000000E7
:1018400000005F00000000000000005E00000000DB
:10185000000000005D00000000000000005C0000CF
:101860000000000000005B00000000000000005AC3
:10187000000000000000000059000000000000000F
:10188000005800000000000000005700000003F4B2
:101890000301024D00000002EB150200C900000028
:1018A00003F70304004A00000003F60302044900A2
:1018B000000003F50301024800000003E8030000F4
:1018C0000A0000000000000000A800000000000066
:1018D0000000A70000000000000000A600000000BB
:1018E00000000000A500FB15F215B9184316B0184A
:1018F0003A16311628161F1616160D16041655160A
:101900004C1667165E16791670168B1682169D1683
:101910009416AF16A616D316CA16C116B816B9185D
:10192000AB1736172D1724171B1712170917001797
:10193000F716EE164817E516DC16B91848173F17C4
:10194000B918AB17A2179917901787177E17751735
:101950006C1763175A175117CF17C617BD17B4174F
:10196000F317EA17E117D81717180E180518FC1700
:101970003B183218291820185F1856184D184418AB
:1019800083187A1871186818B918B018A7189E1813
:1019900095188C18B918CB18C218DD18D418000384
:1019A00010270200E6182F2F20616374696F6E3ACA
:1019B000726573756D650044656C6574696F6E2042
:1019C0006661696C65640046696C652064656C6578
:1019D000746564000200000A00EA18031027020080
:1019E000FE1803102702000219031027020006192F
:1019F00003102702000A1903102702000E19031012
:101A00002702001219526571756573745061757300
:101A1000653A0055495F414354494F4E5F53455421
:101A20005F4D454153555245445F4F524947494EDA
:101A30002000454550524F4D2075706461746564B7
:101A4000005072696E746572206865696768743ADF
:101A500000058813040016192F2F20616374696F25
:101A60006E3A706175736500696D706F7274616E46
:101A7000743A2046696C616D656E74206368616EAE
:101A8000676520726571756972656421004A616DD0
:101A900020636F6E74726F6C2064697361626C6531
:101AA000643A000200000E001E1902000003003A12
:101AB000190200000C00401903FC0304005819032C
:101AC000FB030400601903FA030400681903EF0321
:101AD0000400701903EE030400781903ED030400F9
:101AE0008019020000060088190100000100941905
:101AF0000310270200961903102702009A1955496E
:101B00005F414354494F4E5F484F4D455F5A200057
:101B100055495F414354494F4E5F484F4D455F59CA
:101B2000200055495F414354494F4E5F484F4D4552
:101B30005F58200055495F414354494F4E5F484F1D
:101B40004D45414C4C2000456E6453746F703A25EE
:101B5000647000536574205A206F66667365743A2A
:101B60002554326D6D005365742059206F6666737D
:101B700065743A2554316D6D005365742058206F9B
:101B800066667365743A2554306D6D005365742034
:101B90007072696E74206F666673657473005A2D77
:101BA00070726F6265206865696768743A257A6843
:101BB00000254433203320636F706965730025442A
:101BC00032203220636F7069657300254431203103
:101BD00020636F707900254430204E6F20636F7052
:101BE000696573002558352053656C6563742065FD
:101BF0007874722E2036002558342053656C656346
:101C00007420657874722E20350025583320536572
:101C10006C65637420657874722E2034005475727C
:101C20006E20657874722E2036206F6666005475BB
:101C3000726E20657874722E2035206F66660054AF
:101C400075726E20657874722E2034206F6666007F
:101C500054656D702E2036203A2565352F25453583
:101C600002430054656D702E2035203A2565342FCF
:101C700025453402430054656D702E2034203A25EA
:101C800065332F254533024300202542436D6D0007
:101C9000052565630200052565632F254563020060
:101CA00000256F7300255566206D207072696E7473
:101CB000656400255566206D0025557400583A2549
:101CC000783020593A257831004D756C3A20256FCF
:101CD0006D202020453A257834005A3A2578322064
:101CE00020427566203A20256F4200422565422F2A
:101CF0002545620200052565632F254563024225BF
:101D000065422F2545620200256F73004275663AD1
:101D100020256F42004D756C3A20256F6D252525D5
:101D200020FD202020453A202578346D00466C6F38
:101D3000773AFD20256F662525252020205A3A2553
:101D40007832002020202020202020202020202049
:101D5000593A257831000A202565302F254530B0C5
:101D600020583A257830004C616E677561676500D0
:101D7000437573746F6D3A2542436D6D00437573FF
:101D8000746F6D00476C756520737469636B0047F1
:101D90007265656E20504554207461706500426C18
:101DA00075652070617065722074617065004B61AB
:101DB00070746F6E004275696C6454616B004E6F95
:101DC00020636F6174696E67000042656420636F11
:101DD0006174696E672073657420746F0042656476
:101DE00020636F6174696E67005374616E64627919
:101DF000004578747275646572206A616D0074655F
:101E00006D706572617475726573202E2E2E005789
:101E100061697420666F7220746172676574006511
:101E200078747275646572732E00436C69636B20FD
:101E3000746F207265686561740049676E6F7265C2
:101E4000204D31303620636D64202546690053658E
:101E500072766F20706F732E3A20256F5300417594
:101E6000746F6C6576656C3A20256C6C00436C6908
:101E7000636B207768656E20646F6E650066696CC1
:101E8000616D656E742075702F646F776E00526F90
:101E90007461746520746F206D6F766500436861AE
:101EA0006E67652066696C616D656E74004368617C
:101EB0006E67652066696C616D656E74005A20629C
:101EC000616279737465702E3A256F596D6D005398
:101ED000746F70205072696E7400536C6F7742613A
:101EE0006E6700446561642074696D6500415458F3
:101EF00020706F776572206F6E2F6F66660070724C
:101F0000696E7465640046696C616D656E742070FD
:101F100072696E746564005072696E74696E6720D0
:101F200074696D6500003A00206461797320005087
:101F300072696E7465722072656164792E00534413
:101F4000206361726420696E736572746564005306
:101F50004420636172642072656D6F76656400571A
:101F600061697420726574722E3A255855206D6D22
:101F700000576169742074656D702E2025585402D5
:101F800043004C6576656C2064656C746100436148
:101F90006C63756C617465206C6576656C696E67E1
:101FA0000053657420503300536574205032005341
:101FB0006574205031005A2063616C69622E0053B1
:101FC0006574205A3D30005265736574206D6561FB
:101FD000732E0053686F77206D6561732E00466C19
:101FE0006F77206D756C2E203A256F6625252500AC
:101FF0005370656564206D756C2E3A256F6D2525CF
:10200000250020423A2565622F25456202437E2540
:102010006F620045333A2565322F25453202437EF3
:10202000256F320045323A2565312F25453102436F
:102030007E256F310045313A2565302F2545300228
:10204000437E256F300020453A2565632F25456383
:1020500002437E256F43004275666665723A256FBE
:10206000420055706C6F6164696E672E2E2E006C95
:102070006F6164656420662E20454550524F4D00C7
:10208000436F6E66696775726174696F6E00737411
:102090006F72656420696E20454550524F4D004374
:1020A0006F6E66696775726174696F6E00537465EF
:1020B000707065722064697361626C6564004B695D
:1020C0006C6C65640048656174696E672062656464
:1020D0000048656174696E6720657874727564651F
:1020E0007200416374696F6E3A256C610050494417
:1020F0000042616E6742616E6700592D4F666673DC
:1021000065743A25587900582D4F66667365743AA0
:1021100025587800504944204D61783A25584400AC
:102120004472697665204D61783A25584D004472B5
:10213000697665204D696E3A25586D0050494420F6
:10214000443A2558640050494420493A25586900CA
:10215000436F6E74726F6C2050574D3A25584D0086
:102160004465616474696D653A255870005049444E
:1021700020503A25587000436F6E74726F6C3A2588
:10218000586800416476616E636520717561643AD8
:1021900025586100416476616E6365206C696E3A12
:1021A00025586C00537461622E54696D653A255848
:1021B0007700416363656C3A255841004D61782092
:1021C00046523A2558460053746172742046523A7A
:1021D0002558660053746570732F4D4D3A2553652D
:1021E0000042617564726174653A256F63004765EA
:1021F0006E6572616C005B6D696E5D20303D4F668F
:1022000066004469732E2061667465723A20256900
:1022100070004D61782E20696E6163746976650087
:102220005B6D696E5D20303D4F6666004469732EBC
:102230002061667465723A20256973005374657075
:1022400070657220696E61637469766500536574A8
:102250002066616E2066756C6C0053657420666143
:102260006E203735252525005365742066616E2064
:102270003530252525005365742066616E20323582
:10228000252525005475726E2066616E204F6666A6
:102290000046616E2073706565643A254673252596
:1022A000250046616E207370656564004D696E3A65
:1022B00025737A204D61783A25735A005A3A257869
:1022C00032206D6D004D696E3A257379204D61782D
:1022D0003A25735900593A257831206D6D004D69C2
:1022E0006E3A257378204D61783A25735800583A34
:1022F000257830206D6D004D696E3A25737A204D3A
:1023000061783A25735A005A3A257832206D6D006B
:102310004D696E3A257379204D61783A25735900DD
:10232000593A257831206D6D004D696E3A257378E4
:10233000204D61783A25735800583A257830206D41
:102340006D003120636C69636B203D2031206D6D21
:1023500000453A257833206D6D00004D6178206589
:102360006E6473746F703A25735A004D696E206500
:102370006E6473746F703A25737A005A3A25783216
:10238000206D6D00004D617820656E6473746F7010
:102390003A257359004D696E20656E6473746F70D1
:1023A0003A25737900593A257831206D6D00004D3A
:1023B000617820656E6473746F703A257358004DB0
:1023C000696E20656E6473746F703A257378005877
:1023D0003A257830206D6D00004D617820656E647F
:1023E00073746F703A25735A004D696E20656E6480
:1023F00073746F703A25737A005A3A257832206DDB
:102400006D2025647A25645A00004D617820656E40
:102410006473746F703A257359004D696E20656E50
:102420006473746F703A25737900593A25783120B6
:102430006D6D2025647925645900004D6178206513
:102440006E6473746F703A257358004D696E206521
:102450006E6473746F703A25737800583A2578303B
:10246000206D6D2025647825645800486F6D653AAD
:1024700025665A00486F6D65205A3A25665A00480D
:102480006F6D6520593A25665900486F6D65205873
:102490003A256658004D61783A25667A004D617894
:1024A000205A3A25667A004D617820593A25667996
:1024B000004D617820583A2566780046656564725B
:1024C0006174650044656C6574652066696C6500BF
:1024D0004D6F756E74206361726400556E6D6F751B
:1024E0006E74206361726400436F6E74696E75650B
:1024F000207072696E740050617573652070726926
:102500006E74005072696E742066696C6500416E6D
:102510007469206F6F7A65004D6F7665206166740F
:1025200065723A254F61004D696E2E64697374209F
:10253000203A254F64004261636B736C2E2020208B
:102540003A254F6200526574726163742020203A0C
:10255000254F7200254F32204F505320666173740F
:1025600000254F31204F505320636C6173736963B2
:1025700000254F30204F5053206F6666004472791B
:102580002072756E3A256464004572726F72732012
:102590003A25646500496E666F2020203A256469FB
:1025A000004563686F2020203A25646F004C6F61FE
:1025B0006420662E20454550524F4D0053746F7273
:1025C0006520746F20454550524F4D00416363654F
:1025D0006C65726174696F6E005A2D4A65726B206A
:1025E0003A25614A004A65726B2020203A25616ACB
:1025F000004D6F76653A25615A004D6F7665205A19
:10260000203A25615A004D6F76652059203A2561A0
:1026100059004D6F76652058203A25615800507258
:10262000696E743A25617A005072696E74205A3A64
:1026300025617A005072696E7420593A25617900DB
:102640005072696E7420583A256178005365742081
:102650004F726967696E002558322053656C656357
:102660007420657874722E2033002558312053650C
:102670006C65637420657874722E203200255830A2
:102680002053656C65637420657874722E20310068
:102690005475726E20657874722E2033206F6666D2
:1026A000005475726E20657874722E2032206F6629
:1026B00066005475726E20657874722E2031206F1A
:1026C00066660054656D702E2033203A2565322FE2
:1026D00025453202430054656D702E2032203A2584
:1026E00065312F25453102430054656D702E203130
:1026F000203A2565302F254530024300426564208D
:1027000074656D703A2565622F2545620243004568
:102710007874722E20706F736974696F6E005A201E
:10272000706F732E2066617374005A20706F736926
:1027300074696F6E005920706F732E206661737418
:10274000005920706F736974696F6E005820706F44
:10275000732E2066617374005820706F73697469FA
:102760006F6E0044697361626C652073746570708C
:1027700065720053657420746F206F726967696EAB
:1027800000436F6F6C646F776E004C696768747399
:102790003A256C6F00507265686561742041425340
:1027A000005072656865617420504C4100486F6D3F
:1027B00065205A00486F6D65205900486F6D65208F
:1027C0005800486F6D6520616C6C00486F6D652026
:1027D00064656C746100446562756767696E670063
:1027E0005344206361726400457874727564657245
:1027F00000506F736974696F6E00436F6E6669672E
:1028000075726174696F6E00256F6500517569633B
:102810006B2073657474696E6773004261636B202B
:1028200001002A2A2A2A204552524F52202A2A2AB7
:102830002A004E6F20534420636172640049646C27
:1028400065005072696E74696E67005072696E74CB
:10285000696E672E2E2E004E6F00596573004E2F45
:1028600041004F6666004F6E00662862285E285A57
:102870002857284B2842283D28322822281B280C7C
:10288000280828FA27F127E827E027D627CB27C2F0
:1028900027BB27B427AD27A12795278A2781277330
:1028A00027632758274C27412735272A271E270F1C
:1028B00027FC26E926D626C326B226A12690267D09
:1028C000266A2657264C264026342628261E2612FF
:1028D000260626FA25F125E525D925CC25BC25ADEA
:1028E00025A125952589257D257125612554254519
:1028F000253625272518250E250325F724E824DB72
:1029000024D024C424BB24B124A7249D2495248A44
:10291000247F2474246B245B244B243B243A242AF4
:10292000241A240A240924F923E923D923D823CFFC
:1029300023BF23AF23AE23A5239523852384237BA5
:10294000236B235B235A235123422339232923203A
:102950002310230723F722EE22DE22D522C522BC34
:1029600022AC22A22291228422762268225A224D6F
:10297000223C222C22202212220222F621EE21E1E8
:1029800021D421C721BC21B221A421942183217704
:10299000216D216021502146213C212E212021142E
:1029A000210721FA20F120ED20E220D120C520BE10
:1029B00020AD209F208E2080206F2062205720464F
:1029C000203520242013200220F01FDE1FD31FC734
:1029D0001FBF1FB61FAF1FA81FA11F8E1F821F7111
:1029E0001F5F1F4F1F3E1F2F1F281F261F251F174A
:1029F0001F061FFE1EED1EE31EDA1ECF1EBD1EADFE
:102A00001E9D1E8E1E7D1E6D1E5E1E4E1E3A1E2AB1
:102A10001E1F1E0F1EFE1DF11DE91DDD1DCA1DC955
:102A20001DBE1DB51DAE1D9E1D8F1D841D7D1D70FF
:102A30001D671D561D431D2D1D151D0C1D081DF563
:102A40001CEB1CDA1CC91CBD1CB91CB31CA51CA1A9
:102A50001CA01C961C901C891C761C631C501C3FDF
:102A60001C2E1C1D1C0A1CF71BE41BD61BCB1BBEFB
:102A70001BB11B9E1B8C1B791B661B531B471B6FBB
:102A80001300FF69280000000000000000000000A3
:102A9000000000000000000000000002536F667498
:102AA000776172652052657365740057617463685D
:102AB000646F672052657365740042726F776E2091
:102AC0006F75742052657365740045787465726E15
:102AD000616C20526573657400506F776572557034
:102AE00000486F6D65206D616465004D50434E4335
:102AF000004D616368696E653A0056657220302E3C
:102B000039322E39005265706574696572000000B3
:102B100000000000000000000000000000000000B5
:102B200001FFFF0000000000078000FFFE00000022
:102B30003800000007800000C3E1F07F0FC00007ED
:102B40001F87C1FC3FC00038FFFFFFF0FE4001C3FC
:102B5000FFFFFFC1FC400F0000000007F0403FFFF7
:102B6000FF80001FE0403FFFFFFFFFFF80403FFF6F
:102B7000FFFFFFFF00403FFFFFFFFFFE0040300070
:102B80000001FFFC04403000000000FC0C4030005D
:102B9000000000381C403000000000383E4030008B
:102BA000000000387E4030FFFF800038FE4030FFDC
:102BB000FFF80038FE4030FFFFFE0038E64030FFEF
:102BC000FFFF0038E64030FFFFFF8038C64030FF8F
:102BD000FFFF8038C64030FFBFFF8038C44030FF61
:102BE00080FFC038C44030FF80FFC038C44030FF91
:102BF000807FC038CC4030FF807FC038FC4030FF41
:102C0000807FC038F84030FF80FFC038F84030FF88
:102C1000FFFFC038F04030FFFFFF8038E04030FF5A
:102C2000FFFF8038E04030FFFFFF0038C04030FF3A
:102C3000FFFE0038C04030FFFFF00038C04030FFDA
:102C40009FF00038C04030FF8FFC0038C04030FF9C
:102C500087FC0038C04030FF87FE0038C04030FF9E
:102C600083FF0038C08030FF83FF0038C08030FF12
:102C700081FF8038C10030FF81FF8038C20030FF03
:102C800080FFC038820030FF80FFC038840030FFF2
:102C9000807FE0380800307F807FE0380800300F08
:102CA000803FE03810003000003FF038100038005E
:102CB0000003F038200038000000003840003C00DD
:102CC0000000003840003FF80000003980003FFF5E
:102CD000F800003D000000FFFFF8007F0000000743
:102CE000FFFFF87E0000000007FFFFFC000000006F
:102CF0000003FFF80000000000000DF800000000D5
:102D000000000000000000000000000000007A4405
:102D10006973746F7274696F6E436F7272656374F6
:102D2000696F6E3A00467265652052414D3A0082E5
:102D3000000001007F2A4E65656473206C616E6738
:102D4000756167652073656C656374696F6E007388
:102D5000746172740001060C00FE03022903630013
:102D6000FF000AFE0800025767A80088008800A834
:102D7000025767F088E8A8E888F002576770A8F85B
:102D8000A8F8A8700257677088080808887012456C
:102D9000656090109060015868708880808878081D
:102DA0000802576720202020A87020026767F8FCDF
:102DB000FC9CFCFCF802576770F8F8A8F8F870FF64
:102DC000FFFFFFFFFFFF0355652040F8402002573B
:102DD000672070A8202020200355652010F81020BF
:102DE00002576720202020A8702004536350F85019
:102DF0000257672070A820A87020025969C0F0E02F
:102E0000A02010100808025969187838282040407E
:102E10008080025969808040402028387818025903
:102E2000690808101020A0E0F0C00365652848FC80
:102E300050300365653028FC4850046363C0D86493
:102E40000463630C6C980365652850FC5028025895
:102E5000682070A870A82020200365655028FC28F1
:102E600050025868202020A870A8702003656524AF
:102E700048F0482403656590483C48900355652810
:102E800048F848280257672070A8202020F80355EA
:102E900065A090F890A0025767F8202020A8702025
:102EA0000257672070A820A870F80365652844F8C9
:102EB000402003656550887C0810036565204CFC44
:102EC000482803656510C8FC485003646448DCEC7E
:102ED000480365650858FC68400257678090B0D089
:102EE0009038100258682040F8482808080802580E
:102EF000682010F890A08080800258680808082890
:102F000048F840200257678080A090F810200354B2
:102F100064F0103810035565080848F840035565FB
:102F2000304848E848035565609090B810025868EA
:102F3000F880E0C0A0201010025969A0C0F8C0A815
:102F400018F818280256663830A888887002566625
:102F5000E060A88888700553632040F8035363F845
:102F6000402022386880C0A080808080800238683D
:102F70002060A020202020200553632010F8035358
:102F800063F810202238688080808080A0C0800292
:102F900038682020202020A060200259692010F8E5
:102FA000102040F8402002586850F050505050789F
:102FB000500259692040F8402010F8102002596949
:102FC0002040F8402040F8402002586850F8505007
:102FD000505050500259692010F8102010F810205D
:102FE000025868505050505050F8500257672040D7
:102FF000F800F810200257672010F800F84020026F
:10300000676714287C907C20500267670858FCA4EE
:10301000FC6840026767A050F824F8102803556543
:1030200020788078200257672050D85050505003A5
:10303000556520F008F02002576750505050D85086
:103040002003656548FC84FC480258682050D8502D
:1030500050D85020026666F8A0D0A8940802666690
:103060007C142C54A44002666640A4542C147C02A8
:1030700066660894A8D0A0F8026767103C40FC4040
:103080003C1002676720F008FC08F02003646440ED
:10309000E8D440036464085CAC080258682070A857
:1030A00020702070200258682070207020A87020A6
:1030B0000365652040D440200258682070882000B5
:1030C0002000200365651008AC0810025868200035
:1030D000200020887020035565A0C0F8C0A00355CB
:1030E000652818F818280355652078887820025834
:1030F000682050D8505050507003556520F088F02B
:10310000200258687050505050D850200259692001
:1031100050D85070007050700259692050D85050EB
:1031200050D888F80259692050F8885050D888F84B
:103130000259692070F8707070F8A8F80259692077
:1031400050D850D8505050700259692050D850D89B
:1031500050D888F8035565A0F088F0A0025868F8A8
:1031600080B0A09010080802586880804048286805
:1031700008F80258682050D85050D8502003656590
:103180001068FC6810025868507850505050F05049
:1031900002596910F81010F81010F810036565282E
:1031A00048FC48280365655048FC48500365653075
:1031B00078FC78300365653858FC583803656570CD
:1031C00068FC68700365653078FC783003556520CD
:1031D00060B860200355652030E830200365653015
:1031E00078B47830066666FCFCFCFCFCFC0062628D
:1031F000FCFC006363FCFCFC006565FCFCFCFCFC67
:10320000006666FCFCFCFCFCFC006868FCFCFCFC4A
:10321000FCFCFCFC006969FCFCFCFCFCFCFCFCFC10
:10322000006B6BFCFCFCFCFCFCFCFCFCFCFC006C88
:103230006CFCFCFCFCFCFCFCFCFCFCFCFC005C6C8A
:10324000F8F8F8F8F8F8F8F8F8F8F8F8004C6CF036
:10325000F0F0F0F0F0F0F0F0F0F0F0004C6CF0F086
:10326000F0F0F0F0F0F0F0F0F0F0003C6CE0E0E0B6
:10327000E0E0E0E0E0E0E0E0E0002C6CC0C0C0C0D6
:10328000C0C0C0C0C0C0C0C0002C6CC0C0C0C0C0E6
:10329000C0C0C0C0C0C0C0001C6C80808080808066
:1032A000808080808080303C6CE0E0E0E0E0E0E026
:1032B000E0E0E0E0E0016B6BA8005400A8005400DF
:1032C000A80054006C6CA854A854A854A854A8543E
:1032D000A854006C6C54FCA8FC54FCA8FC54FCA83A
:1032E000FC0A6262FCFC501C6C80808080808080C4
:1032F0008080808080003666E0E0E0E0E0E030360C
:1033000066E0E0E0E0E0E0063666E0E0E0E0E0E035
:10331000006C6CE0E0E0E0E0E0FCFCFCFCFCFC00AD
:103320006C6CE0E0E0E0E0E01C1C1C1C1C1C006C71
:103330006CFCFCFCFCFCFCE0E0E0E0E0E0006C6C21
:10334000FCFCFCFCFCFC1C1C1C1C1C1C363666E03B
:10335000E0E0E0E0E0006C6C1C1C1C1C1C1CE0E0CD
:10336000E0E0E0E0006C6C1C1C1C1C1C1CFCFCFC69
:10337000FCFCFC025565F8F8F8F8F8025565F88889
:103380008888F80255657088888870025565F888C5
:10339000A888F8025565F888F888F8025565F8A8F5
:1033A000A8A8F8025565F8A8F8A8F8025565F8C865
:1033B000A898F8025565F898A8C8F8025565F8D895
:1033C000A8D8F8143363E0E0E0143363E0A0E0032E
:1033D0006565FCFCFCFCFC036565FC848484FC11D5
:1033E0004A6AF0F0F0F0F0F0F0F0F0F0114A6AF014
:1033F0009090909090909090F00463633C78F004EB
:1034000063633C48F002576720207070F8F8F802B8
:103410005767202050508888F80355652020707029
:10342000F803556520205050F812476780C0E0F03F
:10343000E0C08012476780C0A090A0C080133565AF
:1034400080C0E0C08013356580C0A0C08003656582
:10345000C0F0FCF0C0036565C0B08CB0C002576717
:10346000F8F8F870702020025767F88888505020CC
:1034700020025565F870702020025565F8505020E4
:1034800020124767103070F070301012476710300C
:1034900050905030101335652060E0602013356582
:1034A0002060A060200365650C3CFC3C0C03656556
:1034B0000C34C4340C0355652070F8702003556536
:1034C00020508850200355652050A8502002666681
:1034D0003048B4B4483002576720505088505020CC
:1034E000026666304884844830026666200880049C
:1034F000401002556570A8A8A8700257677088A888
:10350000D8A888700266663078FCFC78300266665F
:103510003068E4E4683002666630589C9C5830029B
:103520006666304884FC78300266663078FC8448F1
:103530003002666630589C8448300266663068E423
:1035400084483012596908387878F8787838080251
:10355000596980E0F0F0F8F0F0E080006C6CFCFC61
:10356000FCFCCC8484CCFCFCFCFC006C6CFCFCFC07
:10357000CCB47878B4CCFCFCFC066666FCFCFCCCD5
:10358000B47800666678B4CCFCFCFC05336320405C
:1035900080353363804020323363204080023363C0
:1035A00080402005636330488402636384483002AE
:1035B000556508183878F802556580C0E0F0F802C3
:1035C0005565F8F0E0C080025565F87838180802B3
:1035D00055657088888870025565F8E8E8E8F80253
:1035E0005565F8B8B8B8F8025565F8F8E8C8F802B3
:1035F0005565F898B8F8F8025565F8A8A8A8F80233
:10360000576720205070A888F802576720207070F4
:10361000E8E8F802576720207070B8B8F8026767CA
:1036200030488484844830025565F8A8E888F80258
:103630005565F888E8A8F8025565F888B8A8F80232
:103640005565F8A8B888F802556570A8E888700232
:1036500055657088E8A8700255657088B8A8700232
:10366000556570A8B88870035565F890A0C08003B0
:103670005565F84828180803556580C0A090F814CF
:103680004464F09090F0134464F0F0F0F01444645B
:10369000F09090F0144464F0F0F0F00355650818D1
:1036A0002848F800000000000000F10000000000C1
:1036B000000000C40000000000000000F000000056
:1036C0000000000000C30000000000000000EA004D
:1036D00000000000000000E9000000000000000001
:1036E000E80000000000000000E70000000000000B
:1036F0000000E60000000000000000E500BE36B556
:1037000036AC36A336F436EB36E236D936D036C789
:10371000360000000400FD360000000600053757A3
:10372000726F6E6720636865636B73756D00183721
:10373000113700070A00FE07026903FB00FFFE08BD
:10374000FE07FE050707060000A80088008800A8FD
:103750000508080600000808082848F84020030368
:103760000306010440A040050505060000F8F8F82E
:10377000F8F8050505060000F8888888F8050808A7
:103780000600002050505070F8F870070505090039
:10379000001CFE8282FE0508080600008850208872
:1037A00020508888060808060000489048FCFC78ED
:1037B0003030060808060000244824FCFC7830302D
:1037C000060505060000FCFC783030060202060003
:1037D00000FCFC06060606000048904890FCFC062B
:1037E000060606000024482448FCFC0707070700DB
:1037F0000082443828384482070707070000101069
:1038000038EE381010FFFFFFFFFFFFFFFFFFFFFF45
:10381000FFFFFFFFFF0000000605FF01070706028C
:103820000080808080800080030303060104A0A044
:10383000A00507070600005050F850F85050050743
:10384000070600002070A0702870200608080600F7
:103850000044A4481020489488050707060000404B
:10386000A0A040A8906801030306020480808003A2
:1038700007070601002040808080402003070706DC
:1038800001008040202020408005050506000188B9
:1038900050F850880505050600012020F820200377
:1038A00003030601FF604080040101060103F002EA
:1038B00002020601FFC0C005070706000008081045
:1038C0002040808005070706000020508888885027
:1038D000200507070600002060A0202020F805072B
:1038E00007060000708808304080F80507070600CA
:1038F00000F808103008887005070706000010302F
:103900005090F81010050707060000F880B0C808AE
:103910008870050707060000304080B0C888700531
:103920000707060000F808101020404005070706AA
:10393000000070888870888870050707060000708E
:10394000889868081060020505060201C0C000C022
:10395000C00307070601FF40E04000604080040705
:1039600007060100102040804020100503030600D8
:1039700002F800F8040707060100804020102040EC
:10398000800507070600007088102020002005072A
:1039900007060000708898A8B08070050707060029
:1039A0000020508888F88888050707060000F0483E
:1039B00048704848F005070706000070888080803E
:1039C0008870050707060000F04848484848F00599
:1039D0000707060000F88080F08080F805070706DA
:1039E0000000F88080F080808005070706000070E6
:1039F000888080988870050707060000888888F806
:103A0000888888030707060100E04040404040E006
:103A10000507070600003810101010906005070712
:103A20000600008890A0C0A0908805070706000047
:103A3000808080808080F80507070600008888D88D
:103A4000A88888880507070600008888C8A898887D
:103A50008805070706000070888888888870050731
:103A600007060000F08888F08080800508080600BE
:103A7000FF7088888888A87008050707060000F08E
:103A80008888F0A09088050707060000708880707D
:103A9000088870050707060000F820202020202055
:103AA000050707060000888888888888700507074A
:103AB000060000888888505050200507070600003F
:103AC000888888A8A8D88805070706000088885035
:103AD000205088880507070600008888502020208D
:103AE00020050707060000F80810204080F80307AB
:103AF00007060100E08080808080E005070706005F
:103B00000080804020100808030707060100E0201D
:103B100020202020E0050303060004205088050132
:103B2000010600FFF80202020602068040050505B4
:103B30000600007008788878050707060000808076
:103B4000B0C888C8B0050505060000708880887078
:103B500005070706000008086898889868050505A5
:103B60000600007088F880700507070600003048DE
:103B700040F04040400507070600FE788888780836
:103B800088700507070600008080B0C88888880311
:103B900007070601004000C0404040E00409090654
:103BA00001FE10003010101090906005070706000D
:103BB0000080808890E09088030707060100C040DD
:103BC00040404040E0050505060000D0A8A8A888B0
:103BD000050505060000B0C88888880505050600AB
:103BE0000070888888700507070600FEB0C888C87E
:103BF000B080800507070600FE6898889868080866
:103C0000050505060000B0C8808080050505060092
:103C10000070807008F00507070600004040F04083
:103C20004048300505050600008888889868050525
:103C3000050600008888505020050505060000880C
:103C400088A8A85005050506000088502050880562
:103C500007070600FE88889868088870050505062D
:103C60000000F8102040F80407070601003040204B
:103C7000C0204030010707060200808080808080DD
:103C800080040707060100C02040304020C0050323
:103C90000306000448A890FFFFFFFFFFFFFFFFFFA0
:103CA000FFFFFFFFFFFFFFFFFFFFFFFFFFFFFFFF24
:103CB000FFFFFFFFFFFFFFFFFF0107070602008076
:103CC0000080808080800507070600FF2078A0A084
:103CD000A07820050707060000304840E04048B0C3
:103CE0000505050600008870507088050808060064
:103CF000FF88885020F82020200107070602008056
:103D00008080008080800508080600FF7080E090B9
:103D100048380870030101060107A00507070600DF
:103D2000007088A8C8A88870040606060101709073
:103D3000B05000F006050506000024489048240411
:103D40000202060102F010FF050707060000708856
:103D5000E8C8C88870050101060007F803030306D8
:103D6000010440A0400506060600002020F820209F
:103D7000F804050506010360902040F004050506DF
:103D80000103E0106010E00202020602064080FF1C
:103D900005070706000078E8E868282828010101DF
:103DA000060203800202020602FE408003050506A9
:103DB000010340C04040E004060606010160909007
:103DC0006000F006050506000090482448900609AA
:103DD000090600FF40C04040E40C143C04060909F9
:103DE0000600FF40C04040E81404081C050909060D
:103DF00000FFC0204020C8182878080507070600E3
:103E0000002000202040887005080806000040209F
:103E1000708888F8888805080806000010207088D7
:103E200088F888880508080600002050708888F8FF
:103E3000888805080806000048B0708888F88888D7
:103E40000508080600005000708888F88888050872
:103E5000080600002050708888F888880607070642
:103E600000003C50909CF0909C0509090600FE70F3
:103E7000888080808870204005080806000040F88F
:103E80008080F08080F805080806000010F8808027
:103E9000F08080F805080806000020F88080F08097
:103EA00080F805080806000050F88080F08080F84F
:103EB0000308080601008040E040404040E003085D
:103EC000080601002040E040404040E003080806AA
:103ED000010040A0E040404040E003080806010027
:103EE000A000E040404040E0050707060000F04821
:103EF00048E84848F0050808060000285088C8A887
:103F000098888805080806000040207088888888FE
:103F100070050808060000102070888888887005E1
:103F200008080600002050708888888870050808F6
:103F300006000028507088888888700508080600E8
:103F40000050007088888888700505050600008884
:103F500050205088050707060000709898A8C8C828
:103F60007005080806000040208888888888700549
:103F700008080600001020888888888870050808CE
:103F80000600002050008888888870050808060010
:103F9000005000888888888870050808060000108E
:103FA0002088885020202005070706000080F08820
:103FB000F0808080050707060000708890A0908838
:103FC000B0050808060000402000700878887805D1
:103FD0000808060000102000700878887805080896
:103FE0000600002050007008788878050808060050
:103FF00000285000700878887805070706000050F0
:1040000000700878887805080806000020502070A5
:104010000878887806050506000078147C907C05F1
:1040200007070600FE708880887020400508080693
:1040300000004020007088F8807005080806000025
:104040001020007088F880700508080600002050D5
:10405000007088F88070050707060000500070881F
:10406000F88070030808060100804000C04040400E
:10407000E0030808060100408000C0404040E00323
:10408000080806010040A000C0404040E0030707C8
:10409000060100A000C0404040E005070706000000
:1040A000C030708888887005080806000028500015
:1040B000B0C888888805080806000040200070887D
:1040C000888870050808060000102000708888881D
:1040D0007005080806000020500070888888700568
:1040E00008080600002850007088888870050707B7
:1040F00006000050007088888870050505060001DC
:104100002000F800200505050600007898A8C8F0F2
:10411000050808060000402000888888986805087F
:10412000080600001020008888889868050808069E
:10413000000020500088888898680507070600005E
:10414000500088888898680509090600FE102088B4
:104150008898680888700508080600FE80F088883E
:1041600088F080800509090600FE5000888898685C
:1041700008887000050700FF06024803BA00FFFF29
:1041800008FF06FF050505050000A8008800A80532
:1041900008080600000808082848F8402003030320
:1041A00006010440A040050505060000F8F8F8F8EF
:1041B000F8050505060000F8888888F8050808064F
:1041C00000002050505070F8F870070505090000F5
:1041D0001CFE8282FE050808060000885020882008
:1041E000508888060808060000489048FCFC783093
:1041F00030060808060000244824FCFC783030060D
:104200000505060000FCFC783030060202060000BE
:10421000FCFC06060606000048904890FCFC0606DA
:104220000606000024482448FCFC07070707000096
:1042300082443828384482070707070000101038E6
:10424000EE381010FFFFFFFFFFFFFFFFFFFFFFFF34
:10425000FFFFFFFF00000005040001060605020045
:10426000808080800080030303050103A0A0A005D7
:10427000050505000050F850F8500505050500003B
:1042800070A0702870040606050000809020409001
:104290001004050505000040A040A05001030305DF
:1042A0000203808080020606050100408080808035
:1042B000400206060501008040404040800305059D
:1042C000050100A040E040A00505050500002020F4
:1042D000F820200303030501FF604080040101056D
:1042E0000002F0020202050100C0C004040405003F
:1042F000011020408003060605010040A0A0A0A0F8
:104300004003060605010040C0404040E0040606A8
:104310000500006090102040F0040606050000F043
:1043200010601090600406060500002060A0F020D8
:1043300020040606050000F080E0109060040606E8
:104340000500006080E0909060040606050000F023
:104350001020204040040606050000609060909008
:10436000600406060500006090907010600205056C
:10437000050100C0C000C0C00306060500FF606064
:1043800000604080030505050100204080402004B6
:104390000303050001F000F003050505010080405E
:1043A00020408003060605010040A0204000400494
:1043B00006060500006090B0B080600406060500A7
:1043C00000609090F09090040606050000E090E0F8
:1043D0009090E004060605000060908080906004E4
:1043E0000606050000E090909090E00406060500A7
:1043F00000F080E08080F0040606050000F080E018
:10440000808080040606050000609080B0907004F3
:1044100006060500009090F09090900306060501B6
:1044200000E040404040E004060605000010101087
:1044300010906004060605000090A0C0C0A0900483
:1044400006060500008080808080F00406060500D6
:104450000090F0F090909004060605000090D0D0F7
:10446000B0B0900406060500006090909090600443
:104470000606050000E09090E08080040707050034
:10448000FF60909090D06010040606050000E09058
:1044900090E0A09004060605000060904020906027
:1044A000030606050100E0404040404004060605C2
:1044B0000000909090909060040606050000909097
:1044C00090906060040606050000909090F0F090D7
:1044D00004060605000090906060909003060605B3
:1044E0000100A0A0A0404040040606050000F01016
:1044F000204080F0030606050100E080808080E017
:104500000404040500018040201003060605010094
:10451000E020202020E003020205010440A0040165
:1045200001050000F00202020501048040040404B9
:104530000500007090B0500406060500008080E081
:104540009090E0030404050000608080600406068B
:1045500005000010107090907004040405000060C5
:10456000B0C060040606050000205040E040400452
:1045700005050500FF7090608070040606050000C8
:104580008080E09090900306060501004000C04046
:1045900040E00307070501FF2000202020A0400481
:1045A00006060500008080A0C0A090030606050155
:1045B00000C040404040E0040404050000A0F0902A
:1045C00090040404050000E09090900404040500A9
:1045D00000609090600405050500FFE09090E08089
:1045E0000405050500FF7090907010040404050098
:1045F00000E090808004040405000070C030E004F6
:1046000006060500004040E0404030040404050078
:104610000090909070030404050100A0A0A0400445
:1046200004040500009090F0F004040405000090DC
:104630006060900405050500FF9090502040040440
:1046400004050000F02040F00306060501002040AC
:10465000C0404020010606050200808080808080E6
:104660000306060501008040604040800402020508
:10467000000450A0FFFFFFFFFFFFFFFFFFFFFFFF52
:10468000FFFFFFFFFFFFFFFFFFFFFFFFFFFFFFFF3A
:10469000FFFFFFFFFF000000050400010606050202
:1046A000008000808080800406060500FF2070A046
:1046B000A070200405050500003040E040B005056D
:1046C000050500008870507088030606050100A0EB
:1046D000A040E04040010505050200808000808088
:1046E0000307070501FF6080C0A06020C00301012F
:1046F000050105A00507070500FF7088A8C8A88860
:104700007003030305000360A060050303050001B7
:10471000489048040202050001F010030101050160
:1047200002E00507070500FF7088E8C8C888700424
:104730000101050005F003030305010340A0400546
:1047400006060500002020F82020F80204040501D8
:1047500002C04080C0020404050102C0C040C00283
:10476000020205010440800405050500FF909090B9
:10477000E08004060605000070D0D05050500202C0
:1047800002050102C0C00202020501FF40800304CD
:104790000405010240C040E003030305000340A0FC
:1047A000400503030500019048900407070500FF3A
:1047B000808080903070100407070500FF808080A3
:1047C000B01020300407070500FFC0C040D0307093
:1047D0001003060605010040004080A040040606C4
:1047E000050000609090F0909004060605000060BF
:1047F0009090F09090040606050000609090F09074
:1048000090040606050000609090F0909004060663
:10481000050000906090F09090040606050000608E
:104820006090F0909004060605000070A0B0E0A033
:10483000B00407070500FF60908080906040040688
:1048400006050000F080E08080F004060605000008
:10485000F080E08080F0040606050000F080E08033
:1048600080F0040606050000F080E08080F003067A
:1048700006050100E040404040E003060605010057
:10488000E040404040E0030606050100E0404040B3
:1048900040E0030606050100E040404040E0040619
:1048A00006050000E050D05050E004060605000068
:1048B000B090D0B0B09004060605000060909090D3
:1048C00090600406060500006090909090600406D9
:1048D00006050000609090909060040606050000B8
:1048E00060909090906004060605000090609090A3
:1048F00090600404040500009060609004060605C2
:10490000000070B0B0D0D0E0040606050000909022
:104910009090906004060605000090909090906042
:10492000040606050000909090909060040606052D
:104930000000900090909060030606050100A0A082
:10494000A040404004060605000080E090E0808022
:104950000406060500006090A09090A004060605DD
:10496000000040207090B050040606050000204072
:104970007090B05004060605000020507090B050B2
:1049800004060605000050A07090B050040606050D
:10499000000050007090B0500406060500006060F2
:1049A0007090B05004040405000070B0A0700305BE
:1049B000050501FF60808060400406060500004098
:1049C0002060B0C060040606050000204060B0C052
:1049D0006004060605000040A060B0C06004060642
:1049E000050000A00060B0C060030606050100805D
:1049F00040C04040E00306060501004080C0404042
:104A0000E003060605010040A0C04040E0030606A2
:104A1000050100A000C04040E0040606050000407B
:104A2000306090906004060605000050A0E0909071
:104A30009004060605000040206090906004060681
:104A400005000020406090906004060605000060AC
:104A5000006090906004060605000050A0609090F1
:104A60006004060605000050006090906004050593
:104A70000500006000F0006004040405000070B050
:104A8000D0E00406060500004020909090700406D7
:104A90000605000020409090907004060605000076
:104AA0006000909090700406060500005000909001
:104AB00090700407070500FF2040909050204004AC
:104AC00006060500FF80E09090E0800407070500DF
:104AD000FF500090905020402063203D2000206235
:104AE000203D2000706C616E653A2061203D200001
:104AF0004175746F6C6576656C696E672064697367
:104B000061626C6564004175746F6C6576656C6993
:104B10006E6720656E61626C6564004D33343020D1
:104B2000503020533838300A473420503230300A61
:104B30004D33343020503020532D31004D3334303C
:104B40002050302053313830300A47342050323032
:104B5000300A4D33343020503020532D3100417510
:104B6000746F6C6576656C206D6174726978207203
:104B7000657365740020453A00205A3A00583A009F
:104B800053706565644D756C7469706C793A004654
:104B90006C6F774D756C7469706C793A0046616E14
:104BA00073706565643A00526573656E643A006FB0
:104BB0006B20004D697373696E67206C696E656E5A
:104BC000756D6265720020676F7420004572726FA8
:104BD000723A6578706563746564206C696E6520EF
:104BE00000736B697020006F6B004563686F3A005B
:104BF000446F6E65207072696E74696E67206669B5
:104C00006C65005344206572726F72206669786526
:104C100064005344206572726F7220646964206E70
:104C20006F74207265636F76657221005344205261
:104C3000656164204572726F720053442072656131
:104C400064206572726F72007761697400466F72DA
:104C50006D6174206572726F7200534420636172DB
:104C60006420696E736572746564005344206361E7
:104C700072642072656D6F76656400686F6D654162
:104C80007869732000457874722E004550523A338B
:104C900020004550523A3220004550523A30200010
:104CA0000000420FA1071605D0030D038B022E0250
:104CB000E801B2018601630145012C0117010401DD
:104CC000F4000000000000000000000000000000F0
:104CD000000024F403D950C38EB1C2A23D96828B4A
:104CE0003582127AE372816CCB66A861015DC75888
:104CF000EB546151204E1E4B5648C14559431A4151
:104D0000013F093D2F3B7139CD374036C9346533FA
:104D10001432D430A32F802E6B2D632C672B752A71
:104D20008E29B028DC2710274B268F25D9242B2449
:104D30008223E0224322AC211A218D200420801FEF
:104D4000001F841E0C1E971D261DB81C4E1CE61B42
:104D5000821B201BC11A641A0A1AB2195D190A199A
:104D6000B9186A181C18D11788174017FA16B51603
:104D700073163116F115B31576153A150015C714CB
:104D80008F1458142214EE13BA13881356132513D4
:104D9000F612C71299126C1240121512EB11C111C2
:104DA0009811701148112111FB10D610B1108D10FF
:104DB0006910461024100210E10FC00FA00F800FE1
:104DC000610F420F230F060FE80ECB0EAF0E930EAE
:104DD000770E5C0E410E270E0D0EF30DDA0DC10D90
:104DE000A80D900D780D600D490D320D1B0D050DB0
:104DF000EF0CD90CC30CAE0C990C850C700C5C0C30
:104E0000480C350C210C0E0CFB0BE80BD60BC40B1D
:104E1000B20BA00B8E0B7D0B6B0B5A0B4A0B390B95
:104E2000290B180B080BF80AE90AD90ACA0ABB0AA7
:104E3000AC0A9D0A8E0A800A710A630A550A470A5B
:104E4000390A2C0A1E0A110A040AF709EA09DD09BF
:104E5000D009C409B709AB099F09920987097B09E1
:104E60006F09630958094C09410936092B092009C2
:104E700015090A090009F508EB08E008D608CC086E
:104E8000C208B808AE08A4089A08900887087D08E8
:104E900074086B08610858084F0846083D08340834
:104EA0002C0823081A08120809080108F807F00757
:104EB000E807E007D807D007C807C007B807B0075A
:104EC000A807A1078025000040380000004B000023
:104ED0008070000000960000C0DA000000E10000D1
:104EE000002C010008B2010000C2010000F4010022
:104EF0000084030090D0030000E8030000080700CE
:104F000020A1070000100E0040420F0060E31600D1
:104F10000000000055495F414354494F4E5F4550E2
:104F20004F534954494F4E200055495F414354491E
:104F30004F4E5F5A504F534954494F4E5F4641536D
:104F400054200055495F414354494F4E5F59504FDB
:104F5000534954494F4E5F46415354200055495FD1
:104F6000414354494F4E5F58504F534954494F4E57
:104F70005F46415354200055495F414354494F4EC9
:104F80005F5A504F534954494F4E200055495F4195
:104F90004354494F4E5F59504F534954494F4E2047
:104FA0000055495F414354494F4E5F58504F534954
:104FB00054494F4E2000205200204A002049002032
:104FC0005000205300204600204500205A00205960
:104FD00000205800205072696E7465722073746FDF
:104FE0007070656420616E642068656174657273B9
:104FF0002064697361626C65642064756520746FF8
:105000002074686973206572726F722E2046697809
:10501000206572726F7220616E64207265737461B4
:1050200072742077697468204D3939392E006661B1
:1050300074616C3A00556E6B6E6F776E00437572DB
:1050400061003B536C696365642061743A200067BA
:10505000656E65726174656420627920004C6179C7
:105060006572206865696768743A20003B206C614E
:105070007965725F686569676874200066696C614C
:105080006D656E742075736564006572726F722051
:1050900077726974696E6720746F2066696C650049
:1050A000504944204175746F74756E652066696E51
:1050B0006973686564202120506C616365207468A1
:1050C00065204B702C204B6920616E64204B64205E
:1050D000636F6E7374616E747320696E207468659B
:1050E00020436F6E66696775726174696F6E2E68B2
:1050F000206F7220454550524F4D00446F6E652021
:10510000736176696E672066696C652E002C226675
:10511000696C654E616D65223A22005D2C226765DF
:105120006E6572617465644279223A22002C2266AF
:10513000696C616D656E74223A5B002C226C61793A
:105140006572486569676874223A002C226865694F
:10515000676874223A007B22657272223A302C22F0
:1051600073697A65223A004E6F742053442070723E
:10517000696E74696E6700227D007B2265727222FF
:105180003A22005A20636F7272656374696F6E20F1
:10519000656E61626C6564005A20636F727265634C
:1051A00074696F6E2064697361626C656400436F3B
:1051B0006E6669673A005472616E73666F726D61F4
:1051C00074696F6E206D61747269783A00200053C3
:1051D0004420696E6974206661696C0066696C655B
:1051E0002E6F70656E206661696C65640046696C3F
:1051F000652073656C6563746564002053697A6526
:105200003A0046696C65206F70656E65643A00000F
:10521000002110422063308440A550C660E770082A
:105220008129914AA16BB18CC1ADD1CEE1EFF131B1
:1052300012100273325222B5529442F772D662397A
:105240009318837BB35AA3BDD39CC3FFF3DEE36201
:1052500024433420040114E664C774A44485546ACA
:10526000A54BB528850995EEE5CFF5ACC58DD55391
:1052700036722611163006D776F6669556B4465B1A
:10528000B77AA719973887DFF7FEE79DD7BCC7C461
:1052900048E5588668A7784008611802282338CC6A
:1052A000C9EDD98EE9AFF9488969990AA92BB9F5F1
:1052B0005AD44AB77A966A711A500A333A122AFDBA
:1052C000DBDCCBBFFB9EEB799B588B3BBB1AABA6C1
:1052D0006C877CE44CC55C222C033C600C411CAE0A
:1052E000ED8FFDECCDCDDD2AAD0BBD688D499D97D1
:1052F0007EB66ED55EF44E133E322E511E700E9F5A
:10530000FFBEEFDDDFFCCF1BBF3AAF599F788F8820
:1053100091A981CAB1EBA10CD12DC14EF16FE180F1
:1053200010A100C230E3200450254046706760B9E8
:10533000839893FBA3DAB33DC31CD37FE35EF3B141
:10534000029012F322D2323542145277625672EA38
:10535000B5CBA5A89589856EF54FE52CD50DC5E291
:1053600034C324A01481046674476424540544DBC8
:10537000A7FAB79987B8975FE77EF71DC73CD7D3E1
:1053800026F2369106B01657667676154634564C98
:10539000D96DC90EF92FE9C899E9898AB9ABA94431
:1053A00058654806782768C018E1088238A3287D28
:1053B000CB5CDB3FEB1EFBF98BD89BBBAB9ABB7581
:1053C0004A545A376A167AF10AD01AB32A923A2EF8
:1053D000FD0FED6CDD4DCDAABD8BADE89DC98D26D1
:1053E0007C076C645C454CA23C832CE01CC10C1F08
:1053F000EF3EFF5DCF7CDF9BAFBABFD98FF89F1721
:105400006E367E554E745E932EB23ED10EF01E491E
:105410004E46004E414E0050726F746F636F6C20A9
:1054200076657273696F6E206368616E6765642C60
:1054300020757067726164696E6700040003000084
:1054400000003FCDCC4C3D0AD7A33B6F12033A7C02
:105450003C3E5E2B3D3F2F5B5D3B2C2A225C00FFD8
:10546000D0FFE0FFCFFF64FFD1FF32380C0602010E
:10547000FF64FFD0FFFE00000000000000000000FD
:1054800000010000FF005A2D70726F626520737476
:105490006174653A007A5F6D61783A007A5F6D6990
:1054A0006E3A00795F6D61783A00795F6D696E3AA6
:1054B000004C2000482000785F6D61783A00785FEA
:1054C0006D696E3A00656E6473746F7073206869FD
:1054D000743A200044656275674C6576656C3A00E5
:1054E0005072696E7465724D6F64653A434E430045
:1054F0005072696E7465724D6F64653A4C61736584
:1055000072005072696E7465724D6F64653A4646FA
:10551000460055495F414354494F4E5F484F4D4502
:10552000414C4C2000005344207072696E7420730B
:10553000746F7070656420627920757365722E00D7
:10554000007A2D70726F626520646964206E6F74DA
:1055500020756E7472696767657220616674657222
:1055600020676F696E67206261636B20746F2073C0
:105570007461727420706F736974696F6E2E00208D
:105580007A436F72723A0020593A0020583A005A12
:105590002D70726F62653A005A2D70726F626520CD
:1055A0006661696C6564007A2D70726F6265207443
:1055B0007269676765726564206265666F726520EF
:1055C0007374617274696E672070726F62696E675E
:1055D0002E0000002100240027002A002D003000AA
:1055E000330001010000040107010A01000022004C
:1055F000250028002B002E0031003400020100009D
:10560000050108010B0100002000230026002900ED
:105610002C002F00320000010000030106010901E7
:1056200005050505070508080808020202020A0A1E
:10563000080804040404010101010101010103033C
:10564000030303030303040707070C0C0C0C0C0CE7
:105650000C0C0202020206060606060606060B0BE4
:105660000B0B0B0B0B0B0102102020080810204025
:105670001020408002010201080402010102040816
:1056800010204080804020100804020180040201A4
:1056900080402010080402010804020101020408ED
:1056A00010204080010204081020408000000A0BF6
:1056B00002090C0D0E0807030401000000000000A1
:1056C00000000000000000000000000000000000DA
:1056D0000000000000000000121110000000000097
:1056E00000000000000000000000000000000000BA
:1056F0000000205A002059004733332058005D7DB8
:1057000000222C2266696C6573223A5B007B22645E
:105710006972223A22002C002F00496E666F3A000F
:105720004572726F723A000071F311241FBECFEF01
:10573000D1E2DEBFCDBF00E00CBF23E1A6EBB2E0BB
:1057400001C01D92A530B207E1F712E0A0E0B2E07F
:10575000E8E9FAEF01E00BBF02C007900D92A63B0B
:10576000B107D9F71BE2C5E9DBE200E006C02197EB
:105770000109802FFE010E94BAFBC439D10780E0E5
:105780000807A9F70E94CEEE0C944AFD0C94000085
:105790004F925F926F927F928F929F92AF92BF9241
:1057A000CF92DF92EF92FF920F931F93CF93DF93ED
:1057B000CDB7DEB7C655D1090FB6F894DEBF0FBE20
:1057C000CDBF8C01DC0116968D919C9117978A3C78
:1057D000910511F40C94CF3408F0D3C082359105B3
:1057E00009F430C608F063C08A31910509F452C447
:1057F00058F58531910509F42BC498F4843091054E
:1058000009F4E6C328F4039709F4A1C30C94983F64
:105810008530910509F4F6C3449709F405C40C9446
:10582000983F8731910509F41BC408F415C48831E9
:10583000910509F42BC4499711F00C94983F80E02E
:105840000E94E8E70C9432418032910509F421C5A9
:1058500080F48C31910509F467C408F43DC48D319E
:10586000910511F40C9432414E9709F4A5C40C949F
:10587000983F8A32910509F463C528F4849709F4A6
:1058800050C50C94983F8035910509F4C6C5813503
:10589000910511F00C94983F0E94AA70269A80916D
:1058A000800F8F7B8093800F2E9A0C9432418D361F
:1058B000910509F4B0C638F58336910509F456C64A
:1058C00080F48435910509F4C6C508F4BFC5853553
:1058D000910509F4DEC58C35910509F4FEC50C94DB
:1058E000983F8A36910509F4B0C638F48836910598
:1058F00010F00C9432410C94983F8B36910509F4CA
:10590000BEC60C94983F8737910509F49BC7A8F44D
:105910008237910509F46AC730F48F36910509F48E
:10592000C1C60C94983F8337910509F4E2C68537C8
:10593000910509F461C70C94983F8E3B910509F4D9
:1059400076C6A8F48837910509F486C78C38910586
:1059500011F00C94983F0E94FFEB6093530E7093EC
:10596000540E8093550E9093560E0C943241883C01
:10597000910509F482C7893C910509F4CBC70C94C1
:10598000983F8336B1E09B0711F40C94693B08F013
:1059900087C08B3F910511F40C94143898F58F3C17
:1059A000910511F40C946B37A0F48C3C910511F423
:1059B0000C942C3510F40C9411358D3C910511F498
:1059C0000C94B1358E3C910511F40C942D370C9448
:1059D000983F8C3D910511F40C94E03738F4813DEB
:1059E000910511F40C94B9370C94983F8D3D9105B5
:1059F00011F40C94F237823E910511F40C9407389F
:105A00000C94983F8034F1E09F0711F40C94E83A2D
:105A1000F8F48C3231E0930711F40C94553858F4B3
:105A20008931914011F00C94983F89EE9DE00E94DD
:105A3000AAEE0C9432418E32A1E09A0711F40C9434
:105A4000D43A8F32914011F40C9432410C94983F27
:105A50008334E1E09E0711F40C94133B80F481340D
:105A600021E0920711F40C94EC3A8234914011F049
:105A70000C94983F80E00E94C2700C94013B8435E6
:105A800041E0940711F40C94553B8E35914011F090
:105A90000C94983F86EA9DE00E9455C30C943241D5
:105AA000843FA1E09A0711F40C94B43D08F014C2AD
:105AB0008839E1E09E0711F40C94A93B08F0EAC193
:105AC000803921E0920711F40C94733B08F0D5C1A2
:105AD0008836914011F00C94983F8090430290904A
