:100000000C94872F0C94B82F0C94B82F0C94B82F05
:100010000C94B82F0C94B82F0C94B82F0C94B82FC4
:100020000C94B82F0C94B82F0C94B82F0C94B82FB4
:100030000C94B82F0C94D69B0C94B82F0C94B82F1A
:100040000C94B82F0C949D7D0C94B82F0C94B82F61
:100050000C94B82F0C94B82F0C94877A0C947C9D38
:100060000C94B82F0C94139B0C94EA9A0C94B82F10
:100070000C94B82F0C94B82F0C94B82F0C94B82F64
:100080000C946D7C0C94B82F0C94B82F0C94B82F52
:100090000C94C19A0C94989A0C94B82F0C94B82F85
:1000A0000C94B82F0C94B82F0C94B82F0C94B82F34
:1000B0000C94B82F0C94B82F0C94B82F0C94B82F24
:1000C0000C94B82F0C94B82F0C94B82F0C94B82F14
:1000D0000C94B82F0C94B82F0C94B82F0C94B82F04
:1000E0000C94B82F8B7C9B7C9D7CBC7CA67CBC7CC0
:1000F000AF7CBC7C369A399A289A2C9A329A709A9C
:100100003D9A419A479A4B9A4F9A559A599A5D9AB5
:10011000709A639A679A6B9A989C9D9CA29CAC9CDF
:10012000B69C2F9DC09CC89CD09CDA9CE49CEE9C05
:10013000FD9C079D2F9D119D1B9D259D23D93ED97B
:100140003ED93ED93ED93ED93ED93ED93ED93ED9F7
:100150003ED93ED93ED93ED93ED93ED93ED93ED9E7
:100160003ED93ED93ED93ED93ED9C5D8D6D8A0D859
:100170008FD81DD82AD879D7B4D864D871D8E7D801
:10018000F8D88ED760D709D954D83ED982D847D865
:100190003AD83ED93ED93ED9F0D700D80DD83ED96D
:1001A0003ED93ED93ED93ED93ED9C5D8D6D8A0D819
:1001B0008FD81DD82AD879D7B4D864D871D8E7D8C1
:1001C000F8D88ED760D709D954D83ED982D847D825
:1001D0003AD83ED93ED93ED9F0D700D80DD899DDCE
:1001E0000BDED3DDCADDDDDDE2DDFFDD084AD73B16
:1001F0003BCE016E84BCBFFDC12F3D6C74319ABDF6
:1002000056833DDA3D00C77F11BED9E4BB4C3E9119
:100210006BAAAABE000000803F05A84CCDB2D44E08
:10022000B93836A9020C50B9918688083CA6AAAA0A
:100230002ABE000000803F000D9437130D94381340
:100240004E414E494E495459494E46CDCCCC3D0ABB
:10025000D7233C17B7D13877CC2B329595E6241F9E
:10026000B14F0A000020410000C84200401C462057
:10027000BCBE4CCA1B0E5AAEC59D745D7D00222CBF
:100280002266696C6573223A5B007B226469722284
:100290003A2200456E642066696C65206C6973744F
:1002A00000426567696E2066696C65206C697374CD
:1002B000005344207072696E74696E6720627974AD
:1002C00065200057726974696E6720746F206669D3
:1002D0006C653A20006F70656E206661696C6564BC
:1002E0002C2046696C653A20004372656174696F21
:1002F0006E206661696C6564004469726563746F41
:1003000072792063726561746564002C2266696C81
:10031000654E616D65223A22005D2C2267656E652F
:1003200072617465644279223A22002C2266696CFB
:10033000616D656E74223A5B002C226C6179657286
:10034000486569676874223A002C226865696768A5
:1003500074223A007B22657272223A302C22736931
:100360007A65223A004E6F74205344207072696E91
:1003700074696E6700227D007B22657272223A22C8
:1003800000206D696E0020686F7572732000206414
:1003900061797320005072696E74696E67207469A8
:1003A0006D653A006D20005072696E746564206658
:1003B000696C616D656E743A005265747261637444
:1003C000696F6E20756E646F20737065656400459B
:1003D0007874726120657874727573696F6E206FBE
:1003E0006E20756E646F2072657472616374205B39
:1003F0006D6D5D0052657472616374696F6E207A11
:100400002D6C696674205B6D6D5D00526574726160
:100410006374696F6E207370656564205B6D6D2F0A
:10042000735D0052657472616374696F6E206C65F0
:100430006E677468205B6D6D5D00456E61626C6512
:100440002072657472616374696F6E20636F6E767B
:10045000657273696F6E205B302F315D0074616E61
:10046000585A204178697320436F6D70656E7361CF
:1004700074696F6E0074616E595A204178697320F7
:10048000436F6D70656E736174696F6E0074616E39
:100490005859204178697320436F6D70656E7361A0
:1004A00074696F6E004175746F6C6576656C206160
:1004B00063746976652028312F3029005A2D7072B7
:1004C0006F62652062656E64696E6720636F727229
:1004D000656374696F6E2043205B6D6D5D005A2DFE
:1004E00070726F62652062656E64696E6720636F0B
:1004F0007272656374696F6E2042205B6D6D5D0082
:100500005A2D70726F62652062656E64696E672035
:10051000636F7272656374696F6E2041205B6D6DED
:100520005D005A2D70726F6265205933205B6D6DCE
:100530005D005A2D70726F6265205833205B6D6DBF
:100540005D005A2D70726F6265205932205B6D6DAF
:100550005D005A2D70726F6265205832205B6D6DA0
:100560005D005A2D70726F6265205931205B6D6D90
:100570005D005A2D70726F6265205831205B6D6D81
:100580005D005A2D70726F6265206F6666736574C8
:100590002079205B6D6D5D005A2D70726F62652051
:1005A0006F66667365742078205B6D6D5D005A2DF3
:1005B00070726F626520782D792D73706565642087
:1005C0005B6D6D2F735D005A2D70726F62652073C5
:1005D00070656564205B6D6D2F735D004D61782ED5
:1005E000207A2D70726F6265202D20626564206410
:1005F0006973742E205B6D6D5D005A2D70726F6291
:100600006520686569676874205B6D6D5D00436F88
:100610006174696E6720746869636B6E65737320BB
:100620005B6D6D5D005A2D6178697320747261761F
:10063000656C20616363656C65726174696F6E20BF
:100640005B6D6D2F735E325D00592D61786973208B
:1006500074726176656C20616363656C6572617448
:10066000696F6E205B6D6D2F735E325D00582D617A
:100670007869732074726176656C20616363656C60
:1006800065726174696F6E205B6D6D2F735E325D94
:10069000005A2D6178697320616363656C657261CE
:1006A00074696F6E205B6D6D2F735E325D00592D26
:1006B0006178697320616363656C65726174696FE9
:1006C0006E205B6D6D2F735E325D00582D61786911
:1006D0007320616363656C65726174696F6E205B22
:1006E0006D6D2F735E325D005061726B20706F73A1
:1006F0006974696F6E205A207261697365205B6D41
:100700006D5D005061726B20706F736974696F6EFC
:100710002059205B6D6D5D005061726B20706F73AE
:100720006974696F6E2058205B6D6D5D005A206D95
:100730006178206C656E677468205B6D6D5D005933
:10074000206D6178206C656E677468205B6D6D5DEF
:100750000058206D6178206C656E677468205B6D51
:100760006D5D005A206D696E20706F73205B6D6D3A
:100770005D0059206D696E20706F73205B6D6D5D3B
:100780000058206D696E20706F73205B6D6D5D0089
:100790004D61782E205A2D6A65726B205B6D6D2F2E
:1007A000735D004D61782E206A65726B205B6D6D04
:1007B0002F735D005A2D6178697320686F6D696EC3
:1007C00067206665656472617465205B6D6D2F736B
:1007D0005D00592D6178697320686F6D696E6720BF
:1007E0006665656472617465205B6D6D2F735D0075
:1007F000582D6178697320686F6D696E6720666532
:10080000656472617465205B6D6D2F735D005A2D98
:1008100061786973206D61782E2066656564726108
:100820007465205B6D6D2F735D00592D6178697360
:10083000206D61782E206665656472617465205B49
:100840006D6D2F735D00582D61786973206D61782F
:100850002E206665656472617465205B6D6D2F7313
:100860005D005A2D61786973207374657073207010
:100870006572206D6D00592D617869732073746500
:10088000707320706572206D6D00582D61786973EA
:1008900020737465707320706572206D6D005374E1
:1008A0006F70207374657070657220616674657214
:1008B00020696E6163746976697479205B6D732C4D
:1008C000303D6F66665D004D61782E20696E616314
:1008D000746976652074696D65205B6D732C303D9D
:1008E0006F66665D005072696E7465722061637434
:1008F000697665205B735D00426175647261746541
:10090000004C616E6775616765004E6F20636173AF
:1009100065206C6967687473004D61784265645442
:10092000656D703A005072696E74657254797065C5
:100930003A43617274657369616E005A54726176EC
:10094000656C416363656C3A005954726176656CFD
:10095000416363656C3A005854726176656C41631B
:1009600063656C3A005A5072696E74416363656CDA
:100970003A00595072696E74416363656C3A00586D
:100980005072696E74416363656C3A005A53697AB8
:10099000653A005953697A653A005853697A653A5D
:1009A000005A4D61783A00594D61783A00584D61CE
:1009B000783A005A4D696E3A00594D696E3A0058BE
:1009C0004D696E3A0052657472616374696F6E5559
:1009D0006E646F53706565643A005265747261634A
:1009E00074696F6E556E646F45787472614C6F6E8A
:1009F000674C656E6774683A00526574726163741F
:100A0000696F6E556E646F45787472614C656E6780
:100A100074683A0052657472616374696F6E5A4CFF
:100A20006966743A0052657472616374696F6E53DB
:100A3000706565643A0052657472616374696F6EC3
:100A40004C6F6E674C656E6774683A0052657472DD
:100A5000616374696F6E4C656E6774683A004A65CD
:100A6000726B5A3A004B656570416C697665496EE8
:100A700074657276616C3A004A65726B58593A0037
:100A80005072696E746C696E6543616368653A00A3
:100A9000454550524F4D3A004175746F6C6576650F
:100AA0006C3A005A50726F62653A00436173654C4C
:100AB00069676874733A00537570706F72744C6F25
:100AC00063616C46696C616D656E746368616E67C5
:100AD000653A00537570706F727447313047313129
:100AE0003A005A486F6D65506F733A0059486F6D00
:100AF00065506F733A0058486F6D65506F733A00D8
:100B00005A486F6D654469723A0059486F6D654483
:100B100069723A0058486F6D654469723A00536FC4
:100B2000667477617265506F776572537769746325
:100B3000683A004C43443A0046616E323A3000460F
:100B4000616E3A005344436172643A0048656174CF
:100B500065644265643A004D6978696E67457874EA
:100B600072756465723A004E756D4578747275647D
:100B700065723A0042617564726174653A007D0085
:100B80005D005D2C226D61784665656472617465F7
:100B900073223A5B00222C226D696E466565647291
:100BA00061746573223A5B302C302C3000312E306A
:100BB0002E3300222C226669726D776172654E6158
:100BC0006D65223A225265706574696572222C2225
:100BD0006669726D7761726556657273696F6E22B0
:100BE0003A220052414D5053005D2C226669726DCD
:100BF00077617265456C656374726F6E69637322A9
:100C00003A22005D2C22616363656C6572617469D0
:100C10006F6E73223A5B005D2C22617869734D61BF
:100C2000786573223A5B002C22617869734D696E96
:100C300073223A5B002266697273744C6179657243
:100C4000486569676874223A002266726163746954
:100C50006F6E5072696E746564223A005D2C002CD0
:100C60002265787472526177223A5B002C22637598
:100C70007272656E744C61796572223A005D002271
:100C80002C22746F6F6C73223A5B004D50434E43BD
:100C900000222C226E616D65223A2200636172741B
:100CA000657369616E002C22636F6C6445787472A1
:100CB00075646554656D70223A302C22636F6C64E4
:100CC0005265747261637454656D70223A302E30CF
:100CD0002C2267656F6D65747279223A22005D7D02
:100CE0007D2C2274696D65223A005D2C227374613B
:100CF0007465223A205B005D2C226163746976651D
:100D0000223A205B00226865616473223A207B22CC
:100D100063757272656E74223A205B002274656D91
:100D20007073223A207B005D7D2C002C2265787444
:100D300072466163746F7273223A5B005D2C22739A
:100D400070656564466163746F72223A002C226696
:100D5000616E50657263656E74223A5B002C22707E
:100D60006172616D73223A207B22617478506F77D3
:100D70006572223A005D7D2C2263757272656E7415
:100D8000546F6F6C223A005D2C2278797A223A5B9C
:100D9000005D2C2265787472223A5B0022617865CE
:100DA00073486F6D6564223A5B002C22636F6F722B
:100DB0006473223A207B002C226669726D7761721F
:100DC000654E616D65223A2252657065746965727F
:100DD00022002C226D794E616D65223A224D5043DE
:100DE0004E4322002C2267656F6D65747279223A3A
:100DF0002243617274657369616E22005D002C226A
:100E0000686F6D6564223A5B005D002C2266616E3E
:100E100050657263656E74223A5B002C2270726FAB
:100E20006265223A005D2C22746F6F6C223A002CAE
:100E30002265666163746F72223A5B005D2C2273D7
:100E4000666163746F72223A005D2C226578747259
:100E5000223A5B005D2C22706F73223A5B005D2C9E
:100E6000226873746174223A5B005D2C2273746192
:100E70006E646279223A5B005D2C2261637469764C
:100E800065223A5B00222C226865617465727322C8
:100E90003A5B007B22737461747573223A202200DE
:100EA000696E666F3A436F6E74696E75652066721F
:100EB0006F6D20666174616C2073746174650000ED
:100EC00054657374696E6720666174616C20657225
:100ED000726F720029203D20002C0042656E64690B
:100EE0006E67206174202800436F6E6669677572B3
:100EF0006174696F6E206C6F616465642066726FE7
:100F00006D20454550524F4D2E00436F6E66696708
:100F100075726174696F6E2073746F72656420748A
:100F20006F20454550524F4D2E00436F6C64206535
:100F30007874727573696F6E20646973616C6C6F1D
:100F400077656400436F6C642065787472757369AB
:100F50006F6E20616C6C6F776564005761746368B5
:100F6000646F6720666561747572652077617320B0
:100F70006E6F7420636F6D70696C656420696E7448
:100F80006F20746869732076657273696F6E2100D3
:100F90004175746F726574726163743A00205A4AC5
:100FA00065726B3A004A65726B3A0020746F2000DC
:100FB00053657420766F6C756D6574726963206516
:100FC0007874727573696F6E20666F7220657874BD
:100FD0007275646572200044697361626C65642097
:100FE000766F6C756D65747269632065787472755F
:100FF00073696F6E20666F722065787472756465B0
:10100000722000205A533A002059533A0058533A5C
:1010100000505245484541543A31005041555345DE
:1010200053544F503A3100544F47474C455F4C4959
:10103000474854533A3000534F4654574152455F46
:10104000504F5745523A31005A5F50524F42453A3D
:1010500031004155544F4C4556454C3A31004545B9
:1010600050524F4D3A31004155544F5245504F5216
:10107000545F54454D503A310050524F47524553FA
:10108000533A31004649524D574152455F4E414D0A
:10109000453A52657065746965725F312E302E3342
:1010A00020434F4D50494C45443A536570203130F0
:1010B0002032303139204649524D574152455F5513
:1010C000524C3A68747470733A2F2F67697468755C
:1010D000622E636F6D2F72657065746965722F5231
:1010E000657065746965722D4669726D77617265A8
:1010F0002F2050524F544F434F4C5F564552534947
:101100004F4E3A312E30204D414348494E455F54B1
:101110005950453A4D656E64656C2045585452559A
:101120004445525F434F554E543A30205245504546
:10113000544945525F50524F544F434F4C3A33003D
:1011400050696E2063616E206E6F7420626520733B
:101150006574206279204D34322C20697320696EC9
:101160002073656E7369746976652070696E73218A
:1011700020002069732000496C6C6567616C205306
:101180002076616C756520666F72204D34320020C8
:10119000746F2000536574206F75747075743A20F5
:1011A00000000136372603023C3D380E0F2E303E3C
:1011B00012130D0C0A081A1C1824221E0D0E354C91
:1011C000617365724F6E3A002063203D20002062FB
:1011D000203D2000706C616E653A2061203D20004A
:1011E0002061745A3A0043757272656E745A3A00FF
:1011F00050726F62696E67206861642072657475F1
:10120000726E6564206572726F7273202D20617535
:10121000746F6C6576656C696E672063616E63657B
:101220006C65642E004175746F6C6576656C696ED3
:10123000672064697361626C6564004175746F6CEA
:101240006576656C696E6720656E61626C656400C9
:101250004D33343020503020533838300A47342052
:10126000503230300A4D33343020503020532D313D
:1012700000436F756C64206E6F74206163746976CF
:10128000617465207A2D70726F6265206F66667377
:1012900065742064756520746F20636F6F72646974
:1012A0006E61746520636F6E73747261696E7473BE
:1012B000202D20726573756C7420697320696E61CE
:1012C0006363757261746521002C20004163746949
:1012D000766174696E67207A2D70726F626520770F
:1012E0006F756C64206C65616420746F20666F722A
:1012F00062696464656E20787920706F73697469BF
:101300006F6E3A20004D3334302050302053313846
:1013100030300A473420503230300A4D33343020D8
:10132000503020532D31005A2D50726F6265206865
:1013300065696768742073657420746F3A20004192
:1013400075746F6C6576656C206D61747269782058
:1013500072657365740020453A00205A3A00583A85
:101360000053706565644D756C7469706C793A00F2
:10137000466C6F774D756C7469706C793A00466194
:101380006E73706565643A002417536F66747761F5
:101390007265205265736574005761746368646F89
:1013A000672052657365740042726F776E206F75A7
:1013B000742052657365740045787465726E616C53
:1013C00020526573657400506F77657255700048E0
:1013D0006F6D65206D616465004D50434E43004D57
:1013E000616368696E653A0056657220312E302E51
:1013F000330052657065746965720000000000007A
:101400000000000000000000000000000001FFFFDD
:101410000000000000078000FFFE00000038000010
:101420000007800000C3E1F07F0FC000071F87C1E5
:10143000FC3FC00038FFFFFFF0FE4001C3FFFFFF8D
:10144000C1FC400F0000000007F0403FFFFF80009C
:101450001FE0403FFFFFFFFFFF80403FFFFFFFFF18
:10146000FF00403FFFFFFFFFFE004030000001FF94
:10147000FC04403000000000FC0C40300000000084
:10148000381C403000000000383E403000000000B2
:10149000387E4030FFFF800038FE4030FFFFF8000C
:1014A00038FE4030FFFFFE0038E64030FFFFFF000F
:1014B00038E64030FFFFFF8038C64030FFFFFF8036
:1014C00038C64030FFBFFF8038C44030FF80FFC0C7
:1014D00038C44030FF80FFC038C44030FF807FC038
:1014E00038CC4030FF807FC038FC4030FF807FC068
:1014F00038F84030FF80FFC038F84030FFFFFFC0B1
:1015000038F04030FFFFFF8038E04030FFFFFF80C1
:1015100038E04030FFFFFF0038C04030FFFFFE00E2
:1015200038C04030FFFFF00038C04030FF9FF0006F
:1015300038C04030FF8FFC0038C04030FF87FC00CF
:1015400038C04030FF87FE0038C04030FF83FF00C6
:1015500038C08030FF83FF0038C08030FF81FF80BB
:1015600038C10030FF81FF8038C20030FF80FFC0EB
:1015700038820030FF80FFC038840030FF807FE079
:10158000380800307F807FE0380800300F803FE06F
:101590003810003000003FF038100038000003F031
:1015A00038200038000000003840003C00000000F7
:1015B0003840003FF80000003980003FFFF800008D
:1015C0003D000000FFFFF8007F00000007FFFFF86C
:1015D0007E0000000007FFFFFC000000000003FF8A
:1015E000F80000000000000DF800000000000000FE
:1015F00000000000000000000000007A44697374DD
:101600006F7274696F6E436F7272656374696F6E27
:101610003A00467265652052414D3A008200000151
:101620000088134E65656473206C616E6775616731
:10163000652073656C656374696F6E0073746172A5
:10164000740057726F6E6720636865636B73756DA6
:10165000007761697400456E676C6973680000000B
:1016600004130400000000550000000412040000F0
:1016700000005400000004110400000000530000AA
:1016800000041604000000005100000004150400CE
:1016900000000050000000041404000000004F008F
:1016A0000000040F040000000038000000040E04D5
:1016B0000000000037000000040D040000000035A9
:1016C000000000040C040000000034000000040BC3
:1016D000040000000033000000040A0400000000C1
:1016E0003100000004090400000000300000000484
:1016F0000804000000002F000000000000000000AF
:1017000000890000000000000000000088000000C8
:101710000000000000000086000000000000000043
:1017200000008500561603A42600000000000000FB
:1017300000038204000000000A010000038104008D
:101740000000003F000000038004000000003E0095
:101750000000037F04000000003D000000037E0441
:10176000000000003C00001E95168A167F167416B5
:1017700069165E16001EED16E216D716CC16C116B7
:10178000B616AB16A0160317F81619170E17001E7B
:101790002417001E5B17501745173A172F17020022
:1017A00000070066170200000900741703580402BE
:1017B00000861703200402008A1702000002008E30
:1017C0001702000006009217000003DB040000006F
:1017D0000037010000030704000000003B00000088
:1017E000030604000000003A000000029E170000FB
:1017F00000004E00000002A51700000000390000A4
:101800000002AC17000000008700000002B31700C0
:1018100000000084000000041004000000008B00A1
:10182000000002BA1700000000E400000003B40446
:1018300000000000D200000003D6040000000029D0
:1018400001000003CA04000000001001000003C9E9
:1018500004000000000F01000003B20400000000BB
:10186000D000000003C804000000001F01000002B7
:10187000C117000000001100000004BD04000010AA
:1018800000E300000003B90400001000E1000000C4
:1018900003B80400001000E000000003B6040000DC
:1018A0001000DF00000003B50400001000DE00009F
:1018B0000003BE0400001000DD00000003B70400B8
:1018C000001000DC00000004B60F00000000090159
:1018D000000004B50F000000000801000004B40F70
:1018E000000000000701000000000000000000F2FE
:1018F00000000000000000000000AB00000000003D
:101900000000000000700000000000000000000067
:101910006F00000003E803000000002D0100000339
:101920008813000000002C01000004F203000000F6
:10193000002A01000001000000000000CB00001E92
:10194000201815180A18FF17F417E917DE17D31710
:10195000C817001E6D18621857184C184118361811
:101960002B18001EBA18AF18A41899188E188318CF
:101970007818001EDB18D018C5180719FC18F118C4
:10198000E618331928191D1912190200000A003E21
:101990001902000008005219020000080062190232
:1019A00000000400721903F00304007A1982000099
:1019B0000400821900000000000000000013010074
:1019C0000000000000000000F40000000000000023
:1019D0000000001D01000000000000000000F400F5
:1019E0000000028A19000010000D00000002911989
:1019F000000010000E01000002A4200000000010F2
:101A000000000002981900001000D9000000025EDA
:101A100020000010000E0000000457041000000019
:101A2000CA00000003B40410000000D2000000044B
:101A30005204100000007E00000002AD19100000EA
:101A400000CB000000041F0410000000B0000000E4
:101A500003C404040000004A000000034B0410000B
:101A600004004900000003C50410000400C9000080
:101A700000026C20000010000B00000000000000BD
:101A80000000001C01000000000000000000160122
:101A90000000000000000000001501000000000030
:101AA0000000000014010000000000000000001C05
:101AB000010000000000000000001601000000000E
:101AC0000000000000150100000000000000000000
:101AD0001401000000000000000000E00000000011
:101AE000000000000000DA0000000000000000001C
:101AF00000DF00000000000000000000DA0000002D
:101B000000000000000000E10000000000000000F4
:101B10000000DA00000000000000000000DE00000D
:101B20000000000000000000DA00000000000000DB
:101B3000000000DD00000000000000000000DA00EE
:101B4000000000000000000000DC000000000000B9
:101B500000000000DA00000003E803000000002D90
:101B600001000003D704000000002C01000004D88D
:101B700004000000002B0100000100000000000034
:101B80002901000000000000000000CF000000005C
:101B9000000000000000CE00000000000000000077
:101BA00000CD00000000000000000000CC0000009C
:101BB000029F19000000000601000004B3040000A9
:101BC0000000D10000000288200000000021000079
:101BD000000273200000000022000000028F20009D
:101BE0000000001F000000027A200000000020001A
:101BF0000000029620000000001D0000000281206D
:101C0000000000001E000000030004000010001689
:101C100000000003FF03000010001500000003FE99
:101C20000300001000140000000344040000000042
:101C30002E00000002A6190000000023000000038F
:101C4000360400000000C60000000343040000103A
:101C5000001C000000033104000010001B00000005
:101C600002AD1900000000CB000000045204000087
:101C700000007E000000041F0400000000B000000F
:101C80000004570400000000CA00000003FD030028
:101C900000100013000000000000000000006E00B3
:101CA0000000000000000000006D000000000000C7
:101CB000000000006C000000000000000000006B4D
:101CC000000000000000000000006A0000000000AA
:101CD000000000000069000000000000000000009B
:101CE0006800000000000000000000670000000025
:101CF000000000000000660000000000000000007E
:101D0000006500000000000000000000640000000A
:101D10000000000000000063000000000000000060
:101D200000006200000000000000000000610000F0
:101D30000000000000000000600000000000000043
:101D40000000005F000000000000000000005E00D6
:101D50000000000000000000005D00000000000026
:101D6000000000005C000000000000000000005BBC
:101D7000000000000000000000005A000000000009
:101D800000000000005900000000000000000000FA
:101D90005800000000000000000000570000000391
:101DA000C624100000000300000003E80300000048
:101DB000000400000001000000000000C900000055
:101DC00001000000000000F400000003F403010023
:101DD00002004D000000029D2002000000C900002A
:101DE0000003F703060000004A00000003F60302A8
:101DF0000004004900000003F50301000200480050
:101E0000000003E803000000000A000000000000DA
:101E10000000000039010000000000000000003850
:101E200001000000000000000000A8000000000009
:101E30000000000000A700000000000000000000FB
:101E4000A600000000000000000000A50000000047
:101E5000000000000000130100000000000000006E
:101E600000F400000000000000000000200100005D
:101E700000000000000000F400D519CA19BF19B411
:101E800019001E6F1A641A591A4E1A431A381A2D5D
:101E90001A221A171AF51D0C1A011AF619EB19E075
:101EA000199B1A901A851A7A1AC71ABC1AB11AA65F
:101EB0001ADD1AD21AF31AE81A091BFE1A1F1B148C
:101EC0001B351B2A1B4B1B401B771B6C1B611B56B6
:101ED0001BA31B981B8D1B821B001E8A1C1C1C1124
:101EE0001C061CFB1BF01BE51BDA1BCF1BC41B32A3
:101EF0001CB91BAE1B001E321C271C001E8A1C7F37
:101F00001C741C691C5E1C531C481C3D1CB61CAB7D
:101F10001CA01C951CE21CD71CCC1CC11C0E1D0354
:101F20001DF81CED1C3A1D2F1D241D191D661D5B7F
:101F30001D501D451D921D871D7C1D711DBE1DB3AD
:101F40001DBE1DA81D9D1D001EF51DEA1DDF1DD413
:101F50001DC91D001E161E0B1E2C1E211E421E37E3
:101F60001E6E1E631E581E4D1E526571756573747C
:101F700050617573653A0052657175657374436F8E
:101F80006E74696E75653A0005CC040400791E2FE5
:101F90002F20616374696F6E3A726573756D6500A9
:101FA00044656C6574696F6E206661696C65640078
:101FB00046696C652064656C6574656400020000A8
:101FC0001000811E05CE040400A11E05CD040400EE
:101FD000A91E0310270200B11E0310270200B51E20
:101FE0000310270200B91E0310270200BD1E0310B4
:101FF000270200C11E0310270200C51E8200000434
:1020000000C91E454550524F4D207570646174657E
:1020100064005072696E74657220686569676874DF
:102020003A000588130400D11E2F2F2061637469C4
:102030006F6E3A706175736500696D706F7274616F
:102040006E743A2046696C616D656E7420636861D8
:102050006E676520726571756972656421000200A2
:10206000000E00D91E0200000300F51E0200000948
:1020700000FB1E03FC0304000D1F03FB03040015FB
:102080001F03FA0304001D1F03EF030400251F03B1
:10209000EE0304002D1F03ED030400351F020000B2
:1020A00005003D1F0200000600471F01000001005F
:1020B000531F0310270200551F0310270200591F4A
:1020C00003102702005D1F4A616D20636F6E7472FA
:1020D0006F6C2064697361626C65643A0005CC04BE
:1020E0000400611F0000000000000000000000016B
:1020F0000000FF0044656275674C6576656C3A00C8
:102100005072696E7465724D6F64653A434E430058
:102110005072696E7465724D6F64653A4C61736597
:1021200072005072696E7465724D6F64653A46460E
:1021300046005A206A65726B2077617320746F6F56
:10214000206C6F772C2073657474696E6720746FD0
:1021500020005859206A65726B2077617320746F74
:102160006F206C6F772C2073657474696E672074B0
:102170006F20005344206361726420696E7365723E
:1021800074656400534420636172642072656D6FEE
:1021900076656400457874722E004550523A3320BB
:1021A000004550523A3220004550523A3020005AF1
:1021B0002D70726F62652073746174653A007A5F86
:1021C0006D61783A007A5F6D696E3A00795F6D6192
:1021D000783A00795F6D696E3A004C200048200023
:1021E000785F6D61783A00785F6D696E3A00656E70
:1021F0006473746F7073206869743A200000004241
:102200000FA1071605D0030D038B022E02E801B2C1
:10221000018601630145012C0117010401F400004E
:10222000000000000000000000000000000000248A
:10223000F403D950C38EB1C2A23D96828B3582126F
:102240007AE372816CCB66A861015DC758EB54617B
:1022500051204E1E4B5648C14559431A41013F0972
:102260003D2F3B7139CD374036C93465331432D4F4
:1022700030A32F802E6B2D632C672B752A8E29B0EF
:1022800028DC2710274B268F25D9242B248223E0F6
:10229000224322AC211A218D200420801F001F849C
:1022A0001E0C1E971D261DB81C4E1CE61B821B20F3
:1022B0001BC11A641A0A1AB2195D190A19B9186AE7
:1022C000181C18D11788174017FA16B5167316314F
:1022D00016F115B31576153A150015C7148F145855
:1022E000142214EE13BA13881356132513F612C7CB
:1022F0001299126C1240121512EB11C11198117043
:102300001148112111FB10D610B1108D1069104623
:102310001024100210E10FC00FA00F800F610F42B8
:102320000F230F060FE80ECB0EAF0E930E770E5C49
:102330000E410E270E0D0EF30DDA0DC10DA80D90F6
:102340000D780D600D490D320D1B0D050DEF0CD9EB
:102350000CC30CAE0C990C850C700C5C0C480C3545
:102360000C210C0E0CFB0BE80BD60BC40BB20BA014
:102370000B8E0B7D0B6B0B5A0B4A0B390B290B1871
:102380000B080BF80AE90AD90ACA0ABB0AAC0A9D6B
:102390000A8E0A800A710A630A550A470A390A2C0A
:1023A0000A1E0A110A040AF709EA09DD09D009C45C
:1023B00009B709AB099F09920987097B096F09636E
:1023C0000958094C09410936092B09200915090A40
:1023D000090009F508EB08E008D608CC08C208B8DF
:1023E00008AE08A4089A08900887087D0874086B4E
:1023F00008610858084F0846083D0834082C08238F
:10240000081A08120809080108F807F007E807E0A9
:1024100007D807D007C807C007B807B007A807A1A3
:1024200007000000000000000000F30000000000B2
:102430000000000000B000000000000000000000EC
:10244000AA000000000000000000005F0000000083
:102450000000000000005B00000000000000000021
:10246000005700000000000000000000EA0000002B
:1024700000000000000000E9000000000000000073
:102480000000E800000000000000000000E700007D
:102490000000000000000000E60000000000000056
:1024A000000000E50058244D24422437242C242128
:1024B000249A248F24842479246E24632400000029
:1024C0000600A5240000000600B1245A20636F72A4
:1024D00072656374696F6E2064697361626C6564B0
:1024E000005A20636F7272656374696F6E20656E47
:1024F00061626C656400C424BD2400070A00FE0705
:10250000026903FB00FFFE08FE07FE050707060041
:1025100000A80088008800A8050808060000080830
:10252000082848F8402003030306010440A04005A2
:102530000505060000F8F8F8F8F80505050600009E
:10254000F8888888F8050808060000205050507068
:10255000F8F8700705050900001CFE8282FE0508D8
:102560000806000088502088205088880608080641
:102570000000489048FCFC7830300608080600004F
:10258000244824FCFC783030060505060000FCFCDD
:10259000783030060202060000FCFC060606060043
:1025A0000048904890FCFC060606060000244824DB
:1025B00048FCFC070707070000824438283844829B
:1025C000070707070000101038EE381010FFFFFF54
:1025D000FFFFFFFFFFFFFFFFFFFFFFFFFF00000008
:1025E0000605FF01070706020080808080800080CA
:1025F000030303060104A0A0A0050707060000507E
:1026000050F850F850500507070600002070A070E1
:1026100028702006080806000044A44810204894AA
:102620008805070706000040A0A040A890680103A5
:102630000306020480808003070706010020408013
:1026400080804020030707060100804020202040B2
:10265000800505050600018850F850880505050627
:1026600000012020F820200303030601FF604080C2
:10267000040101060103F00202020601FFC0C005C9
:10268000070706000008081020408080050707069D
:102690000000205088888850200507070600002089
:1026A00060A0202020F80507070600007088083089
:1026B0004080F8050707060000F808103008887009
:1026C00005070706000010305090F81010050707A6
:1026D000060000F880B0C8088870050707060000EB
:1026E000304080B0C88870050707060000F8081061
:1026F0001020404005070706000070888870888811
:1027000070050707060000708898680810600205C9
:1027100005060201C0C000C0C00307070601FF4054
:10272000E040006040800407070601001020408060
:10273000402010050303060002F800F8040707060E
:10274000010080402010204080050707060000702F
:10275000881020200020050707060000708898A830
:10276000B0807005070706000020508888F8888828
:10277000050707060000F04848704848F0050707BD
:1027800006000070888080808870050707060000BA
:10279000F04848484848F0050707060000F88080E0
:1027A000F08080F8050707060000F88080F0808040
:1027B00080050707060000708880809888700507EC
:1027C00007060000888888F88888880307070601BC
:1027D00000E04040404040E0050707060000381098
:1027E00010101090600507070600008890A0C0A098
:1027F0009088050707060000808080808080F805AB
:1028000007070600008888D8A88888880507070673
:1028100000008888C8A89888880507070600007007
:10282000888888888870050707060000F08888F087
:102830008080800508080600FF7088888888A87056
:1028400008050707060000F08888F0A090880507B3
:10285000070600007088807008887005070706006A
:1028600000F8202020202020050707060000888887
:102870008888888870050707060000888888505077
:102880005020050707060000888888A8A8D8880572
:10289000070706000088885020508888050707062B
:1028A000000088885020202020050707060000F837
:1028B0000810204080F8030707060100E0808080B0
:1028C0008080E0050707060000808040201008088F
:1028D000030707060100E02020202020E005030375
:1028E0000600042050880501010600FFF8020202DC
:1028F0000602068040050505060000700878887805
:102900000507070600008080B0C888C8B005050527
:102910000600007088808870050707060000080818
:1029200068988898680505050600007088F880702A
:10293000050707060000304840F040404005070703
:102940000600FE788888780888700507070600006A
:102950008080B0C88888880307070601004000C04F
:10296000404040E00409090601FE1000301010103C
:1029700090906005070706000080808890E09088AE
:10298000030707060100C04040404040E005050540
:10299000060000D0A8A8A888050505060000B0C854
:1029A00088888805050506000070888888700507F6
:1029B000070600FEB0C888C8B0808005070706007B
:1029C000FE68988898680808050505060000B0C8E4
:1029D00080808005050506000070807008F00507FE
:1029E000070600004040F04040483005050506005D
:1029F000008888889868050505060000888850507A
:102A0000200505050600008888A8A85005050506CC
:102A1000000088502050880507070600FE88889827
:102A200068088870050505060000F8102040F804C5
:102A30000707060100304020C0204030010707068C
:102A4000020080808080808080040707060100C02B
:102A50002040304020C005030306000448A890FF32
:102A6000FFFFFFFFFFFFFFFFFFFFFFFFFFFFFFFF76
:102A7000FFFFFFFFFFFFFFFFFFFFFFFFFFFFFFFF66
:102A8000FF01070706020080008080808080050724
:102A9000070600FF2078A0A0A07820050707060001
:102AA00000304840E04048B0050505060000887049
:102AB0005070880508080600FF88885020F82020FC
:102AC00020010707060200808080008080800508C2
:102AD000080600FF7080E090483808700301010686
:102AE0000107A00507070600007088A8C8A888701D
:102AF0000406060601017090B05000F006050506B8
:102B000000002448904824040202060102F010FF4D
:102B10000507070600007088E8C8C888700501012D
:102B2000060007F803030306010440A0400506065B
:102B30000600002020F82020F804050506010360A7
:102B4000902040F0040505060103E0106010E0024B
:102B500002020602064080FF05070706000078E82B
:102B6000E868282828010101060203800202020603
:102B700002FE408003050506010340C04040E0041A
:102B800006060601016090906000F006050506004B
:102B90000090482448900609090600FF40C04040C4
:102BA000E40C143C040609090600FF40C04040E85C
:102BB0001404081C0509090600FFC0204020C8189D
:102BC00028780805070706000020002020408870AC
:102BD0000508080600004020708888F888880508E5
:102BE000080600001020708888F888880508080604
:102BF00000002050708888F88888050808060000C2
:102C000048B0708888F888880508080600005000D9
:102C1000708888F8888805080806000020507088A9
:102C200088F888880607070600003C50909CF090C2
:102C30009C0509090600FE7088808080887020400D
:102C400005080806000040F88080F08080F805083C
:102C50000806000010F88080F08080F8050808065B
:102C6000000020F88080F08080F805080806000049
:102C700050F88080F08080F803080806010080404A
:102C8000E040404040E00308080601002040E040EA
:102C9000404040E003080806010040A0E0404040FA
:102CA00040E0030808060100A000E040404040E08A
:102CB000050707060000F04848E84848F0050808FE
:102CC000060000285088C8A89888880508080600CB
:102CD0000040207088888888700508080600001069
:102CE00020708888888870050808060000205070C9
:102CF0008888888870050808060000285070888831
:102D00008888700508080600005000708888888848
:102D10007005050506000088502050880507070645
:102D20000000709898A8C8C8700508080600004000
:102D30002088888888887005080806000010208888
:102D40008888888870050808060000205000888858
:102D500088887005080806000050008888888888E0
:102D600070050808060000102088885020202005E3
:102D7000070706000080F088F080808005070706BE
:102D80000000708890A09088B005080806000040F8
:102D900020007008788878050808060000102000D8
:102DA0007008788878050808060000205000700830
:102DB0007888780508080600002850007008788890
:102DC0007805070706000050007008788878050825
:102DD000080600002050207008788878060505064F
:102DE000000078147C907C0507070600FE70888040
:102DF000887020400508080600004020007088F810
:102E000080700508080600001020007088F88070A7
:102E10000508080600002050007088F8807005073B
:102E20000706000050007088F8807003080806014B
:102E300000804000C0404040E00308080601004018
:102E40008000C0404040E003080806010040A000A8
:102E5000C0404040E0030707060100A000C040401A
:102E600040E0050707060000C030708888887005BC
:102E70000808060000285000B0C88888880508089F
:102E80000600004020007088888870050808060049
:102E9000001020007088888870050808060000204F
:102EA00050007088888870050808060000285000C7
:102EB00070888888700507070600005000708888B1
:102EC00088700505050600012000F80020050505AD
:102ED0000600007898A8C8F0050808060000402001
:102EE0000088888898680508080600001020008877
:102EF000888898680508080600002050008888889F
:102F000098680507070600005000888888986805BB
:102F100009090600FE10208888986808887005084E
:102F2000080600FE80F0888888F080800509090680
:102F300000FE50008888986808887000050700FF28
:102F400006024803BA00FFFF08FF06FF0505050556
:102F50000000A8008800A805080806000008080866
:102F60002848F8402003030306010440A04005055B
:102F700005060000F8F8F8F8F8050505060000F861
:102F8000888888F80508080600002050505070F81E
:102F9000F8700705050900001CFE8282FE0508087E
:102FA00006000088502088205088880608080600FF
:102FB00000489048FCFC78303006080806000024E1
:102FC0004824FCFC783030060505060000FCFC783F
:102FD0003030060202060000FCFC06060606000071
:102FE00048904890FCFC0606060600002448244849
:102FF000FCFC070707070000824438283844820792
:103000000707070000101038EE381010FFFFFFFF11
:10301000FFFFFFFFFFFFFFFFFFFFFFFF00000005B7
:103020000400010606050200808080800080030302
:1030300003050103A0A0A005050505000050F850F8
:10304000F85005050505000070A0702870040606FC
:103050000500008090204090100405050500004008
:10306000A040A050010303050203808080020606F1
:103070000501004080808080400206060501008036
:103080004040404080030505050100A040E040A00D
:103090000505050500002020F82020030303050195
:1030A000FF604080040101050002F00202020501F8
:1030B00000C0C0040404050001102040800306067F
:1030C00005010040A0A0A0A04003060605010040A5
:1030D000C0404040E004060605000060901020401B
:1030E000F0040606050000F010601090600406066B
:1030F0000500002060A0F02020040606050000F076
:1031000080E01090600406060500006080E090906A
:1031100060040606050000F010202040400406066A
:103120000500006090609090600406060500006055
:103130009090701060020505050100C0C000C0C07D
:103140000306060500FF606000604080030505057A
:1031500001002040804020040303050001F000F03E
:103160000305050501008040204080030606050197
:103170000040A0204000400406060500006090B01A
:10318000B08060040606050000609090F090900406
:103190000606050000E090E09090E00406060500B9
:1031A00000609080809060040606050000E090902A
:1031B0009090E0040606050000F080E08080F004B6
:1031C0000606050000F080E0808080040606050009
:1031D00000609080B090700406060500009090F0AA
:1031E000909090030606050100E040404040E00456
:1031F0000606050000101010109060040606050079
:103200000090A0C0C0A09004060605000080808049
:103210008080F004060605000090F0F09090900485
:10322000060605000090D0D0B0B090040606050058
:1032300000609090909060040606050000E0909079
:10324000E080800407070500FF60909090D0601038
:10325000040606050000E09090E0A0900406060534
:103260000000609040209060030606050100E040E9
:103270004040404004060605000090909090906009
:103280000406060500009090909060600406060514
:103290000000909090F0F0900406060500009090D9
:1032A00060609090030606050100A0A0A040404089
:1032B000040606050000F010204080F00306060515
:1032C0000100E080808080E004040405000180406B
:1032D0002010030606050100E020202020E0030264
:1032E0000205010440A0040101050000F0020202F1
:1032F00005010480400404040500007090B05004EF
:1033000006060500008080E09090E00304040500BC
:103310000060808060040606050000101070909028
:103320007004040405000060B0C0600406060500D7
:1033300000205040E040400405050500FF7090600B
:1033400080700406060500008080E09090900306DF
:10335000060501004000C04040E00307070501FFEB
:103360002000202020A0400406060500008080A048
:10337000C0A090030606050100C040404040E004A4
:103380000404050000A0F09090040404050000E08F
:10339000909090040404050000609090600405057E
:1033A0000500FFE09090E0800405050500FF7090A7
:1033B000907010040404050000E090808004040470
:1033C00005000070C030E00406060500004040E043
:1033D0004040300404040500009090907003040401
:1033E000050100A0A0A0400404040500009090F096
:1033F000F0040404050000906060900405050500D9
:10340000FF9090502040040404050000F02040F09C
:103410000306060501002040C040402001060605C5
:1034200002008080808080800306060501008040C5
:103430006040408004020205000450A0FFFFFFFF2F
:10344000FFFFFFFFFFFFFFFFFFFFFFFFFFFFFFFF8C
:10345000FFFFFFFFFFFFFFFFFFFFFFFFFF00000079
:1034600005040001060605020080008080808004BB
:1034700006060500FF2070A0A070200405050500C9
:10348000003040E040B00505050500008870507030
:1034900088030606050100A0A040E04040010505A4
:1034A00005020080800080800307070501FF60801F
:1034B000C0A06020C0030101050105A005070705A4
:1034C00000FF7088A8C8A888700303030500036084
:1034D000A0600503030500014890480402020500AE
:1034E00001F010030101050102E00507070500FFD7
:1034F0007088E8C8C88870040101050005F003035E
:103500000305010340A0400506060500002020F841
:103510002020F8020404050102C04080C002040417
:10352000050102C0C040C00202020501044080043F
:1035300005050500FF909090E08004060605000058
:1035400070D0D0505050020202050102C0C00202E9
:10355000020501FF408003040405010240C040E071
:1035600003030305000340A0400503030500019089
:1035700048900407070500FF808080903070100499
:1035800007070500FF808080B01020300407070582
:1035900000FFC0C040D03070100306060501004097
:1035A000004080A040040606050000609090F09066
:1035B00090040606050000609090F09090040606C6
:1035C000050000609090F0909004060605000060F1
:1035D0009090F09090040606050000906090F090A6
:1035E00090040606050000606090F09090040606C6
:1035F00005000070A0B0E0A0B00407070500FF6060
:10360000908080906040040606050000F080E08015
:1036100080F0040606050000F080E08080F00406DB
:1036200006050000F080E08080F00406060500003A
:10363000F080E08080F0030606050100E040404095
:1036400040E0030606050100E040404040E003067C
:1036500006050100E040404040E003060605010089
:10366000E040404040E0040606050000E050D05035
:1036700050E0040606050000B090D0B0B0900406FB
:10368000060500006090909090600406060500001A
:103690006090909090600406060500006090909005
:1036A000906004060605000060909090906004060B
:1036B00006050000906090909060040404050000EE
:1036C0009060609004060605000070B0B0D0D0E0B5
:1036D0000406060500009090909090600406060590
:1036E0000000909090909060040606050000909075
:1036F0009090906004060605000090009090906005
:10370000030606050100A0A0A040404004060605EF
:10371000000080E090E080800406060500006090D4
:10372000A09090A004060605000040207090B050C4
:1037300004060605000020407090B05004060605FF
:10374000000020507090B05004060605000050A004
:103750007090B05004060605000050007090B05004
:1037600004060605000060607090B0500404040573
:10377000000070B0A0700305050501FF6080806047
:1037800040040606050000402060B0C06004060644
:10379000050000204060B0C060040606050000403F
:1037A000A060B0C060040606050000A00060B0C0C4
:1037B000600306060501008040C04040E0030606A5
:1037C0000501004080C04040E003060605010040BE
:1037D000A0C04040E0030606050100A000C0404034
:1037E000E004060605000040306090906004060684
:1037F00005000050A0E090909004060605000040EF
:1038000020609090600406060500002040609090C3
:1038100060040606050000600060909060040606E3
:1038200005000050A060909060040606050000505E
:1038300000609090600405050500006000F00060E5
:1038400004040405000070B0D0E004060605000082
:103850004020909090700406060500002040909053
:1038600090700406060500006000909090700406B9
:10387000060500005000909090700407070500FFB7
:10388000204090905020400406060500FF80E09004
:1038900090E0800407070500FF5000909050204002
:1038A000008025000040380000004B0000807000C0
:1038B0000000960000C0DA000000E10000002C01CA
:1038C0000008B2010000C2010000F40100008403FE
:1038D0000090D0030000E803000008070020A107C3
:1038E0000000100E0040420F0060E31600000000D0
:1038F00000000020002300260029002C002F0032A9
:10390000000001000003010601090100000A0B028A
:10391000090C0D0E08070304010000000000000060
:103920000000000000000000000000000000000097
:103930000000000000000012111000000000000054
:103940000000000000000000000000000000000077
:10395000005265717565737453746F703A00556EDB
:103960006B6E6F776E0043757261003B536C6963D9
:1039700065642061743A200067656E6572617465E4
:103980006420627920004C617965722068656967FE
:1039900068743A20003B206C617965725F686569E4
:1039A000676874200066696C616D656E742075735C
:1039B000656400496E76616C696420617263005AC7
:1039C0002D70726F6265206D61783A007A2D6D619D
:1039D0007820686F6D696E67206661696C65640048
:1039E000526573657474696E67205A20636F7272D2
:1039F000656374696F6E005761726E696E673A0035
:103A00004D61782E20646973746F7274696F6E20D3
:103A100076616C7565206578636565646564202DE5
:103A2000206E6F742073657474696E6720746869A2
:103A3000732076616C75652E00205A5F4F464653A1
:103A400045543A0020595F4F46465345543A005872
:103A50005F4F46465345543A0052656C617469762F
:103A60006520706F736974696F6E696E670041627B
:103A7000736F6C75746520706F736974696F6E69AC
:103A80006E6700596F75206E65656420746F2064E1
:103A90006566696E6520582C205920616E64205A35
:103AA00020746F20736574206120706F696E7421BB
:103AB00000473332206C6576656C696E67206661FD
:103AC000696C656421004733302070726F62696EE3
:103AD00067206661696C65642100473239206C6536
:103AE00076656C696E67206661696C656421005259
:103AF00065736574205A20686569676874005A2D7B
:103B000070726F62652061766572616765206865B5
:103B1000696768743A00556E6B6E6F776E20636FDD
:103B20006D6D616E643A000000000000000000004E
:103B30001C01000000000000000000F40000000074
:103B40000000000000001B01000000000000000059
:103B50000017010000000000000000001C01000030
:103B600000000000000000F4000000000000000061
:103B700000001A0100000000000000000017010012
:103B800000000000000000001C0100000000000018
:103B9000000000F400000000000000000000190117
:103BA00000000000000000000017010000000000FD
:103BB000000000001C01000000000000000000F4F4
:103BC00000000000000000000000180100000000DC
:103BD00000000000001701483B3D3B323B273B748F
:103BE0003B693B5E3B533BA03B953B8A3B7F3BCCD9
:103BF0003BC13BB63BAB3B05CB040400D73B05CBFD
:103C0000040400DF3B05CB040400E73B05CB0404C0
:103C100000EF3B5344204361726420756E6D6F75F5
:103C20006E746564004361726420737563636573C9
:103C30007366756C6C7920696E697469616C697AF8
:103C400065642E0043616E2774206F70656E20726C
:103C50006F6F74206469726563746F72792E0A00E5
:103C600043616E27742066696E6420612076616C02
:103C700069642046415431362F4641543332207016
:103C80006172746974696F6E2E0A006572726F7268
:103C9000436F64653A20000A534420696E69746971
:103CA000616C697A6174696F6E206661696C6564C4
:103CB0002E0A446F206E6F74207265666F726D619C
:103CC00074207468652063617264210A49732074EA
:103CD0006865206361726420636F72726563746CDF
:103CE0007920696E7365727465643F0A4973206355
:103CF00068697053656C6563742073657420746FB4
:103D00002074686520636F72726563742076616CDD
:103D100075653F0A446F657320616E6F74686572E4
:103D20002053504920646576696365206E6565643B
:103D300020746F2062652064697361626C65643F02
:103D40000A49732074686572652061207769726919
:103D50006E672F736F6C646572696E672070726F27
:103D6000626C656D3F00534420696E697420666122
:103D7000696C000046696C652073656C65637465E9
:103D800064002053697A653A0046696C65206F705B
:103D9000656E65643A0066696C652E6F70656E20AD
:103DA0006661696C65640000002100240027002A18
:103DB000002D003000330001010000040107010A5A
:103DC000010102102020080810204010204080022D
:103DD0000102010804020101020408102040808051
:103DE00040201008040201800402018040201008D5
:103DF00004020108040201010204081020408001AD
:103E0000020408102040800505050507050808087C
:103E100008020202020A0A0808040404040101015B
:103E20000101010101030303030303030304070763
:103E3000070C0C0C0C0C0C0C0C0202020206060601
:103E400006060606060B0B0B0B0B0B0B0B2020209C
:103E50003F2E3F3F0020486F6D696E67004D6178CF
:103E60002E004D61782E0004000300436F6E6669DA
:103E7000673A00496E666F3A004572726F723A0097
:103E8000494E46004E414E00002C20004469737498
:103E90006F7274696F6E20636F7272656374696F9D
:103EA0006E206D61747269783A0053746F70706936
:103EB0006E6720646973746F7274696F6E206D65CC
:103EC00061737572656D656E742064756520746FBD
:103ED000206572726F72732E005265666572656E30
:103EE0006365205A20666F72206D65617375726517
:103EF0006D656E743A00473333206661696C6564A2
:103F00002100436F6E66696775726174696F6E2018
:103F1000726573657420746F2064656661756C7476
:103F2000732E0050726F746F636F6C2076657273BE
:103F3000696F6E206368616E6765642C20757067B9
:103F4000726164696E67005472616E73666F726D40
:103F50006174696F6E206D61747269783A004465AE
:103F600074656374656420454550524F4D207665F5
:103F70007273696F6E3A00627573793A70726F632B
:103F8000657373696E6700446F6F72206F70656E42
:103F900000627573793A646F6F72206F70656E009E
:103FA000627573793A68656174696E6700627573EA
:103FB000793A70617573656420666F7220757365F8
:103FC0007220696E746572616374696F6E00526508
:103FD00073656E643A006F6B200020676F74200079
:103FE0004572726F723A6578706563746564206CAF
:103FF000696E652000736B697020006F6B0045630C
:10400000686F3A00466F726D6174206572726F72EC
:1040100000436865636B73756D20726571756972B5
:104020006564207768656E20737769746368696E6C
:1040300067206261636B20746F20415343494920BC
:1040400070726F746F636F6C2E00204F00204C00F5
:10405000204B002042002041002048002043002047
:104060004400205200204A002049002050002053E4
:1040700000204600204500205A002059002058000A
:10408000202D205072696E7465722073746F707089
:10409000656420616E642068656174657273206474
:1040A000697361626C65642064756520746F207447
:1040B000686973206572726F722E20466978206578
:1040C00072726F7220616E642072657374617274B3
:1040D0002077697468204D3939392E006661746122
:1040E0006C3A0052657365742066726F6D20436F81
:1040F0006E66696700436F6E6669677572617469A1
:104100006F6E00526573657420454550524F4D00E7
:1041100025656A204A616D20436F6E74726F6C0072
:104120004D756C3A20256F6D252525202020204CCB
:1041300061733A256F702057004D756C3A20256FDA
:104140006D252525202020205370693A256F705257
:10415000504D20005A773A2578372020205A3A25AA
:1041600078320059773A257836202020593A257838
:10417000310058773A257835202020583A25783074
:10418000005374617274205A2D50726F6265004D35
:104190006561737572696E67202E2E2E005A2D4F41
:1041A00066667365743A25587A00436C6F736500D0
:1041B000436F6E74696E7565005265616C205A209C
:1041C000506F733A2557306D6D0054656D702E2019
:1041D0002565632F2545630243004D6561732E20DD
:1041E00050726F6265204865696768740042656453
:1041F000202020203A202570620243004578747206
:104200002E20363A20257035024300457874722EF0
:1042100020353A20257034024300457874722E20F0
:10422000343A20257033024300457874722E2033CF
:104230003A20257032024300457874722E20323ABB
:1042400020257031024300457874722E20313A20C7
:1042500025703002430050726568656174205465B2
:104260006D70657261747572657300486F6D696E0B
:10427000672E2E2E004175746F6C6576656C20621A
:1042800065640043616C6962726174696F6E204598
:1042900072726F720043616C6962726174696E67F9
:1042A0002062656400202020203E3E3E204F6B208F
:1042B0003C3C3C004C6576656C696E6720657272AB
:1042C0006F720046696C616D656E7420736C697005
:1042D00070696E6700486561746572206465636F1C
:1042E00075706C65640054656D702E2073656E7317
:1042F0006F7220646566656374004E6F74696669E9
:10430000636174696F6E3A006F627374727563747F
:10431000696F6E730062656420697320636C656108
:1043200072206F6620616E79004D616B6520737538
:1043300072652074686520686561746564002A2A66
:104340002A20506C656173652077616974202A2A80
:104350002A0043616E63656C0046616E20322073F3
:10436000706565643A2546532525250044697374B4
:104370006F7274696F6E20636F72722E3A25446596
:10438000004D65617375726520646973746F727432
:10439000696F6E0053657475700025506E0025506E
:1043A00070252525004C617965722025506C2F25DC
:1043B000504C00456E6453746F703A25647000531E
:1043C0006574205A206F66667365743A2554326DA1
:1043D0006D005365742059206F66667365743A25C5
:1043E00054316D6D005365742058206F6666736597
:1043F000743A2554306D6D00536574207072696E87
:1044000074206F666673657473005A2D70726F62E4
:1044100065206865696768743A257A6800254433C1
:10442000203320636F706965730025443220322089
:10443000636F7069657300254431203120636F70AC
:104440007900254430204E6F20636F7069657300DA
:104450002558352053656C65637420657874722E19
:104460002036002558342053656C656374206578C8
:1044700074722E2035002558332053656C656374A3
:1044800020657874722E2034005475726E20657821
:1044900074722E2036206F6666005475726E206529
:1044A0007874722E2035206F6666005475726E2007
:1044B000657874722E2034206F66660054656D70C6
:1044C0002E2036203A2565352F25453502430054E8
:1044D000656D702E2035203A2565342F2545340230
:1044E000430054656D702E2034203A2565332F2506
:1044F0004533024300202542436D6D000525656369
:104500000200052565632F254563020000256F73B2
:1045100000255566206D207072696E7465640025F3
:104520005566206D0025557400583A25783020597D
:104530003A257831004D756C3A20256F6D2020208A
:10454000453A257834005A3A25783220204275665B
:10455000203A20256F4200422565422F2545620200
:1045600000052565632F25456302422565422F25F9
:1045700045620200256F73004275663A20256F423E
:10458000004D756C3A20256F6D25252520FD2020D6
:1045900020453A202578346D00466C6F773AFD202F
:1045A000256F662525252020205A3A2578320020BF
:1045B000202020202020202020202020593A25784B
:1045C00031000A202565302F254530B020583A2586
:1045D0007830004C616E6775616765004375737470
:1045E0006F6D3A2542436D6D00437573746F6D00B6
:1045F000476C756520737469636B00477265656EFF
:1046000020504554207461706500426C75652070BF
:10461000617065722074617065004B6170746F6EBB
:10462000004275696C6454616B004E6F20636F616A
:1046300074696E67000042656420636F6174696E1F
:10464000672073657420746F0042656420636F6136
:1046500074696E67005374616E64627900457874A2
:104660007275646572206A616D0074656D70657243
:10467000617475726573202E2E2E00576169742047
:10468000666F722074617267657400657874727504
:10469000646572732E00436C69636B20746F2072C3
:1046A00065686561740049676E6F7265204D3130D1
:1046B0003620636D642025466900536572766F204D
:1046C000706F732E3A20256F53004175746F6C65BF
:1046D00076656C3A20256C6C00436C69636B2077BF
:1046E00068656E20646F6E650066696C616D656EED
:1046F000742075702F646F776E00526F74617465EB
:1047000020746F206D6F7665004368616E67652069
:1047100066696C616D656E74004368616E676520E3
:1047200066696C616D656E74005A206261627973AE
:104730007465702E3A256F596D6D0053746F70203B
:104740005072696E7400536C6F7742616E670044FB
:104750006561642074696D650041545820706F77FD
:104760006572206F6E2F6F6666007072696E746579
:10477000640046696C616D656E74207072696E7458
:104780006564005072696E74696E672074696D6546
:1047900000003A00206461797320005072696E74E1
:1047A00065722072656164792E00534420636172E2
:1047B0006420696E7365727465640053442063619C
:1047C00072642072656D6F7665640057616974204C
:1047D000726574722E3A255855206D6D00576169C7
:1047E000742074656D702E202558540243004C656A
:1047F00076656C2064656C74610043616C63756CF4
:10480000617465206C6576656C696E6700536574CC
:10481000205033005365742050320053657420508B
:1048200031005A2063616C69622E00536574205A0E
:104830003D30005265736574206D6561732E0053C1
:10484000686F77206D6561732E00466C6F77206D01
:10485000756C2E203A256F662525250053706565F9
:1048600064206D756C2E3A256F6D2525250020423C
:104870003A2565622F25456202437E256F62004519
:10488000333A2565322F25453202437E256F3200AB
:1048900045323A2565312F25453102437E256F315A
:1048A0000045313A2565302F25453002437E256F7E
:1048B000300020453A2565632F25456302437E2558
:1048C0006F43004275666665723A256F4200557007
:1048D0006C6F6164696E672E2E2E006C6F6164656B
:1048E0006420662E20454550524F4D00436F6E6642
:1048F000696775726174696F6E0073746F72656455
:1049000020696E20454550524F4D00436F6E6669D9
:104910006775726174696F6E00537465707065724B
:104920002064697361626C6564004B696C6C6564DA
:104930000048656174696E6720626564004865615E
:1049400074696E672065787472756465720041637E
:1049500074696F6E3A256C61005049440042616E83
:104960006742616E6700592D4F66667365743A251C
:10497000587900582D4F66667365743A255878004B
:10498000504944204D61783A255844004472697674
:1049900065204D61783A25584D004472697665204E
:1049A0004D696E3A25586D0050494420443A2558C7
:1049B000640050494420493A25586900436F6E7499
:1049C000726F6C2050574D3A25584D004465616414
:1049D00074696D653A2558700050494420503A2555
:1049E000587000436F6E74726F6C3A2558680041BE
:1049F0006476616E636520717561643A2558610063
:104A0000416476616E6365206C696E3A25586C006E
:104A1000537461622E54696D653A2558770041637D
:104A200063656C3A255841004D61782046523A251D
:104A300058460053746172742046523A25586600F5
:104A400053746570732F4D4D3A255365004261755F
:104A500064726174653A256F630047656E657261C3
:104A60006C005B6D696E5D20303D4F666600446989
:104A7000732E2061667465723A20256970004D615D
:104A8000782E20696E616374697665005B6D696E6E
:104A90005D20303D4F6666004469732E2061667468
:104AA00065723A20256973005374657070657220D1
:104AB000696E616374697665005365742066616E22
:104AC0002066756C6C005365742066616E20373506
:104AD000252525005365742066616E203530252517
:104AE00025005365742066616E203235252525002A
:104AF0005475726E2066616E204F66660046616E68
:104B00002073706565643A25467325252500466146
:104B10006E207370656564004D696E3A25737A2066
:104B20004D61783A25735A005A3A257832206D6DD6
:104B3000004D696E3A257379204D61783A25735995
:104B400000593A257831206D6D004D696E3A257314
:104B500078204D61783A25735800583A25783020EE
:104B60006D6D004D696E3A25737A204D61783A2556
:104B7000735A005A3A257832206D6D004D696E3AAD
:104B8000257379204D61783A25735900593A257873
:104B900031206D6D004D696E3A257378204D617836
:104BA0003A25735800583A257830206D6D00312031
:104BB000636C69636B203D2031206D6D00453A25A3
:104BC0007833206D6D00004D617820656E647374DC
:104BD0006F703A25735A004D696E20656E64737468
:104BE0006F703A25737A005A3A257832206D6D003D
:104BF000004D617820656E6473746F703A25735947
:104C0000004D696E20656E6473746F703A25737918
:104C100000593A257831206D6D00004D617820658E
:104C20006E6473746F703A257358004D696E206519
:104C30006E6473746F703A25737800583A25783033
:104C4000206D6D00004D617820656E6473746F7027
:104C50003A25735A004D696E20656E6473746F70E7
:104C60003A25737A005A3A257832206D6D202564F2
:104C70007A25645A00004D617820656E6473746F04
:104C8000703A257359004D696E20656E6473746FB8
:104C9000703A25737900593A257831206D6D2025B9
:104CA000647925645900004D617820656E647374E1
:104CB0006F703A257358004D696E20656E64737489
:104CC0006F703A25737800583A257830206D6D2042
:104CD00025647825645800486F6D653A25665A004A
:104CE000486F6D65205A3A25665A00486F6D6520F9
:104CF000593A25665900486F6D6520583A2566581F
:104D0000004D61783A25667A004D6178205A3A253F
:104D1000667A004D617820593A256679004D6178B0
:104D200020583A25667800466565647261746500AE
:104D300044656C6574652066696C65004D6F756EC1
:104D400074206361726400556E6D6F756E742063BC
:104D500061726400436F6E74696E7565207072696C
:104D60006E74005061757365207072696E740050C6
:104D700072696E742066696C6500416E7469206F9B
:104D80006F7A65004D6F76652061667465723A25AD
:104D90004F61004D696E2E6469737420203A254F6F
:104DA00064004261636B736C2E2020203A254F62B1
:104DB00000526574726163742020203A254F72009E
:104DC000254F32204F5053206661737400254F31B8
:104DD000204F505320636C617373696300254F301B
:104DE000204F5053206F6666004472792072756EB2
:104DF0003A256464004572726F7273203A256465C7
:104E000000496E666F2020203A256469004563687A
:104E10006F2020203A25646F004C6F616420662E5D
:104E200020454550524F4D0053746F726520746F8A
:104E300020454550524F4D00416363656C6572617A
:104E400074696F6E005A2D4A65726B203A25614A6B
:104E5000004A65726B2020203A25616A004D6F760A
:104E6000653A25615A004D6F7665205A203A2561D2
:104E70005A004D6F76652059203A256159004D6FD3
:104E800076652058203A256158005072696E743A50
:104E900025617A005072696E74205A3A25617A0051
:104EA0005072696E7420593A256179005072696EAA
:104EB0007420583A25617800536574204F726967F1
:104EC000696E002558322053656C656374206578DF
:104ED00074722E2033002558312053656C6563743D
:104EE00020657874722E2032002558302053656C6E
:104EF00065637420657874722E2031005475726E6B
:104F000020657874722E2033206F666600547572A7
:104F10006E20657874722E2032206F66660054759C
:104F2000726E20657874722E2031206F6666005490
:104F3000656D702E2033203A2565322F25453202CB
:104F4000430054656D702E2032203A2565312F259F
:104F5000453102430054656D702E2031203A25659D
:104F6000302F2545300243004265642074656D7022
:104F70003A2565622F2545620243004D6F76652014
:104F80004578747275646572004D6F7665205A209D
:104F900066617374004D6F7665205A004D6F7665BB
:104FA00020592066617374004D6F76652059004D5D
:104FB0006F766520582066617374004D6F766520AA
:104FC000580044697361626C652073746570706524
:104FD000720053657420746F206F726967696E0088
:104FE000436F6F6C646F776E004C69676874733AD7
:104FF000256C6F005072656865617420416C6C208F
:10500000457874722E00507265686561742053692A
:105010006E676C6520457874722E00486F6D652050
:105020005A00486F6D65205900486F6D6520580023
:10503000486F6D6520616C6C00486F6D652064651C
:105040006C746100446562756767696E67005344FC
:105050002063617264004578747275646572004DF6
:105060006F76650053657474696E677300256F65AC
:1050700000436F6E74726F6C004261636B200100BD
:105080002A2A2A2A204552524F52202A2A2A2A0006
:105090004E6F20534420636172640049646C650064
:1050A0005072696E74696E67005072696E74696ED1
:1050B000672E2E2E004E6F00596573004E2F410053
:1050C0004F6666004F6E00C450C050BC50B850B51B
:1050D00050A950A0509B5090508050795071506D05
:1050E0005064505F5056504E504450395030502903
:1050F0005022501B500650F44FE94FE04FD24FC2A0
:105100004FBB4FAF4FA84F9C4F954F894F7B4F6878
:105110004F554F424F2F4F1E4F0D4FFC4EE94ED66D
:105120004EC34EB84EAC4EA04E944E8A4E7E4E723A
:105130004E664E5D4E514E454E384E284E194E0D20
:105140004E014EF54DE94DDD4DCD4DC04DB14DA259
:105150004D934D844D7A4D6F4D634D544D474D3CAD
:105160004D304D274D1D4D134D094D014DF64CEB66
:105170004CE04CD74CC74CB74CA74CA64C964C8631
:105180004C764C754C654C554C454C444C3B4C2B2B
:105190004C1B4C1A4C114C014CF14BF04BE74BD7CC
:1051A0004BC74BC64BBD4BAE4BA54B954B8C4B7C6D
:1051B0004B734B634B5A4B4A4B414B314B284B186B
:1051C0004B0E4BFD4AF04AE24AD44AC64AB94AA8B5
:1051D0004A984A8C4A7E4A6E4A624A5A4A4D4A4026
:1051E0004A334A284A1E4A104A004AEF49E349D93D
:1051F00049CC49BC49B249A8499A498C498049736C
:105200004966495D4959494E493D4931492A49193B
:10521000490B49FA48EC48DB48CE48C348B248A19C
:105220004890487F486E485C484A483F4833482B7E
:105230004822481B4814480D48FA47EE47DD47CB43
:1052400047BB47AA479B479447924791478347727A
:10525000476A4759474F4746473B47294719470938
:1052600047FA46E946D946CA46BA46A64696468B06
:10527000467B466A465D4655464946364635462A89
:105280004621461A460A46FB45F045E945DC45D32A
:1052900045C245AF459945814578457445614557B7
:1052A0004546453545294525451F4511450D450CC4
:1052B000450245FC44F544E244CF44BC44AB449A27
:1052C000448944764463445044424437442A441D4C
:1052D000440A44F843E543D243BF43B343A5439E46
:1052E000439A43944381436C43594352433E432979
:1052F0004315430843FA42E642D542C342B442A5AD
:10530000429542834275426B425642474238422997
:10531000421A420B42FC41ED41DA41CA41B941B067
:1053200041AA419D418F41814172416341544139BC
:1053300041204110410341F540E340FFD0FFE0FF31
:10534000CFFF64FFD1FF32380C060201FF64FFD0AB
:10535000FFFE00FFC750000000000000000000003A
:1053600000000000000000000000000001060C002A
:10537000FE030229036300FF000AFE0800025767CC
:10538000A80088008800A8025767F088E8A8E88885
:10539000F002576770A8F8A8F8A8700257677088DD
:1053A0000808088870124565609010906001586880
:1053B000708880808878080802576720202020A8FD
:1053C0007020026767F8FCFC9CFCFCF802576770D1
:1053D000F8F8A8F8F870FFFFFFFFFFFFFF0355651F
:1053E0002040F840200257672070A820202020038A
:1053F00055652010F8102002576720202020A87043
:105400002004536350F8500257672070A820A870FA
:1054100020025969C0F0E0A0201010080802596964
:1054200018783828204040808002596980804040A8
:1054300020283878180259690808101020A0E0F0D8
:10544000C00365652848FC50300365653028FC487A
:1054500050046363C0D8640463630C6C980365658F
:105460002850FC50280258682070A870A8202020DE
:105470000365655028FC2850025868202020A87039
:10548000A870200365652448F048240365659048AA
:105490003C48900355652848F84828025767207013
:1054A000A8202020F8035565A090F890A002576727
:1054B000F8202020A870200257672070A820A8702C
:1054C000F80365652844F8402003656550887C082A
:1054D00010036565204CFC482803656510C8FC482E
:1054E0005003646448DCEC480365650858FC684078
:1054F0000257678090B0D09038100258682040F86A
:1055000048280808080258682010F890A080808079
:105510000258680808082848F84020025767808029
:10552000A090F81020035464F0103810035565085B
:105530000848F840035565304848E8480355656019
:105540009090B810025868F880E0C0A020101002B7
:105550005969A0C0F8C0A818F81828025666383053
:10556000A8888870025666E060A888887005536332
:105570002040F8035363F8402022386880C0A080A0
:10558000808080800238682060A0202020202005B4
:1055900053632010F8035363F8102022386880808A
:1055A000808080A0C0800238682020202020A06059
:1055B000200259692010F8102040F8402002586855
:1055C00050F05050505078500259692040F8402017
:1055D00010F810200259692040F8402040F840207F
:1055E00002586850F85050505050500259692010DD
:1055F000F8102010F81020025868505050505050A9
:10560000F8500257672040F800F810200257672032
:1056100010F800F8402002676714287C907C205026
:105620000267670858FCA4FC6840026767A050F84E
:1056300024F81028035565207880782002576720C9
:1056400050D85050505003556520F008F0200257B4
:105650006750505050D8502003656548FC84FC4882
:105660000258682050D85050D85020026666F8A0E2
:10567000D0A894080266667C142C54A44002666686
:1056800040A4542C147C0266660894A8D0A0F802AA
:105690006767103C40FC403C1002676720F008FC44
:1056A00008F02003646440E8D440036464085CAC00
:1056B000080258682070A8207020702002586820C6
:1056C00070207020A870200365652040D44020021F
:1056D000586820708820002000200365651008AC01
:1056E00008100258682000200020887020035565AB
:1056F000A0C0F8C0A00355652818F8182803556500
:1057000020788878200258682050D8505050507027
:1057100003556520F088F0200258687050505050B2
:10572000D850200259692050D85070007050700233
:1057300059692050D8505050D888F80259692050E3
:10574000F8885050D888F80259692070F870707045
:10575000F8A8F80259692050D850D850505070021B
:1057600059692050D850D850D888F8035565A0F012
:1057700088F0A0025868F880B0A09010080802587D
:105780006880804048286808F80258682050D8503F
:1057900050D850200365651068FC681002586850A6
:1057A0007850505050F05002596910F81010F8100D
:1057B00010F8100365652848FC48280365655048C3
:1057C000FC48500365653078FC78300365653858CF
:1057D000FC58380365657068FC687003656530784F
:1057E000FC78300355652060B86020035565203093
:1057F000E830200365653078B47830066666FCFCD6
:10580000FCFCFCFC006262FCFC006363FCFCFC0032
:105810006565FCFCFCFCFC006666FCFCFCFCFCFC1E
:10582000006868FCFCFCFCFCFCFCFC006969FCFCFE
:10583000FCFCFCFCFCFCFC006B6BFCFCFCFCFCFCC6
:10584000FCFCFCFCFC006C6CFCFCFCFCFCFCFCFCB4
:10585000FCFCFCFC005C6CF8F8F8F8F8F8F8F8F8D8
:10586000F8F8F8004C6CF0F0F0F0F0F0F0F0F0F038
:10587000F0F0004C6CF0F0F0F0F0F0F0F0F0F0F040
:10588000F0003C6CE0E0E0E0E0E0E0E0E0E0E0E000
:10589000002C6CC0C0C0C0C0C0C0C0C0C0C0C00070
:1058A0002C6CC0C0C0C0C0C0C0C0C0C0C0C0001C44
:1058B0006C808080808080808080808080303C6CA4
:1058C000E0E0E0E0E0E0E0E0E0E0E0E0016B6BA8D9
:1058D000005400A8005400A80054006C6CA854A800
:1058E00054A854A854A854A854006C6C54FCA8FCA8
:1058F00054FCA8FC54FCA8FC0A6262FCFC501C6C22
:10590000808080808080808080808080003666E01B
:10591000E0E0E0E0E0303666E0E0E0E0E0E00636DF
:1059200066E0E0E0E0E0E0006C6CE0E0E0E0E0E0B9
:10593000FCFCFCFCFCFC006C6CE0E0E0E0E0E01C4B
:105940001C1C1C1C1C006C6CFCFCFCFCFCFCE0E04B
:10595000E0E0E0E0006C6CFCFCFCFCFCFC1C1C1CB3
:105960001C1C1C363666E0E0E0E0E0E0006C6C1CDD
:105970001C1C1C1C1CE0E0E0E0E0E0006C6C1C1C4B
:105980001C1C1C1CFCFCFCFCFCFC025565F8F8F81B
:10599000F8F8025565F8888888F802556570888897
:1059A0008870025565F888A888F8025565F888F867
:1059B00088F8025565F8A8A8A8F8025565F8A8F86F
:1059C000A8F8025565F8C8A898F8025565F898A88F
:1059D000C8F8025565F8D8A8D8F8143363E0E0E0B9
:1059E000143363E0A0E0036565FCFCFCFCFC03658C
:1059F00065FC848484FC114A6AF0F0F0F0F0F0F069
:105A0000F0F0F0114A6AF09090909090909090F0A1
:105A10000463633C78F00463633C48F002576720FA
:105A2000207070F8F8F8025767202050508888F8E6
:105A300003556520207070F803556520205050F8FC
:105A400012476780C0E0F0E0C08012476780C0A0C6
:105A500090A0C08013356580C0E0C080133565809C
:105A6000C0A0C080036565C0F0FCF0C0036565C0E0
:105A7000B08CB0C0025767F8F8F870702020025759
:105A800067F8888850502020025565F870702020F3
:105A9000025565F850502020124767103070F070A2
:105AA0003010124767103050905030101335652079
:105AB00060E060201335652060A060200365650C00
:105AC0003CFC3C0C0365650C34C4340C0355652068
:105AD00070F87020035565205088502003556520CC
